{
  "abi": [
    {
      "type": "constructor",
      "inputs": [
        {
          "name": "token",
          "type": "address",
          "internalType": "contract IBurnMintERC20"
        },
        {
          "name": "localTokenDecimals",
          "type": "uint8",
          "internalType": "uint8"
        },
        {
          "name": "allowlist",
          "type": "address[]",
          "internalType": "address[]"
        },
        {
          "name": "rmnProxy",
          "type": "address",
          "internalType": "address"
        },
        {
          "name": "router",
          "type": "address",
          "internalType": "address"
        }
      ],
      "stateMutability": "nonpayable"
    },
    {
      "type": "function",
      "name": "acceptOwnership",
      "inputs": [],
      "outputs": [],
      "stateMutability": "nonpayable"
    },
    {
      "type": "function",
      "name": "addRemotePool",
      "inputs": [
        {
          "name": "remoteChainSelector",
          "type": "uint64",
          "internalType": "uint64"
        },
        {
          "name": "remotePoolAddress",
          "type": "bytes",
          "internalType": "bytes"
        }
      ],
      "outputs": [],
      "stateMutability": "nonpayable"
    },
    {
      "type": "function",
      "name": "applyAllowListUpdates",
      "inputs": [
        {
          "name": "removes",
          "type": "address[]",
          "internalType": "address[]"
        },
        {
          "name": "adds",
          "type": "address[]",
          "internalType": "address[]"
        }
      ],
      "outputs": [],
      "stateMutability": "nonpayable"
    },
    {
      "type": "function",
      "name": "applyChainUpdates",
      "inputs": [
        {
          "name": "remoteChainSelectorsToRemove",
          "type": "uint64[]",
          "internalType": "uint64[]"
        },
        {
          "name": "chainsToAdd",
          "type": "tuple[]",
          "internalType": "struct TokenPool.ChainUpdate[]",
          "components": [
            {
              "name": "remoteChainSelector",
              "type": "uint64",
              "internalType": "uint64"
            },
            {
              "name": "remotePoolAddresses",
              "type": "bytes[]",
              "internalType": "bytes[]"
            },
            {
              "name": "remoteTokenAddress",
              "type": "bytes",
              "internalType": "bytes"
            },
            {
              "name": "outboundRateLimiterConfig",
              "type": "tuple",
              "internalType": "struct RateLimiter.Config",
              "components": [
                {
                  "name": "isEnabled",
                  "type": "bool",
                  "internalType": "bool"
                },
                {
                  "name": "capacity",
                  "type": "uint128",
                  "internalType": "uint128"
                },
                {
                  "name": "rate",
                  "type": "uint128",
                  "internalType": "uint128"
                }
              ]
            },
            {
              "name": "inboundRateLimiterConfig",
              "type": "tuple",
              "internalType": "struct RateLimiter.Config",
              "components": [
                {
                  "name": "isEnabled",
                  "type": "bool",
                  "internalType": "bool"
                },
                {
                  "name": "capacity",
                  "type": "uint128",
                  "internalType": "uint128"
                },
                {
                  "name": "rate",
                  "type": "uint128",
                  "internalType": "uint128"
                }
              ]
            }
          ]
        }
      ],
      "outputs": [],
      "stateMutability": "nonpayable"
    },
    {
      "type": "function",
      "name": "getAllowList",
      "inputs": [],
      "outputs": [
        {
          "name": "",
          "type": "address[]",
          "internalType": "address[]"
        }
      ],
      "stateMutability": "view"
    },
    {
      "type": "function",
      "name": "getAllowListEnabled",
      "inputs": [],
      "outputs": [
        {
          "name": "",
          "type": "bool",
          "internalType": "bool"
        }
      ],
      "stateMutability": "view"
    },
    {
      "type": "function",
      "name": "getCurrentInboundRateLimiterState",
      "inputs": [
        {
          "name": "remoteChainSelector",
          "type": "uint64",
          "internalType": "uint64"
        }
      ],
      "outputs": [
        {
          "name": "",
          "type": "tuple",
          "internalType": "struct RateLimiter.TokenBucket",
          "components": [
            {
              "name": "tokens",
              "type": "uint128",
              "internalType": "uint128"
            },
            {
              "name": "lastUpdated",
              "type": "uint32",
              "internalType": "uint32"
            },
            {
              "name": "isEnabled",
              "type": "bool",
              "internalType": "bool"
            },
            {
              "name": "capacity",
              "type": "uint128",
              "internalType": "uint128"
            },
            {
              "name": "rate",
              "type": "uint128",
              "internalType": "uint128"
            }
          ]
        }
      ],
      "stateMutability": "view"
    },
    {
      "type": "function",
      "name": "getCurrentOutboundRateLimiterState",
      "inputs": [
        {
          "name": "remoteChainSelector",
          "type": "uint64",
          "internalType": "uint64"
        }
      ],
      "outputs": [
        {
          "name": "",
          "type": "tuple",
          "internalType": "struct RateLimiter.TokenBucket",
          "components": [
            {
              "name": "tokens",
              "type": "uint128",
              "internalType": "uint128"
            },
            {
              "name": "lastUpdated",
              "type": "uint32",
              "internalType": "uint32"
            },
            {
              "name": "isEnabled",
              "type": "bool",
              "internalType": "bool"
            },
            {
              "name": "capacity",
              "type": "uint128",
              "internalType": "uint128"
            },
            {
              "name": "rate",
              "type": "uint128",
              "internalType": "uint128"
            }
          ]
        }
      ],
      "stateMutability": "view"
    },
    {
      "type": "function",
      "name": "getRateLimitAdmin",
      "inputs": [],
      "outputs": [
        {
          "name": "",
          "type": "address",
          "internalType": "address"
        }
      ],
      "stateMutability": "view"
    },
    {
      "type": "function",
      "name": "getRemotePools",
      "inputs": [
        {
          "name": "remoteChainSelector",
          "type": "uint64",
          "internalType": "uint64"
        }
      ],
      "outputs": [
        {
          "name": "",
          "type": "bytes[]",
          "internalType": "bytes[]"
        }
      ],
      "stateMutability": "view"
    },
    {
      "type": "function",
      "name": "getRemoteToken",
      "inputs": [
        {
          "name": "remoteChainSelector",
          "type": "uint64",
          "internalType": "uint64"
        }
      ],
      "outputs": [
        {
          "name": "",
          "type": "bytes",
          "internalType": "bytes"
        }
      ],
      "stateMutability": "view"
    },
    {
      "type": "function",
      "name": "getRmnProxy",
      "inputs": [],
      "outputs": [
        {
          "name": "rmnProxy",
          "type": "address",
          "internalType": "address"
        }
      ],
      "stateMutability": "view"
    },
    {
      "type": "function",
      "name": "getRouter",
      "inputs": [],
      "outputs": [
        {
          "name": "router",
          "type": "address",
          "internalType": "address"
        }
      ],
      "stateMutability": "view"
    },
    {
      "type": "function",
      "name": "getSupportedChains",
      "inputs": [],
      "outputs": [
        {
          "name": "",
          "type": "uint64[]",
          "internalType": "uint64[]"
        }
      ],
      "stateMutability": "view"
    },
    {
      "type": "function",
      "name": "getToken",
      "inputs": [],
      "outputs": [
        {
          "name": "token",
          "type": "address",
          "internalType": "contract IERC20"
        }
      ],
      "stateMutability": "view"
    },
    {
      "type": "function",
      "name": "getTokenDecimals",
      "inputs": [],
      "outputs": [
        {
          "name": "decimals",
          "type": "uint8",
          "internalType": "uint8"
        }
      ],
      "stateMutability": "view"
    },
    {
      "type": "function",
      "name": "isRemotePool",
      "inputs": [
        {
          "name": "remoteChainSelector",
          "type": "uint64",
          "internalType": "uint64"
        },
        {
          "name": "remotePoolAddress",
          "type": "bytes",
          "internalType": "bytes"
        }
      ],
      "outputs": [
        {
          "name": "",
          "type": "bool",
          "internalType": "bool"
        }
      ],
      "stateMutability": "view"
    },
    {
      "type": "function",
      "name": "isSupportedChain",
      "inputs": [
        {
          "name": "remoteChainSelector",
          "type": "uint64",
          "internalType": "uint64"
        }
      ],
      "outputs": [
        {
          "name": "",
          "type": "bool",
          "internalType": "bool"
        }
      ],
      "stateMutability": "view"
    },
    {
      "type": "function",
      "name": "isSupportedToken",
      "inputs": [
        {
          "name": "token",
          "type": "address",
          "internalType": "address"
        }
      ],
      "outputs": [
        {
          "name": "",
          "type": "bool",
          "internalType": "bool"
        }
      ],
      "stateMutability": "view"
    },
    {
      "type": "function",
      "name": "lockOrBurn",
      "inputs": [
        {
          "name": "lockOrBurnIn",
          "type": "tuple",
          "internalType": "struct Pool.LockOrBurnInV1",
          "components": [
            {
              "name": "receiver",
              "type": "bytes",
              "internalType": "bytes"
            },
            {
              "name": "remoteChainSelector",
              "type": "uint64",
              "internalType": "uint64"
            },
            {
              "name": "originalSender",
              "type": "address",
              "internalType": "address"
            },
            {
              "name": "amount",
              "type": "uint256",
              "internalType": "uint256"
            },
            {
              "name": "localToken",
              "type": "address",
              "internalType": "address"
            }
          ]
        }
      ],
      "outputs": [
        {
          "name": "",
          "type": "tuple",
          "internalType": "struct Pool.LockOrBurnOutV1",
          "components": [
            {
              "name": "destTokenAddress",
              "type": "bytes",
              "internalType": "bytes"
            },
            {
              "name": "destPoolData",
              "type": "bytes",
              "internalType": "bytes"
            }
          ]
        }
      ],
      "stateMutability": "nonpayable"
    },
    {
      "type": "function",
      "name": "owner",
      "inputs": [],
      "outputs": [
        {
          "name": "",
          "type": "address",
          "internalType": "address"
        }
      ],
      "stateMutability": "view"
    },
    {
      "type": "function",
      "name": "releaseOrMint",
      "inputs": [
        {
          "name": "releaseOrMintIn",
          "type": "tuple",
          "internalType": "struct Pool.ReleaseOrMintInV1",
          "components": [
            {
              "name": "originalSender",
              "type": "bytes",
              "internalType": "bytes"
            },
            {
              "name": "remoteChainSelector",
              "type": "uint64",
              "internalType": "uint64"
            },
            {
              "name": "receiver",
              "type": "address",
              "internalType": "address"
            },
            {
              "name": "amount",
              "type": "uint256",
              "internalType": "uint256"
            },
            {
              "name": "localToken",
              "type": "address",
              "internalType": "address"
            },
            {
              "name": "sourcePoolAddress",
              "type": "bytes",
              "internalType": "bytes"
            },
            {
              "name": "sourcePoolData",
              "type": "bytes",
              "internalType": "bytes"
            },
            {
              "name": "offchainTokenData",
              "type": "bytes",
              "internalType": "bytes"
            }
          ]
        }
      ],
      "outputs": [
        {
          "name": "",
          "type": "tuple",
          "internalType": "struct Pool.ReleaseOrMintOutV1",
          "components": [
            {
              "name": "destinationAmount",
              "type": "uint256",
              "internalType": "uint256"
            }
          ]
        }
      ],
      "stateMutability": "nonpayable"
    },
    {
      "type": "function",
      "name": "removeRemotePool",
      "inputs": [
        {
          "name": "remoteChainSelector",
          "type": "uint64",
          "internalType": "uint64"
        },
        {
          "name": "remotePoolAddress",
          "type": "bytes",
          "internalType": "bytes"
        }
      ],
      "outputs": [],
      "stateMutability": "nonpayable"
    },
    {
      "type": "function",
      "name": "setChainRateLimiterConfig",
      "inputs": [
        {
          "name": "remoteChainSelector",
          "type": "uint64",
          "internalType": "uint64"
        },
        {
          "name": "outboundConfig",
          "type": "tuple",
          "internalType": "struct RateLimiter.Config",
          "components": [
            {
              "name": "isEnabled",
              "type": "bool",
              "internalType": "bool"
            },
            {
              "name": "capacity",
              "type": "uint128",
              "internalType": "uint128"
            },
            {
              "name": "rate",
              "type": "uint128",
              "internalType": "uint128"
            }
          ]
        },
        {
          "name": "inboundConfig",
          "type": "tuple",
          "internalType": "struct RateLimiter.Config",
          "components": [
            {
              "name": "isEnabled",
              "type": "bool",
              "internalType": "bool"
            },
            {
              "name": "capacity",
              "type": "uint128",
              "internalType": "uint128"
            },
            {
              "name": "rate",
              "type": "uint128",
              "internalType": "uint128"
            }
          ]
        }
      ],
      "outputs": [],
      "stateMutability": "nonpayable"
    },
    {
      "type": "function",
      "name": "setChainRateLimiterConfigs",
      "inputs": [
        {
          "name": "remoteChainSelectors",
          "type": "uint64[]",
          "internalType": "uint64[]"
        },
        {
          "name": "outboundConfigs",
          "type": "tuple[]",
          "internalType": "struct RateLimiter.Config[]",
          "components": [
            {
              "name": "isEnabled",
              "type": "bool",
              "internalType": "bool"
            },
            {
              "name": "capacity",
              "type": "uint128",
              "internalType": "uint128"
            },
            {
              "name": "rate",
              "type": "uint128",
              "internalType": "uint128"
            }
          ]
        },
        {
          "name": "inboundConfigs",
          "type": "tuple[]",
          "internalType": "struct RateLimiter.Config[]",
          "components": [
            {
              "name": "isEnabled",
              "type": "bool",
              "internalType": "bool"
            },
            {
              "name": "capacity",
              "type": "uint128",
              "internalType": "uint128"
            },
            {
              "name": "rate",
              "type": "uint128",
              "internalType": "uint128"
            }
          ]
        }
      ],
      "outputs": [],
      "stateMutability": "nonpayable"
    },
    {
      "type": "function",
      "name": "setRateLimitAdmin",
      "inputs": [
        {
          "name": "rateLimitAdmin",
          "type": "address",
          "internalType": "address"
        }
      ],
      "outputs": [],
      "stateMutability": "nonpayable"
    },
    {
      "type": "function",
      "name": "setRouter",
      "inputs": [
        {
          "name": "newRouter",
          "type": "address",
          "internalType": "address"
        }
      ],
      "outputs": [],
      "stateMutability": "nonpayable"
    },
    {
      "type": "function",
      "name": "supportsInterface",
      "inputs": [
        {
          "name": "interfaceId",
          "type": "bytes4",
          "internalType": "bytes4"
        }
      ],
      "outputs": [
        {
          "name": "",
          "type": "bool",
          "internalType": "bool"
        }
      ],
      "stateMutability": "pure"
    },
    {
      "type": "function",
      "name": "transferOwnership",
      "inputs": [
        {
          "name": "to",
          "type": "address",
          "internalType": "address"
        }
      ],
      "outputs": [],
      "stateMutability": "nonpayable"
    },
    {
      "type": "function",
      "name": "typeAndVersion",
      "inputs": [],
      "outputs": [
        {
          "name": "",
          "type": "string",
          "internalType": "string"
        }
      ],
      "stateMutability": "view"
    },
    {
      "type": "event",
      "name": "AllowListAdd",
      "inputs": [
        {
          "name": "sender",
          "type": "address",
          "indexed": false,
          "internalType": "address"
        }
      ],
      "anonymous": false
    },
    {
      "type": "event",
      "name": "AllowListRemove",
      "inputs": [
        {
          "name": "sender",
          "type": "address",
          "indexed": false,
          "internalType": "address"
        }
      ],
      "anonymous": false
    },
    {
      "type": "event",
      "name": "Burned",
      "inputs": [
        {
          "name": "sender",
          "type": "address",
          "indexed": true,
          "internalType": "address"
        },
        {
          "name": "amount",
          "type": "uint256",
          "indexed": false,
          "internalType": "uint256"
        }
      ],
      "anonymous": false
    },
    {
      "type": "event",
      "name": "ChainAdded",
      "inputs": [
        {
          "name": "remoteChainSelector",
          "type": "uint64",
          "indexed": false,
          "internalType": "uint64"
        },
        {
          "name": "remoteToken",
          "type": "bytes",
          "indexed": false,
          "internalType": "bytes"
        },
        {
          "name": "outboundRateLimiterConfig",
          "type": "tuple",
          "indexed": false,
          "internalType": "struct RateLimiter.Config",
          "components": [
            {
              "name": "isEnabled",
              "type": "bool",
              "internalType": "bool"
            },
            {
              "name": "capacity",
              "type": "uint128",
              "internalType": "uint128"
            },
            {
              "name": "rate",
              "type": "uint128",
              "internalType": "uint128"
            }
          ]
        },
        {
          "name": "inboundRateLimiterConfig",
          "type": "tuple",
          "indexed": false,
          "internalType": "struct RateLimiter.Config",
          "components": [
            {
              "name": "isEnabled",
              "type": "bool",
              "internalType": "bool"
            },
            {
              "name": "capacity",
              "type": "uint128",
              "internalType": "uint128"
            },
            {
              "name": "rate",
              "type": "uint128",
              "internalType": "uint128"
            }
          ]
        }
      ],
      "anonymous": false
    },
    {
      "type": "event",
      "name": "ChainConfigured",
      "inputs": [
        {
          "name": "remoteChainSelector",
          "type": "uint64",
          "indexed": false,
          "internalType": "uint64"
        },
        {
          "name": "outboundRateLimiterConfig",
          "type": "tuple",
          "indexed": false,
          "internalType": "struct RateLimiter.Config",
          "components": [
            {
              "name": "isEnabled",
              "type": "bool",
              "internalType": "bool"
            },
            {
              "name": "capacity",
              "type": "uint128",
              "internalType": "uint128"
            },
            {
              "name": "rate",
              "type": "uint128",
              "internalType": "uint128"
            }
          ]
        },
        {
          "name": "inboundRateLimiterConfig",
          "type": "tuple",
          "indexed": false,
          "internalType": "struct RateLimiter.Config",
          "components": [
            {
              "name": "isEnabled",
              "type": "bool",
              "internalType": "bool"
            },
            {
              "name": "capacity",
              "type": "uint128",
              "internalType": "uint128"
            },
            {
              "name": "rate",
              "type": "uint128",
              "internalType": "uint128"
            }
          ]
        }
      ],
      "anonymous": false
    },
    {
      "type": "event",
      "name": "ChainRemoved",
      "inputs": [
        {
          "name": "remoteChainSelector",
          "type": "uint64",
          "indexed": false,
          "internalType": "uint64"
        }
      ],
      "anonymous": false
    },
    {
      "type": "event",
      "name": "ConfigChanged",
      "inputs": [
        {
          "name": "config",
          "type": "tuple",
          "indexed": false,
          "internalType": "struct RateLimiter.Config",
          "components": [
            {
              "name": "isEnabled",
              "type": "bool",
              "internalType": "bool"
            },
            {
              "name": "capacity",
              "type": "uint128",
              "internalType": "uint128"
            },
            {
              "name": "rate",
              "type": "uint128",
              "internalType": "uint128"
            }
          ]
        }
      ],
      "anonymous": false
    },
    {
      "type": "event",
      "name": "Locked",
      "inputs": [
        {
          "name": "sender",
          "type": "address",
          "indexed": true,
          "internalType": "address"
        },
        {
          "name": "amount",
          "type": "uint256",
          "indexed": false,
          "internalType": "uint256"
        }
      ],
      "anonymous": false
    },
    {
      "type": "event",
      "name": "Minted",
      "inputs": [
        {
          "name": "sender",
          "type": "address",
          "indexed": true,
          "internalType": "address"
        },
        {
          "name": "recipient",
          "type": "address",
          "indexed": true,
          "internalType": "address"
        },
        {
          "name": "amount",
          "type": "uint256",
          "indexed": false,
          "internalType": "uint256"
        }
      ],
      "anonymous": false
    },
    {
      "type": "event",
      "name": "OwnershipTransferRequested",
      "inputs": [
        {
          "name": "from",
          "type": "address",
          "indexed": true,
          "internalType": "address"
        },
        {
          "name": "to",
          "type": "address",
          "indexed": true,
          "internalType": "address"
        }
      ],
      "anonymous": false
    },
    {
      "type": "event",
      "name": "OwnershipTransferred",
      "inputs": [
        {
          "name": "from",
          "type": "address",
          "indexed": true,
          "internalType": "address"
        },
        {
          "name": "to",
          "type": "address",
          "indexed": true,
          "internalType": "address"
        }
      ],
      "anonymous": false
    },
    {
      "type": "event",
      "name": "RateLimitAdminSet",
      "inputs": [
        {
          "name": "rateLimitAdmin",
          "type": "address",
          "indexed": false,
          "internalType": "address"
        }
      ],
      "anonymous": false
    },
    {
      "type": "event",
      "name": "Released",
      "inputs": [
        {
          "name": "sender",
          "type": "address",
          "indexed": true,
          "internalType": "address"
        },
        {
          "name": "recipient",
          "type": "address",
          "indexed": true,
          "internalType": "address"
        },
        {
          "name": "amount",
          "type": "uint256",
          "indexed": false,
          "internalType": "uint256"
        }
      ],
      "anonymous": false
    },
    {
      "type": "event",
      "name": "RemotePoolAdded",
      "inputs": [
        {
          "name": "remoteChainSelector",
          "type": "uint64",
          "indexed": true,
          "internalType": "uint64"
        },
        {
          "name": "remotePoolAddress",
          "type": "bytes",
          "indexed": false,
          "internalType": "bytes"
        }
      ],
      "anonymous": false
    },
    {
      "type": "event",
      "name": "RemotePoolRemoved",
      "inputs": [
        {
          "name": "remoteChainSelector",
          "type": "uint64",
          "indexed": true,
          "internalType": "uint64"
        },
        {
          "name": "remotePoolAddress",
          "type": "bytes",
          "indexed": false,
          "internalType": "bytes"
        }
      ],
      "anonymous": false
    },
    {
      "type": "event",
      "name": "RouterUpdated",
      "inputs": [
        {
          "name": "oldRouter",
          "type": "address",
          "indexed": false,
          "internalType": "address"
        },
        {
          "name": "newRouter",
          "type": "address",
          "indexed": false,
          "internalType": "address"
        }
      ],
      "anonymous": false
    },
    {
      "type": "event",
      "name": "TokensConsumed",
      "inputs": [
        {
          "name": "tokens",
          "type": "uint256",
          "indexed": false,
          "internalType": "uint256"
        }
      ],
      "anonymous": false
    },
    {
      "type": "error",
      "name": "AggregateValueMaxCapacityExceeded",
      "inputs": [
        {
          "name": "capacity",
          "type": "uint256",
          "internalType": "uint256"
        },
        {
          "name": "requested",
          "type": "uint256",
          "internalType": "uint256"
        }
      ]
    },
    {
      "type": "error",
      "name": "AggregateValueRateLimitReached",
      "inputs": [
        {
          "name": "minWaitInSeconds",
          "type": "uint256",
          "internalType": "uint256"
        },
        {
          "name": "available",
          "type": "uint256",
          "internalType": "uint256"
        }
      ]
    },
    {
      "type": "error",
      "name": "AllowListNotEnabled",
      "inputs": []
    },
    {
      "type": "error",
      "name": "BucketOverfilled",
      "inputs": []
    },
    {
      "type": "error",
      "name": "CallerIsNotARampOnRouter",
      "inputs": [
        {
          "name": "caller",
          "type": "address",
          "internalType": "address"
        }
      ]
    },
    {
      "type": "error",
      "name": "CannotTransferToSelf",
      "inputs": []
    },
    {
      "type": "error",
      "name": "ChainAlreadyExists",
      "inputs": [
        {
          "name": "chainSelector",
          "type": "uint64",
          "internalType": "uint64"
        }
      ]
    },
    {
      "type": "error",
      "name": "ChainNotAllowed",
      "inputs": [
        {
          "name": "remoteChainSelector",
          "type": "uint64",
          "internalType": "uint64"
        }
      ]
    },
    {
      "type": "error",
      "name": "CursedByRMN",
      "inputs": []
    },
    {
      "type": "error",
      "name": "DisabledNonZeroRateLimit",
      "inputs": [
        {
          "name": "config",
          "type": "tuple",
          "internalType": "struct RateLimiter.Config",
          "components": [
            {
              "name": "isEnabled",
              "type": "bool",
              "internalType": "bool"
            },
            {
              "name": "capacity",
              "type": "uint128",
              "internalType": "uint128"
            },
            {
              "name": "rate",
              "type": "uint128",
              "internalType": "uint128"
            }
          ]
        }
      ]
    },
    {
      "type": "error",
      "name": "InvalidDecimalArgs",
      "inputs": [
        {
          "name": "expected",
          "type": "uint8",
          "internalType": "uint8"
        },
        {
          "name": "actual",
          "type": "uint8",
          "internalType": "uint8"
        }
      ]
    },
    {
      "type": "error",
      "name": "InvalidRateLimitRate",
      "inputs": [
        {
          "name": "rateLimiterConfig",
          "type": "tuple",
          "internalType": "struct RateLimiter.Config",
          "components": [
            {
              "name": "isEnabled",
              "type": "bool",
              "internalType": "bool"
            },
            {
              "name": "capacity",
              "type": "uint128",
              "internalType": "uint128"
            },
            {
              "name": "rate",
              "type": "uint128",
              "internalType": "uint128"
            }
          ]
        }
      ]
    },
    {
      "type": "error",
      "name": "InvalidRemoteChainDecimals",
      "inputs": [
        {
          "name": "sourcePoolData",
          "type": "bytes",
          "internalType": "bytes"
        }
      ]
    },
    {
      "type": "error",
      "name": "InvalidRemotePoolForChain",
      "inputs": [
        {
          "name": "remoteChainSelector",
          "type": "uint64",
          "internalType": "uint64"
        },
        {
          "name": "remotePoolAddress",
          "type": "bytes",
          "internalType": "bytes"
        }
      ]
    },
    {
      "type": "error",
      "name": "InvalidSourcePoolAddress",
      "inputs": [
        {
          "name": "sourcePoolAddress",
          "type": "bytes",
          "internalType": "bytes"
        }
      ]
    },
    {
      "type": "error",
      "name": "InvalidToken",
      "inputs": [
        {
          "name": "token",
          "type": "address",
          "internalType": "address"
        }
      ]
    },
    {
      "type": "error",
      "name": "MismatchedArrayLengths",
      "inputs": []
    },
    {
      "type": "error",
      "name": "MustBeProposedOwner",
      "inputs": []
    },
    {
      "type": "error",
      "name": "NonExistentChain",
      "inputs": [
        {
          "name": "remoteChainSelector",
          "type": "uint64",
          "internalType": "uint64"
        }
      ]
    },
    {
      "type": "error",
      "name": "OnlyCallableByOwner",
      "inputs": []
    },
    {
      "type": "error",
      "name": "OverflowDetected",
      "inputs": [
        {
          "name": "remoteDecimals",
          "type": "uint8",
          "internalType": "uint8"
        },
        {
          "name": "localDecimals",
          "type": "uint8",
          "internalType": "uint8"
        },
        {
          "name": "remoteAmount",
          "type": "uint256",
          "internalType": "uint256"
        }
      ]
    },
    {
      "type": "error",
      "name": "OwnerCannotBeZero",
      "inputs": []
    },
    {
      "type": "error",
      "name": "PoolAlreadyAdded",
      "inputs": [
        {
          "name": "remoteChainSelector",
          "type": "uint64",
          "internalType": "uint64"
        },
        {
          "name": "remotePoolAddress",
          "type": "bytes",
          "internalType": "bytes"
        }
      ]
    },
    {
      "type": "error",
      "name": "RateLimitMustBeDisabled",
      "inputs": []
    },
    {
      "type": "error",
      "name": "SenderNotAllowed",
      "inputs": [
        {
          "name": "sender",
          "type": "address",
          "internalType": "address"
        }
      ]
    },
    {
      "type": "error",
      "name": "TokenMaxCapacityExceeded",
      "inputs": [
        {
          "name": "capacity",
          "type": "uint256",
          "internalType": "uint256"
        },
        {
          "name": "requested",
          "type": "uint256",
          "internalType": "uint256"
        },
        {
          "name": "tokenAddress",
          "type": "address",
          "internalType": "address"
        }
      ]
    },
    {
      "type": "error",
      "name": "TokenRateLimitReached",
      "inputs": [
        {
          "name": "minWaitInSeconds",
          "type": "uint256",
          "internalType": "uint256"
        },
        {
          "name": "available",
          "type": "uint256",
          "internalType": "uint256"
        },
        {
          "name": "tokenAddress",
          "type": "address",
          "internalType": "address"
        }
      ]
    },
    {
      "type": "error",
      "name": "Unauthorized",
      "inputs": [
        {
          "name": "caller",
          "type": "address",
          "internalType": "address"
        }
      ]
    },
    {
      "type": "error",
      "name": "ZeroAddressNotAllowed",
      "inputs": []
    }
  ],
  "bytecode": {
    "object": "0x6101006040523480156200001257600080fd5b5060405162006b5638038062006b56833981810160405281019062000038919062000b72565b84848484843360008073ffffffffffffffffffffffffffffffffffffffff168273ffffffffffffffffffffffffffffffffffffffff1603620000a6576040517f9b15e16f00000000000000000000000000000000000000000000000000000000815260040160405180910390fd5b81600160006101000a81548173ffffffffffffffffffffffffffffffffffffffff021916908373ffffffffffffffffffffffffffffffffffffffff160217905550600073ffffffffffffffffffffffffffffffffffffffff168173ffffffffffffffffffffffffffffffffffffffff16146200012e576200012d816200040a60201b60201c565b5b5050600073ffffffffffffffffffffffffffffffffffffffff168573ffffffffffffffffffffffffffffffffffffffff161480620001985750600073ffffffffffffffffffffffffffffffffffffffff168173ffffffffffffffffffffffffffffffffffffffff16145b80620001d05750600073ffffffffffffffffffffffffffffffffffffffff168273ffffffffffffffffffffffffffffffffffffffff16145b1562000208576040517f8579befe00000000000000000000000000000000000000000000000000000000815260040160405180910390fd5b8473ffffffffffffffffffffffffffffffffffffffff1660808173ffffffffffffffffffffffffffffffffffffffff16815250508173ffffffffffffffffffffffffffffffffffffffff1660c08173ffffffffffffffffffffffffffffffffffffffff16815250508473ffffffffffffffffffffffffffffffffffffffff1663313ce5676040518163ffffffff1660e01b8152600401602060405180830381865afa925050508015620002db57506040513d601f19601f82011682018060405250810190620002d8919062000c19565b60015b1562000332578060ff168560ff1614620003305784816040517f655a7c0e0000000000000000000000000000000000000000000000000000000081526004016200032792919062000c5c565b60405180910390fd5b505b8360ff1660a08160ff168152505080600460006101000a81548173ffffffffffffffffffffffffffffffffffffffff021916908373ffffffffffffffffffffffffffffffffffffffff1602179055506000835111151560e08115158152505060e05115620003fa57620003f9600067ffffffffffffffff811115620003bc57620003bb620009e2565b5b604051908082528060200260200182016040528015620003eb5781602001602082028036833780820191505090505b50846200052f60201b60201c565b5b5050505050505050505062000d89565b3373ffffffffffffffffffffffffffffffffffffffff168173ffffffffffffffffffffffffffffffffffffffff160362000470576040517fdad89dca00000000000000000000000000000000000000000000000000000000815260040160405180910390fd5b806000806101000a81548173ffffffffffffffffffffffffffffffffffffffff021916908373ffffffffffffffffffffffffffffffffffffffff1602179055508073ffffffffffffffffffffffffffffffffffffffff16600160009054906101000a900473ffffffffffffffffffffffffffffffffffffffff1673ffffffffffffffffffffffffffffffffffffffff167fed8889f560326eb138920d842192f0eb3dd22b4f139c87a2c57538e05bae127860405160405180910390a350565b60e05162000569576040517f35f4a7b300000000000000000000000000000000000000000000000000000000815260040160405180910390fd5b60005b8251811015620005fb5760008382815181106200058e576200058d62000c89565b5b60200260200101519050620005ae816002620006d060201b90919060201c565b15620005ee577f800671136ab6cfee9fbe5ed1fb7ca417811aca3cf864800d127b927adedf756681604051620005e5919062000cc9565b60405180910390a15b508060010190506200056c565b5060005b8151811015620006cb57600082828151811062000621576200062062000c89565b5b60200260200101519050600073ffffffffffffffffffffffffffffffffffffffff168173ffffffffffffffffffffffffffffffffffffffff1603620006675750620006bf565b6200067d8160026200070860201b90919060201c565b15620006bd577f2640d4d76caf8bf478aabfa982fa4e1c4eb71a37f93cd15e80dbc657911546d881604051620006b4919062000cc9565b60405180910390a15b505b806001019050620005ff565b505050565b600062000700836000018373ffffffffffffffffffffffffffffffffffffffff1660001b6200074060201b60201c565b905092915050565b600062000738836000018373ffffffffffffffffffffffffffffffffffffffff1660001b6200086460201b60201c565b905092915050565b600080836001016000848152602001908152602001600020549050600081146200085857600060018262000775919062000d1f565b90506000600186600001805490506200078f919062000d1f565b905080821462000805576000866000018281548110620007b457620007b362000c89565b5b9060005260206000200154905080876000018481548110620007db57620007da62000c89565b5b90600052602060002001819055508387600101600083815260200190815260200160002081905550505b856000018054806200081c576200081b62000d5a565b5b6001900381819060005260206000200160009055905585600101600086815260200190815260200160002060009055600193505050506200085e565b60009150505b92915050565b6000620008788383620008de60201b60201c565b620008d3578260000182908060018154018082558091505060019003906000526020600020016000909190919091505582600001805490508360010160008481526020019081526020016000208190555060019050620008d8565b600090505b92915050565b600080836001016000848152602001908152602001600020541415905092915050565b6000604051905090565b600080fd5b600080fd5b600073ffffffffffffffffffffffffffffffffffffffff82169050919050565b6000620009428262000915565b9050919050565b6000620009568262000935565b9050919050565b620009688162000949565b81146200097457600080fd5b50565b60008151905062000988816200095d565b92915050565b600060ff82169050919050565b620009a6816200098e565b8114620009b257600080fd5b50565b600081519050620009c6816200099b565b92915050565b600080fd5b6000601f19601f8301169050919050565b7f4e487b7100000000000000000000000000000000000000000000000000000000600052604160045260246000fd5b62000a1c82620009d1565b810181811067ffffffffffffffff8211171562000a3e5762000a3d620009e2565b5b80604052505050565b600062000a5362000901565b905062000a61828262000a11565b919050565b600067ffffffffffffffff82111562000a845762000a83620009e2565b5b602082029050602081019050919050565b600080fd5b62000aa58162000935565b811462000ab157600080fd5b50565b60008151905062000ac58162000a9a565b92915050565b600062000ae262000adc8462000a66565b62000a47565b9050808382526020820190506020840283018581111562000b085762000b0762000a95565b5b835b8181101562000b35578062000b20888262000ab4565b84526020840193505060208101905062000b0a565b5050509392505050565b600082601f83011262000b575762000b56620009cc565b5b815162000b6984826020860162000acb565b91505092915050565b600080600080600060a0868803121562000b915762000b906200090b565b5b600062000ba18882890162000977565b955050602062000bb488828901620009b5565b945050604086015167ffffffffffffffff81111562000bd85762000bd762000910565b5b62000be68882890162000b3f565b935050606062000bf98882890162000ab4565b925050608062000c0c8882890162000ab4565b9150509295509295909350565b60006020828403121562000c325762000c316200090b565b5b600062000c4284828501620009b5565b91505092915050565b62000c56816200098e565b82525050565b600060408201905062000c73600083018562000c4b565b62000c82602083018462000c4b565b9392505050565b7f4e487b7100000000000000000000000000000000000000000000000000000000600052603260045260246000fd5b62000cc38162000935565b82525050565b600060208201905062000ce0600083018462000cb8565b92915050565b6000819050919050565b7f4e487b7100000000000000000000000000000000000000000000000000000000600052601160045260246000fd5b600062000d2c8262000ce6565b915062000d398362000ce6565b925082820390508181111562000d545762000d5362000cf0565b5b92915050565b7f4e487b7100000000000000000000000000000000000000000000000000000000600052603160045260246000fd5b60805160a05160c05160e051615d1c62000e3a600039600081816119aa015281816127cb01526137090152600081816119820152818161227d0152612c410152600081816107cf015281816124310152818161250b0152818161254001528181612570015281816125ab0152818161262e015281816126a90152612e1a01526000818161074f015281816107770152818161087201528181612d8a0152818161337901526138e40152615d1c6000f3fe608060405234801561001057600080fd5b50600436106101da5760003560e01c80639a4575b911610104578063c0d78655116100a2578063dc0bd97111610071578063dc0bd9711461057d578063e0351e131461059b578063e8a1da17146105b9578063f2fde38b146105d5576101da565b8063c0d78655146104f7578063c4bffe2b14610513578063c75eea9c14610531578063cf7401f314610561576101da565b8063acfecf91116100de578063acfecf911461045d578063af58d59f14610479578063b0f479a1146104a9578063b7946580146104c7576101da565b80639a4575b9146103df578063a42a7b8b1461040f578063a7cd63b71461043f576101da565b806354c8a4f31161017c5780637d54534e1161014b5780637d54534e146103595780638926f54f146103755780638da5cb5b146103a5578063962d4020146103c3576101da565b806354c8a4f3146102f957806362ddd3c4146103155780636d3d1a581461033157806379ba50971461034f576101da565b8063240028e8116101b8578063240028e81461024b57806324f65ee71461027b57806339077537146102995780634c5ef0ed146102c9576101da565b806301ffc9a7146101df578063181f5a771461020f57806321df0da71461022d575b600080fd5b6101f960048036038101906101f49190614100565b6105f1565b6040516102069190614148565b60405180910390f35b610217610712565b60405161022491906141f3565b60405180910390f35b61023561074b565b6040516102429190614294565b60405180910390f35b610265600480360381019061026091906142ed565b610773565b6040516102729190614148565b60405180910390f35b6102836107cb565b6040516102909190614336565b60405180910390f35b6102b360048036038101906102ae9190614376565b6107f3565b6040516102c091906143f4565b60405180910390f35b6102e360048036038101906102de91906144b4565b61099d565b6040516102f09190614148565b60405180910390f35b610313600480360381019061030e919061456a565b6109fb565b005b61032f600480360381019061032a91906144b4565b610a95565b005b610339610b3a565b60405161034691906145fa565b60405180910390f35b610357610b64565b005b610373600480360381019061036e91906142ed565b610cef565b005b61038f600480360381019061038a9190614615565b610d72565b60405161039c9190614148565b60405180910390f35b6103ad610d99565b6040516103ba91906145fa565b60405180910390f35b6103dd60048036038101906103d891906146ee565b610dc3565b005b6103f960048036038101906103f491906147c1565b610f8c565b60405161040691906148a3565b60405180910390f35b61042960048036038101906104249190614615565b611039565b6040516104369190614987565b60405180910390f35b6104476111ba565b6040516104549190614a67565b60405180910390f35b610477600480360381019061047291906144b4565b6111cb565b005b610493600480360381019061048e9190614615565b6112fe565b6040516104a09190614b4a565b60405180910390f35b6104b1611469565b6040516104be91906145fa565b60405180910390f35b6104e160048036038101906104dc9190614615565b611493565b6040516104ee9190614baf565b60405180910390f35b610511600480360381019061050c91906142ed565b61154f565b005b61051b611662565b6040516105289190614c8f565b60405180910390f35b61054b60048036038101906105469190614615565b611730565b6040516105589190614b4a565b60405180910390f35b61057b60048036038101906105769190614df2565b61189b565b005b61058561197e565b60405161059291906145fa565b60405180910390f35b6105a36119a6565b6040516105b09190614148565b60405180910390f35b6105d360048036038101906105ce9190614e9b565b6119ce565b005b6105ef60048036038101906105ea91906142ed565b6121f9565b005b600063aff2afbf60e01b7bffffffffffffffffffffffffffffffffffffffffffffffffffffffff1916827bffffffffffffffffffffffffffffffffffffffffffffffffffffffff191614806106a357507f0e64dd29000000000000000000000000000000000000000000000000000000007bffffffffffffffffffffffffffffffffffffffffffffffffffffffff1916827bffffffffffffffffffffffffffffffffffffffffffffffffffffffff1916145b8061070b57507f01ffc9a7000000000000000000000000000000000000000000000000000000007bffffffffffffffffffffffffffffffffffffffffffffffffffffffff1916827bffffffffffffffffffffffffffffffffffffffffffffffffffffffff1916145b9050919050565b6040518060400160405280601781526020017f4275726e4d696e74546f6b656e506f6f6c20312e352e3100000000000000000081525081565b60007f0000000000000000000000000000000000000000000000000000000000000000905090565b60007f000000000000000000000000000000000000000000000000000000000000000073ffffffffffffffffffffffffffffffffffffffff168273ffffffffffffffffffffffffffffffffffffffff16149050919050565b60007f0000000000000000000000000000000000000000000000000000000000000000905090565b6107fb613f5f565b6108048261220d565b600061086e8360600135610869858060c001906108219190614f2b565b8080601f016020809104026020016040519081016040528093929190818152602001838380828437600081840152601f19601f82011690508083019250505050505050612425565b612507565b90507f000000000000000000000000000000000000000000000000000000000000000073ffffffffffffffffffffffffffffffffffffffff166340c10f198460400160208101906108bf91906142ed565b836040518363ffffffff1660e01b81526004016108dd929190614f9d565b600060405180830381600087803b1580156108f757600080fd5b505af115801561090b573d6000803e3d6000fd5b5050505082604001602081019061092291906142ed565b73ffffffffffffffffffffffffffffffffffffffff163373ffffffffffffffffffffffffffffffffffffffff167f9d228d69b5fdb8d273a2336f8fb8612d039631024ea9bf09c424a9503aa078f08360405161097e9190614fc6565b60405180910390a3604051806020016040528082815250915050919050565b60006109f283836040516109b2929190615020565b6040518091039020600760008767ffffffffffffffff1667ffffffffffffffff16815260200190815260200160002060050161272990919063ffffffff16565b90509392505050565b610a03612740565b610a8f848480806020026020016040519081016040528093929190818152602001838360200280828437600081840152601f19601f82011690508083019250505050505050838380806020026020016040519081016040528093929190818152602001838360200280828437600081840152601f19601f820116905080830192505050505050506127c9565b50505050565b610a9d612740565b610aa683610d72565b610ae757826040517f1e670e4b000000000000000000000000000000000000000000000000000000008152600401610ade9190615048565b60405180910390fd5b610b358383838080601f016020809104026020016040519081016040528093929190818152602001838380828437600081840152601f19601f82011690508083019250505050505050612971565b505050565b6000600960009054906101000a900473ffffffffffffffffffffffffffffffffffffffff16905090565b60008054906101000a900473ffffffffffffffffffffffffffffffffffffffff1673ffffffffffffffffffffffffffffffffffffffff163373ffffffffffffffffffffffffffffffffffffffff1614610be9576040517f02b543c600000000000000000000000000000000000000000000000000000000815260040160405180910390fd5b6000600160009054906101000a900473ffffffffffffffffffffffffffffffffffffffff16905033600160006101000a81548173ffffffffffffffffffffffffffffffffffffffff021916908373ffffffffffffffffffffffffffffffffffffffff16021790555060008060006101000a81548173ffffffffffffffffffffffffffffffffffffffff021916908373ffffffffffffffffffffffffffffffffffffffff1602179055503373ffffffffffffffffffffffffffffffffffffffff168173ffffffffffffffffffffffffffffffffffffffff167f8be0079c531659141344cd1fd0a4f28419497f9722a3daafe3b4186f6b6457e060405160405180910390a350565b610cf7612740565b80600960006101000a81548173ffffffffffffffffffffffffffffffffffffffff021916908373ffffffffffffffffffffffffffffffffffffffff1602179055507f44676b5284b809a22248eba0da87391d79098be38bb03154be88a58bf4d0917481604051610d6791906145fa565b60405180910390a150565b6000610d928267ffffffffffffffff166005612a9f90919063ffffffff16565b9050919050565b6000600160009054906101000a900473ffffffffffffffffffffffffffffffffffffffff16905090565b600960009054906101000a900473ffffffffffffffffffffffffffffffffffffffff1673ffffffffffffffffffffffffffffffffffffffff163373ffffffffffffffffffffffffffffffffffffffff1614158015610e545750610e24610d99565b73ffffffffffffffffffffffffffffffffffffffff163373ffffffffffffffffffffffffffffffffffffffff1614155b15610e9657336040517f8e4a23d6000000000000000000000000000000000000000000000000000000008152600401610e8d91906145fa565b60405180910390fd5b8383905086869050141580610eb15750818190508686905014155b15610ee8576040517f568efce200000000000000000000000000000000000000000000000000000000815260040160405180910390fd5b60005b86869050811015610f8357610f78878783818110610f0c57610f0b615063565b5b9050602002016020810190610f219190614615565b868684818110610f3457610f33615063565b5b905060600201803603810190610f4a9190615092565b858585818110610f5d57610f5c615063565b5b905060600201803603810190610f739190615092565b612ab9565b806001019050610eeb565b50505050505050565b610f94613f72565b610f9d82612bd1565b610faa8260600135612d88565b3373ffffffffffffffffffffffffffffffffffffffff167f696de425f79f4a40bc6d2122ca50507f0efbeabbff86a84871b7196ab8ea8df78360600135604051610ff49190614fc6565b60405180910390a2604051806040016040528061102284602001602081019061101d9190614615565b611493565b815260200161102f612e16565b8152509050919050565b6060600061106f600760008567ffffffffffffffff1667ffffffffffffffff168152602001908152602001600020600501612e5d565b90506000815167ffffffffffffffff81111561108e5761108d614cb6565b5b6040519080825280602002602001820160405280156110c157816020015b60608152602001906001900390816110ac5790505b50905060005b82518110156111af57600860008483815181106110e7576110e6615063565b5b602002602001015181526020019081526020016000208054611108906150ee565b80601f0160208091040260200160405190810160405280929190818152602001828054611134906150ee565b80156111815780601f1061115657610100808354040283529160200191611181565b820191906000526020600020905b81548152906001019060200180831161116457829003601f168201915b505050505082828151811061119957611198615063565b5b60200260200101819052508060010190506110c7565b508092505050919050565b60606111c66002612e7e565b905090565b6111d3612740565b6111dc83610d72565b61121d57826040517f1e670e4b0000000000000000000000000000000000000000000000000000000081526004016112149190615048565b60405180910390fd5b6112708282604051611230929190615020565b6040518091039020600760008667ffffffffffffffff1667ffffffffffffffff168152602001908152602001600020600501612e9f90919063ffffffff16565b6112b5578282826040517f74f23c7c0000000000000000000000000000000000000000000000000000000081526004016112ac9392919061514c565b60405180910390fd5b8267ffffffffffffffff167f52d00ee4d9bd51b40168f2afc5848837288ce258784ad914278791464b3f4d7683836040516112f192919061517e565b60405180910390a2505050565b611306613f8c565b611462600760008467ffffffffffffffff1667ffffffffffffffff1681526020019081526020016000206002016040518060a00160405290816000820160009054906101000a90046fffffffffffffffffffffffffffffffff166fffffffffffffffffffffffffffffffff166fffffffffffffffffffffffffffffffff1681526020016000820160109054906101000a900463ffffffff1663ffffffff1663ffffffff1681526020016000820160149054906101000a900460ff161515151581526020016001820160009054906101000a90046fffffffffffffffffffffffffffffffff166fffffffffffffffffffffffffffffffff166fffffffffffffffffffffffffffffffff1681526020016001820160109054906101000a90046fffffffffffffffffffffffffffffffff166fffffffffffffffffffffffffffffffff166fffffffffffffffffffffffffffffffff1681525050612eb6565b9050919050565b6000600460009054906101000a900473ffffffffffffffffffffffffffffffffffffffff16905090565b6060600760008367ffffffffffffffff1667ffffffffffffffff16815260200190815260200160002060040180546114ca906150ee565b80601f01602080910402602001604051908101604052809291908181526020018280546114f6906150ee565b80156115435780601f1061151857610100808354040283529160200191611543565b820191906000526020600020905b81548152906001019060200180831161152657829003601f168201915b50505050509050919050565b611557612740565b600073ffffffffffffffffffffffffffffffffffffffff168173ffffffffffffffffffffffffffffffffffffffff16036115bd576040517f8579befe00000000000000000000000000000000000000000000000000000000815260040160405180910390fd5b6000600460009054906101000a900473ffffffffffffffffffffffffffffffffffffffff16905081600460006101000a81548173ffffffffffffffffffffffffffffffffffffffff021916908373ffffffffffffffffffffffffffffffffffffffff1602179055507f02dc5c233404867c793b749c6d644beb2277536d18a7e7974d3f238e4c6f168481836040516116569291906151a2565b60405180910390a15050565b606060006116706005612f70565b90506000815167ffffffffffffffff81111561168f5761168e614cb6565b5b6040519080825280602002602001820160405280156116bd5781602001602082028036833780820191505090505b50905060005b8251811015611727578281815181106116df576116de615063565b5b60200260200101518282815181106116fa576116f9615063565b5b602002602001019067ffffffffffffffff16908167ffffffffffffffff16815250508060010190506116c3565b50809250505090565b611738613f8c565b611894600760008467ffffffffffffffff1667ffffffffffffffff1681526020019081526020016000206000016040518060a00160405290816000820160009054906101000a90046fffffffffffffffffffffffffffffffff166fffffffffffffffffffffffffffffffff166fffffffffffffffffffffffffffffffff1681526020016000820160109054906101000a900463ffffffff1663ffffffff1663ffffffff1681526020016000820160149054906101000a900460ff161515151581526020016001820160009054906101000a90046fffffffffffffffffffffffffffffffff166fffffffffffffffffffffffffffffffff166fffffffffffffffffffffffffffffffff1681526020016001820160109054906101000a90046fffffffffffffffffffffffffffffffff166fffffffffffffffffffffffffffffffff166fffffffffffffffffffffffffffffffff1681525050612eb6565b9050919050565b600960009054906101000a900473ffffffffffffffffffffffffffffffffffffffff1673ffffffffffffffffffffffffffffffffffffffff163373ffffffffffffffffffffffffffffffffffffffff161415801561192c57506118fc610d99565b73ffffffffffffffffffffffffffffffffffffffff163373ffffffffffffffffffffffffffffffffffffffff1614155b1561196e57336040517f8e4a23d600000000000000000000000000000000000000000000000000000000815260040161196591906145fa565b60405180910390fd5b611979838383612ab9565b505050565b60007f0000000000000000000000000000000000000000000000000000000000000000905090565b60007f0000000000000000000000000000000000000000000000000000000000000000905090565b6119d6612740565b60005b84849050811015611ce65760008585838181106119f9576119f8615063565b5b9050602002016020810190611a0e9190614615565b9050611a2e8167ffffffffffffffff166005612f9190919063ffffffff16565b611a6f57806040517f1e670e4b000000000000000000000000000000000000000000000000000000008152600401611a669190615048565b60405180910390fd5b6000611aa3600760008467ffffffffffffffff1667ffffffffffffffff168152602001908152602001600020600501612e5d565b905060005b8151811015611b1357611b07828281518110611ac757611ac6615063565b5b6020026020010151600760008667ffffffffffffffff1667ffffffffffffffff168152602001908152602001600020600501612e9f90919063ffffffff16565b50806001019050611aa8565b50600760008367ffffffffffffffff1667ffffffffffffffff1681526020019081526020016000206000808201600080820160006101000a8154906fffffffffffffffffffffffffffffffff02191690556000820160106101000a81549063ffffffff02191690556000820160146101000a81549060ff02191690556001820160006101000a8154906fffffffffffffffffffffffffffffffff02191690556001820160106101000a8154906fffffffffffffffffffffffffffffffff0219169055505060028201600080820160006101000a8154906fffffffffffffffffffffffffffffffff02191690556000820160106101000a81549063ffffffff02191690556000820160146101000a81549060ff02191690556001820160006101000a8154906fffffffffffffffffffffffffffffffff02191690556001820160106101000a8154906fffffffffffffffffffffffffffffffff02191690555050600482016000611c829190613ff9565b60058201600080820160008082016000611c9c9190614039565b5050505050507f5204aec90a3c794d8e90fded8b46ae9c7c552803e7e832e0c1d358396d85991682604051611cd19190615048565b60405180910390a150508060010190506119d9565b5060005b828290508110156121f2576000838383818110611d0a57611d09615063565b5b9050602002810190611d1c91906151cb565b611d2590615440565b9050611d3681606001516000612fab565b611d4581608001516000612fab565b600081604001515103611d84576040517f8579befe00000000000000000000000000000000000000000000000000000000815260040160405180910390fd5b611da6816000015167ffffffffffffffff16600561310990919063ffffffff16565b611deb5780600001516040517f1d5ad3c5000000000000000000000000000000000000000000000000000000008152600401611de29190615048565b60405180910390fd5b600060076000836000015167ffffffffffffffff1667ffffffffffffffff16815260200190815260200160002090506040518060a001604052808360600151602001516fffffffffffffffffffffffffffffffff1681526020014263ffffffff168152602001836060015160000151151581526020018360600151602001516fffffffffffffffffffffffffffffffff1681526020018360600151604001516fffffffffffffffffffffffffffffffff168152508160000160008201518160000160006101000a8154816fffffffffffffffffffffffffffffffff02191690836fffffffffffffffffffffffffffffffff16021790555060208201518160000160106101000a81548163ffffffff021916908363ffffffff16021790555060408201518160000160146101000a81548160ff02191690831515021790555060608201518160010160006101000a8154816fffffffffffffffffffffffffffffffff02191690836fffffffffffffffffffffffffffffffff16021790555060808201518160010160106101000a8154816fffffffffffffffffffffffffffffffff02191690836fffffffffffffffffffffffffffffffff1602179055509050506040518060a001604052808360800151602001516fffffffffffffffffffffffffffffffff1681526020014263ffffffff168152602001836080015160000151151581526020018360800151602001516fffffffffffffffffffffffffffffffff1681526020018360800151604001516fffffffffffffffffffffffffffffffff168152508160020160008201518160000160006101000a8154816fffffffffffffffffffffffffffffffff02191690836fffffffffffffffffffffffffffffffff16021790555060208201518160000160106101000a81548163ffffffff021916908363ffffffff16021790555060408201518160000160146101000a81548160ff02191690831515021790555060608201518160010160006101000a8154816fffffffffffffffffffffffffffffffff02191690836fffffffffffffffffffffffffffffffff16021790555060808201518160010160106101000a8154816fffffffffffffffffffffffffffffffff02191690836fffffffffffffffffffffffffffffffff160217905550905050816040015181600401908161214f91906155f5565b5060005b8260200151518110156121975761218c83600001518460200151838151811061217f5761217e615063565b5b6020026020010151612971565b806001019050612153565b507f8d340f17e19058004c20453540862a9c62778504476f6756755cb33bcd6c38c282600001518360400151846060015185608001516040516121dd9493929190615709565b60405180910390a15050806001019050611cea565b5050505050565b612201612740565b61220a81613123565b50565b61222881608001602081019061222391906142ed565b610773565b61227b5780608001602081019061223f91906142ed565b6040517f961c9a4f00000000000000000000000000000000000000000000000000000000815260040161227291906145fa565b60405180910390fd5b7f000000000000000000000000000000000000000000000000000000000000000073ffffffffffffffffffffffffffffffffffffffff16632cbc26bb8260200160208101906122ca9190614615565b67ffffffffffffffff1660801b6040518263ffffffff1660e01b81526004016122f39190615791565b602060405180830381865afa158015612310573d6000803e3d6000fd5b505050506040513d601f19601f8201168201806040525081019061233491906157c1565b1561236b576040517f53ad11d800000000000000000000000000000000000000000000000000000000815260040160405180910390fd5b6123868160200160208101906123819190614615565b613247565b6123b181602001602081019061239c9190614615565b828060a001906123ac9190614f2b565b61099d565b61240257808060a001906123c59190614f2b565b6040517f24eb47e50000000000000000000000000000000000000000000000000000000081526004016123f992919061517e565b60405180910390fd5b6124228160200160208101906124189190614615565b8260600135613373565b50565b600080825103612457577f00000000000000000000000000000000000000000000000000000000000000009050612502565b602082511461249d57816040517f953576f70000000000000000000000000000000000000000000000000000000081526004016124949190614baf565b60405180910390fd5b6000828060200190518101906124b3919061581a565b905060ff80168111156124fd57826040517f953576f70000000000000000000000000000000000000000000000000000000081526004016124f49190614baf565b60405180910390fd5b809150505b919050565b60007f000000000000000000000000000000000000000000000000000000000000000060ff168260ff160361253e57829050612723565b7f000000000000000000000000000000000000000000000000000000000000000060ff168260ff1611156126295760007f00000000000000000000000000000000000000000000000000000000000000008361259a9190615876565b9050604d8160ff16111561260957827f0000000000000000000000000000000000000000000000000000000000000000856040517fa9cb113d000000000000000000000000000000000000000000000000000000008152600401612600939291906158ab565b60405180910390fd5b80600a6126169190615a15565b846126219190615a8f565b915050612723565b6000827f00000000000000000000000000000000000000000000000000000000000000006126579190615876565b9050604d8160ff1611806126a1575080600a6126739190615a15565b7fffffffffffffffffffffffffffffffffffffffffffffffffffffffffffffffff61269e9190615a8f565b84115b1561270757827f0000000000000000000000000000000000000000000000000000000000000000856040517fa9cb113d0000000000000000000000000000000000000000000000000000000081526004016126fe939291906158ab565b60405180910390fd5b80600a6127149190615a15565b8461271f9190615ac0565b9150505b92915050565b600061273883600001836133d5565b905092915050565b600160009054906101000a900473ffffffffffffffffffffffffffffffffffffffff1673ffffffffffffffffffffffffffffffffffffffff163373ffffffffffffffffffffffffffffffffffffffff16146127c7576040517f2b5c74de00000000000000000000000000000000000000000000000000000000815260040160405180910390fd5b565b7f0000000000000000000000000000000000000000000000000000000000000000612820576040517f35f4a7b300000000000000000000000000000000000000000000000000000000815260040160405180910390fd5b60005b82518110156128a857600083828151811061284157612840615063565b5b6020026020010151905061285f8160026133f890919063ffffffff16565b1561289c577f800671136ab6cfee9fbe5ed1fb7ca417811aca3cf864800d127b927adedf75668160405161289391906145fa565b60405180910390a15b50806001019050612823565b5060005b815181101561296c5760008282815181106128ca576128c9615063565b5b60200260200101519050600073ffffffffffffffffffffffffffffffffffffffff168173ffffffffffffffffffffffffffffffffffffffff160361290e5750612961565b61292281600261342890919063ffffffff16565b1561295f577f2640d4d76caf8bf478aabfa982fa4e1c4eb71a37f93cd15e80dbc657911546d88160405161295691906145fa565b60405180910390a15b505b8060010190506128ac565b505050565b60008151036129ac576040517f8579befe00000000000000000000000000000000000000000000000000000000815260040160405180910390fd5b6000818051906020012090506129f481600760008667ffffffffffffffff1667ffffffffffffffff16815260200190815260200160002060050161345890919063ffffffff16565b612a375782826040517f393b8ad2000000000000000000000000000000000000000000000000000000008152600401612a2e929190615b02565b60405180910390fd5b81600860008381526020019081526020016000209081612a5791906155f5565b508267ffffffffffffffff167f7d628c9a1796743d365ab521a8b2a4686e419b3269919dc9145ea2ce853b54ea83604051612a929190614baf565b60405180910390a2505050565b6000612ab1836000018360001b6133d5565b905092915050565b612ac283610d72565b612b0357826040517f1e670e4b000000000000000000000000000000000000000000000000000000008152600401612afa9190615048565b60405180910390fd5b612b0e826000612fab565b612b4a82600760008667ffffffffffffffff1667ffffffffffffffff16815260200190815260200160002060000161346f90919063ffffffff16565b612b55816000612fab565b612b9181600760008667ffffffffffffffff1667ffffffffffffffff16815260200190815260200160002060020161346f90919063ffffffff16565b7f0350d63aa5f270e01729d00d627eeb8f3429772b1818c016c66a588a864f912b838383604051612bc493929190615b32565b60405180910390a1505050565b612bec816080016020810190612be791906142ed565b610773565b612c3f57806080016020810190612c0391906142ed565b6040517f961c9a4f000000000000000000000000000000000000000000000000000000008152600401612c3691906145fa565b60405180910390fd5b7f000000000000000000000000000000000000000000000000000000000000000073ffffffffffffffffffffffffffffffffffffffff16632cbc26bb826020016020810190612c8e9190614615565b67ffffffffffffffff1660801b6040518263ffffffff1660e01b8152600401612cb79190615791565b602060405180830381865afa158015612cd4573d6000803e3d6000fd5b505050506040513d601f19601f82011682018060405250810190612cf891906157c1565b15612d2f576040517f53ad11d800000000000000000000000000000000000000000000000000000000815260040160405180910390fd5b612d4a816040016020810190612d4591906142ed565b613707565b612d65816020016020810190612d609190614615565b613786565b612d85816020016020810190612d7b9190614615565b82606001356138de565b50565b7f000000000000000000000000000000000000000000000000000000000000000073ffffffffffffffffffffffffffffffffffffffff166342966c68826040518263ffffffff1660e01b8152600401612de19190614fc6565b600060405180830381600087803b158015612dfb57600080fd5b505af1158015612e0f573d6000803e3d6000fd5b5050505050565b60607f0000000000000000000000000000000000000000000000000000000000000000604051602001612e499190614336565b604051602081830303815290604052905090565b60606000612e6d83600001613940565b905060608190508092505050919050565b60606000612e8e83600001613940565b905060608190508092505050919050565b6000612eae836000018361399c565b905092915050565b612ebe613f8c565b612f2182606001516fffffffffffffffffffffffffffffffff1683600001516fffffffffffffffffffffffffffffffff16846020015163ffffffff1642612f059190615b69565b85608001516fffffffffffffffffffffffffffffffff16613ab0565b82600001906fffffffffffffffffffffffffffffffff1690816fffffffffffffffffffffffffffffffff168152505042826020019063ffffffff16908163ffffffff1681525050819050919050565b60606000612f8083600001613940565b905060608190508092505050919050565b6000612fa3836000018360001b61399c565b905092915050565b8160000151156130855781602001516fffffffffffffffffffffffffffffffff1682604001516fffffffffffffffffffffffffffffffff161015806130065750600082604001516fffffffffffffffffffffffffffffffff16145b1561304857816040517f8020d12400000000000000000000000000000000000000000000000000000000815260040161303f9190615b9d565b60405180910390fd5b8015613080576040517f433fc33d00000000000000000000000000000000000000000000000000000000815260040160405180910390fd5b613105565b600082604001516fffffffffffffffffffffffffffffffff161415806130c25750600082602001516fffffffffffffffffffffffffffffffff1614155b1561310457816040517fd68af9cc0000000000000000000000000000000000000000000000000000000081526004016130fb9190615b9d565b60405180910390fd5b5b5050565b600061311b836000018360001b613adc565b905092915050565b3373ffffffffffffffffffffffffffffffffffffffff168173ffffffffffffffffffffffffffffffffffffffff1603613188576040517fdad89dca00000000000000000000000000000000000000000000000000000000815260040160405180910390fd5b806000806101000a81548173ffffffffffffffffffffffffffffffffffffffff021916908373ffffffffffffffffffffffffffffffffffffffff1602179055508073ffffffffffffffffffffffffffffffffffffffff16600160009054906101000a900473ffffffffffffffffffffffffffffffffffffffff1673ffffffffffffffffffffffffffffffffffffffff167fed8889f560326eb138920d842192f0eb3dd22b4f139c87a2c57538e05bae127860405160405180910390a350565b61325081610d72565b61329157806040517fa9902c7e0000000000000000000000000000000000000000000000000000000081526004016132889190615048565b60405180910390fd5b600460009054906101000a900473ffffffffffffffffffffffffffffffffffffffff1673ffffffffffffffffffffffffffffffffffffffff166383826b2b82336040518363ffffffff1660e01b81526004016132ee929190615bb8565b602060405180830381865afa15801561330b573d6000803e3d6000fd5b505050506040513d601f19601f8201168201806040525081019061332f91906157c1565b61337057336040517f728fe07b00000000000000000000000000000000000000000000000000000000815260040161336791906145fa565b60405180910390fd5b50565b6133d1817f0000000000000000000000000000000000000000000000000000000000000000600760008667ffffffffffffffff1667ffffffffffffffff168152602001908152602001600020600201613b4c9092919063ffffffff16565b5050565b600080836001016000848152602001908152602001600020541415905092915050565b6000613420836000018373ffffffffffffffffffffffffffffffffffffffff1660001b61399c565b905092915050565b6000613450836000018373ffffffffffffffffffffffffffffffffffffffff1660001b613adc565b905092915050565b60006134678360000183613adc565b905092915050565b60008260000160109054906101000a900463ffffffff1663ffffffff16426134979190615b69565b9050600081146135a1576135438360010160009054906101000a90046fffffffffffffffffffffffffffffffff166fffffffffffffffffffffffffffffffff168460000160009054906101000a90046fffffffffffffffffffffffffffffffff166fffffffffffffffffffffffffffffffff16838660010160109054906101000a90046fffffffffffffffffffffffffffffffff166fffffffffffffffffffffffffffffffff16613ab0565b8360000160006101000a8154816fffffffffffffffffffffffffffffffff02191690836fffffffffffffffffffffffffffffffff160217905550428360000160106101000a81548163ffffffff021916908363ffffffff1602179055505b6135f382602001516fffffffffffffffffffffffffffffffff168460000160009054906101000a90046fffffffffffffffffffffffffffffffff166fffffffffffffffffffffffffffffffff16613f16565b8360000160006101000a8154816fffffffffffffffffffffffffffffffff02191690836fffffffffffffffffffffffffffffffff16021790555081600001518360000160146101000a81548160ff02191690831515021790555081602001518360010160006101000a8154816fffffffffffffffffffffffffffffffff02191690836fffffffffffffffffffffffffffffffff16021790555081604001518360010160106101000a8154816fffffffffffffffffffffffffffffffff02191690836fffffffffffffffffffffffffffffffff1602179055507f9ea3374b67bf275e6bb9c8ae68f9cae023e1c528b4b27e092f0bb209d3531c19826040516136fa9190615b9d565b60405180910390a1505050565b7f00000000000000000000000000000000000000000000000000000000000000001561378357613741816002613f2f90919063ffffffff16565b61378257806040517fd0d2597600000000000000000000000000000000000000000000000000000000815260040161377991906145fa565b60405180910390fd5b5b50565b61378f81610d72565b6137d057806040517fa9902c7e0000000000000000000000000000000000000000000000000000000081526004016137c79190615048565b60405180910390fd5b600460009054906101000a900473ffffffffffffffffffffffffffffffffffffffff1673ffffffffffffffffffffffffffffffffffffffff1663a8d87a3b826040518263ffffffff1660e01b815260040161382b9190615048565b602060405180830381865afa158015613848573d6000803e3d6000fd5b505050506040513d601f19601f8201168201806040525081019061386c9190615bf6565b73ffffffffffffffffffffffffffffffffffffffff163373ffffffffffffffffffffffffffffffffffffffff16146138db57336040517f728fe07b0000000000000000000000000000000000000000000000000000000081526004016138d291906145fa565b60405180910390fd5b50565b61393c817f0000000000000000000000000000000000000000000000000000000000000000600760008667ffffffffffffffff1667ffffffffffffffff168152602001908152602001600020600001613b4c9092919063ffffffff16565b5050565b60608160000180548060200260200160405190810160405280929190818152602001828054801561399057602002820191906000526020600020905b81548152602001906001019080831161397c575b50505050509050919050565b60008083600101600084815260200190815260200160002054905060008114613aa45760006001826139ce9190615b69565b90506000600186600001805490506139e69190615b69565b9050808214613a55576000866000018281548110613a0757613a06615063565b5b9060005260206000200154905080876000018481548110613a2b57613a2a615063565b5b90600052602060002001819055508387600101600083815260200190815260200160002081905550505b85600001805480613a6957613a68615c23565b5b600190038181906000526020600020016000905590558560010160008681526020019081526020016000206000905560019350505050613aaa565b60009150505b92915050565b6000613ad2858385613ac29190615ac0565b86613acd9190615c52565b613f16565b9050949350505050565b6000613ae883836133d5565b613b41578260000182908060018154018082558091505060019003906000526020600020016000909190919091505582600001805490508360010160008481526020019081526020016000208190555060019050613b46565b600090505b92915050565b8260000160149054906101000a900460ff161580613b6a5750600082145b613f115760008360000160009054906101000a90046fffffffffffffffffffffffffffffffff166fffffffffffffffffffffffffffffffff16905060008460010160009054906101000a90046fffffffffffffffffffffffffffffffff166fffffffffffffffffffffffffffffffff16905060008560000160109054906101000a900463ffffffff1663ffffffff1642613c049190615b69565b905060008114613cac5781831115613c48576040517f9725942a00000000000000000000000000000000000000000000000000000000815260040160405180910390fd5b613c868284838960010160109054906101000a90046fffffffffffffffffffffffffffffffff166fffffffffffffffffffffffffffffffff16613ab0565b9250428660000160106101000a81548163ffffffff021916908363ffffffff1602179055505b84821015613d6857600073ffffffffffffffffffffffffffffffffffffffff168473ffffffffffffffffffffffffffffffffffffffff1603613d275781856040517ff94ebcd1000000000000000000000000000000000000000000000000000000008152600401613d1e929190615c86565b60405180910390fd5b8185856040517f1a76572a000000000000000000000000000000000000000000000000000000008152600401613d5f93929190615caf565b60405180910390fd5b84831015613e8d5760008660010160109054906101000a90046fffffffffffffffffffffffffffffffff166fffffffffffffffffffffffffffffffff169050600081600183613db79190615b69565b8689613dc39190615b69565b613dcd9190615c52565b613dd79190615a8f565b9050600073ffffffffffffffffffffffffffffffffffffffff168673ffffffffffffffffffffffffffffffffffffffff1603613e4c5780856040517f15279c08000000000000000000000000000000000000000000000000000000008152600401613e43929190615c86565b60405180910390fd5b8085876040517fd0c8d23a000000000000000000000000000000000000000000000000000000008152600401613e8493929190615caf565b60405180910390fd5b8483613e999190615b69565b9250828660000160006101000a8154816fffffffffffffffffffffffffffffffff02191690836fffffffffffffffffffffffffffffffff1602179055507f1871cdf8010e63f2eb8384381a68dfa7416dc571a5517e66e88b2d2d0c0a690a85604051613f059190614fc6565b60405180910390a15050505b505050565b6000818310613f255781613f27565b825b905092915050565b6000613f57836000018373ffffffffffffffffffffffffffffffffffffffff1660001b6133d5565b905092915050565b6040518060200160405280600081525090565b604051806040016040528060608152602001606081525090565b6040518060a0016040528060006fffffffffffffffffffffffffffffffff168152602001600063ffffffff16815260200160001515815260200160006fffffffffffffffffffffffffffffffff16815260200160006fffffffffffffffffffffffffffffffff1681525090565b508054614005906150ee565b6000825580601f106140175750614036565b601f016020900490600052602060002090810190614035919061405a565b5b50565b50805460008255906000526020600020908101906140579190614077565b50565b5b8082111561407357600081600090555060010161405b565b5090565b5b80821115614090576000816000905550600101614078565b5090565b6000604051905090565b600080fd5b600080fd5b60007fffffffff0000000000000000000000000000000000000000000000000000000082169050919050565b6140dd816140a8565b81146140e857600080fd5b50565b6000813590506140fa816140d4565b92915050565b6000602082840312156141165761411561409e565b5b6000614124848285016140eb565b91505092915050565b60008115159050919050565b6141428161412d565b82525050565b600060208201905061415d6000830184614139565b92915050565b600081519050919050565b600082825260208201905092915050565b60005b8381101561419d578082015181840152602081019050614182565b60008484015250505050565b6000601f19601f8301169050919050565b60006141c582614163565b6141cf818561416e565b93506141df81856020860161417f565b6141e8816141a9565b840191505092915050565b6000602082019050818103600083015261420d81846141ba565b905092915050565b600073ffffffffffffffffffffffffffffffffffffffff82169050919050565b6000819050919050565b600061425a61425561425084614215565b614235565b614215565b9050919050565b600061426c8261423f565b9050919050565b600061427e82614261565b9050919050565b61428e81614273565b82525050565b60006020820190506142a96000830184614285565b92915050565b60006142ba82614215565b9050919050565b6142ca816142af565b81146142d557600080fd5b50565b6000813590506142e7816142c1565b92915050565b6000602082840312156143035761430261409e565b5b6000614311848285016142d8565b91505092915050565b600060ff82169050919050565b6143308161431a565b82525050565b600060208201905061434b6000830184614327565b92915050565b600080fd5b6000610100828403121561436d5761436c614351565b5b81905092915050565b60006020828403121561438c5761438b61409e565b5b600082013567ffffffffffffffff8111156143aa576143a96140a3565b5b6143b684828501614356565b91505092915050565b6000819050919050565b6143d2816143bf565b82525050565b6020820160008201516143ee60008501826143c9565b50505050565b600060208201905061440960008301846143d8565b92915050565b600067ffffffffffffffff82169050919050565b61442c8161440f565b811461443757600080fd5b50565b60008135905061444981614423565b92915050565b600080fd5b600080fd5b600080fd5b60008083601f8401126144745761447361444f565b5b8235905067ffffffffffffffff81111561449157614490614454565b5b6020830191508360018202830111156144ad576144ac614459565b5b9250929050565b6000806000604084860312156144cd576144cc61409e565b5b60006144db8682870161443a565b935050602084013567ffffffffffffffff8111156144fc576144fb6140a3565b5b6145088682870161445e565b92509250509250925092565b60008083601f84011261452a5761452961444f565b5b8235905067ffffffffffffffff81111561454757614546614454565b5b60208301915083602082028301111561456357614562614459565b5b9250929050565b600080600080604085870312156145845761458361409e565b5b600085013567ffffffffffffffff8111156145a2576145a16140a3565b5b6145ae87828801614514565b9450945050602085013567ffffffffffffffff8111156145d1576145d06140a3565b5b6145dd87828801614514565b925092505092959194509250565b6145f4816142af565b82525050565b600060208201905061460f60008301846145eb565b92915050565b60006020828403121561462b5761462a61409e565b5b60006146398482850161443a565b91505092915050565b60008083601f8401126146585761465761444f565b5b8235905067ffffffffffffffff81111561467557614674614454565b5b60208301915083602082028301111561469157614690614459565b5b9250929050565b60008083601f8401126146ae576146ad61444f565b5b8235905067ffffffffffffffff8111156146cb576146ca614454565b5b6020830191508360608202830111156146e7576146e6614459565b5b9250929050565b6000806000806000806060878903121561470b5761470a61409e565b5b600087013567ffffffffffffffff811115614729576147286140a3565b5b61473589828a01614642565b9650965050602087013567ffffffffffffffff811115614758576147576140a3565b5b61476489828a01614698565b9450945050604087013567ffffffffffffffff811115614787576147866140a3565b5b61479389828a01614698565b92509250509295509295509295565b600060a082840312156147b8576147b7614351565b5b81905092915050565b6000602082840312156147d7576147d661409e565b5b600082013567ffffffffffffffff8111156147f5576147f46140a3565b5b614801848285016147a2565b91505092915050565b600081519050919050565b600082825260208201905092915050565b60006148318261480a565b61483b8185614815565b935061484b81856020860161417f565b614854816141a9565b840191505092915050565b6000604083016000830151848203600086015261487c8282614826565b915050602083015184820360208601526148968282614826565b9150508091505092915050565b600060208201905081810360008301526148bd818461485f565b905092915050565b600081519050919050565b600082825260208201905092915050565b6000819050602082019050919050565b60006148fd8383614826565b905092915050565b6000602082019050919050565b600061491d826148c5565b61492781856148d0565b935083602082028501614939856148e1565b8060005b85811015614975578484038952815161495685826148f1565b945061496183614905565b925060208a0199505060018101905061493d565b50829750879550505050505092915050565b600060208201905081810360008301526149a18184614912565b905092915050565b600081519050919050565b600082825260208201905092915050565b6000819050602082019050919050565b6149de816142af565b82525050565b60006149f083836149d5565b60208301905092915050565b6000602082019050919050565b6000614a14826149a9565b614a1e81856149b4565b9350614a29836149c5565b8060005b83811015614a5a578151614a4188826149e4565b9750614a4c836149fc565b925050600181019050614a2d565b5085935050505092915050565b60006020820190508181036000830152614a818184614a09565b905092915050565b60006fffffffffffffffffffffffffffffffff82169050919050565b614aae81614a89565b82525050565b600063ffffffff82169050919050565b614acd81614ab4565b82525050565b614adc8161412d565b82525050565b60a082016000820151614af86000850182614aa5565b506020820151614b0b6020850182614ac4565b506040820151614b1e6040850182614ad3565b506060820151614b316060850182614aa5565b506080820151614b446080850182614aa5565b50505050565b600060a082019050614b5f6000830184614ae2565b92915050565b600082825260208201905092915050565b6000614b818261480a565b614b8b8185614b65565b9350614b9b81856020860161417f565b614ba4816141a9565b840191505092915050565b60006020820190508181036000830152614bc98184614b76565b905092915050565b600081519050919050565b600082825260208201905092915050565b6000819050602082019050919050565b614c068161440f565b82525050565b6000614c188383614bfd565b60208301905092915050565b6000602082019050919050565b6000614c3c82614bd1565b614c468185614bdc565b9350614c5183614bed565b8060005b83811015614c82578151614c698882614c0c565b9750614c7483614c24565b925050600181019050614c55565b5085935050505092915050565b60006020820190508181036000830152614ca98184614c31565b905092915050565b600080fd5b7f4e487b7100000000000000000000000000000000000000000000000000000000600052604160045260246000fd5b614cee826141a9565b810181811067ffffffffffffffff82111715614d0d57614d0c614cb6565b5b80604052505050565b6000614d20614094565b9050614d2c8282614ce5565b919050565b600080fd5b614d3f8161412d565b8114614d4a57600080fd5b50565b600081359050614d5c81614d36565b92915050565b614d6b81614a89565b8114614d7657600080fd5b50565b600081359050614d8881614d62565b92915050565b600060608284031215614da457614da3614cb1565b5b614dae6060614d16565b90506000614dbe84828501614d4d565b6000830152506020614dd284828501614d79565b6020830152506040614de684828501614d79565b60408301525092915050565b600080600060e08486031215614e0b57614e0a61409e565b5b6000614e198682870161443a565b9350506020614e2a86828701614d8e565b9250506080614e3b86828701614d8e565b9150509250925092565b60008083601f840112614e5b57614e5a61444f565b5b8235905067ffffffffffffffff811115614e7857614e77614454565b5b602083019150836020820283011115614e9457614e93614459565b5b9250929050565b60008060008060408587031215614eb557614eb461409e565b5b600085013567ffffffffffffffff811115614ed357614ed26140a3565b5b614edf87828801614642565b9450945050602085013567ffffffffffffffff811115614f0257614f016140a3565b5b614f0e87828801614e45565b925092505092959194509250565b600080fd5b600080fd5b600080fd5b60008083356001602003843603038112614f4857614f47614f1c565b5b80840192508235915067ffffffffffffffff821115614f6a57614f69614f21565b5b602083019250600182023603831315614f8657614f85614f26565b5b509250929050565b614f97816143bf565b82525050565b6000604082019050614fb260008301856145eb565b614fbf6020830184614f8e565b9392505050565b6000602082019050614fdb6000830184614f8e565b92915050565b600081905092915050565b82818337600083830152505050565b60006150078385614fe1565b9350615014838584614fec565b82840190509392505050565b600061502d828486614ffb565b91508190509392505050565b6150428161440f565b82525050565b600060208201905061505d6000830184615039565b92915050565b7f4e487b7100000000000000000000000000000000000000000000000000000000600052603260045260246000fd5b6000606082840312156150a8576150a761409e565b5b60006150b684828501614d8e565b91505092915050565b7f4e487b7100000000000000000000000000000000000000000000000000000000600052602260045260246000fd5b6000600282049050600182168061510657607f821691505b602082108103615119576151186150bf565b5b50919050565b600061512b8385614b65565b9350615138838584614fec565b615141836141a9565b840190509392505050565b60006040820190506151616000830186615039565b818103602083015261517481848661511f565b9050949350505050565b6000602082019050818103600083015261519981848661511f565b90509392505050565b60006040820190506151b760008301856145eb565b6151c460208301846145eb565b9392505050565b600082356001610120038336030381126151e8576151e7614f1c565b5b80830191505092915050565b600067ffffffffffffffff82111561520f5761520e614cb6565b5b602082029050602081019050919050565b600080fd5b600067ffffffffffffffff8211156152405761523f614cb6565b5b615249826141a9565b9050602081019050919050565b600061526961526484615225565b614d16565b90508281526020810184848401111561528557615284615220565b5b615290848285614fec565b509392505050565b600082601f8301126152ad576152ac61444f565b5b81356152bd848260208601615256565b91505092915050565b60006152d96152d4846151f4565b614d16565b905080838252602082019050602084028301858111156152fc576152fb614459565b5b835b8181101561534357803567ffffffffffffffff8111156153215761532061444f565b5b80860161532e8982615298565b855260208501945050506020810190506152fe565b5050509392505050565b600082601f8301126153625761536161444f565b5b81356153728482602086016152c6565b91505092915050565b6000610120828403121561539257615391614cb1565b5b61539c60a0614d16565b905060006153ac8482850161443a565b600083015250602082013567ffffffffffffffff8111156153d0576153cf614d31565b5b6153dc8482850161534d565b602083015250604082013567ffffffffffffffff811115615400576153ff614d31565b5b61540c84828501615298565b604083015250606061542084828501614d8e565b60608301525060c061543484828501614d8e565b60808301525092915050565b600061544c368361537b565b9050919050565b60008190508160005260206000209050919050565b60006020601f8301049050919050565b600082821b905092915050565b6000600883026154b57fffffffffffffffffffffffffffffffffffffffffffffffffffffffffffffffff82615478565b6154bf8683615478565b95508019841693508086168417925050509392505050565b60006154f26154ed6154e8846143bf565b614235565b6143bf565b9050919050565b6000819050919050565b61550c836154d7565b615520615518826154f9565b848454615485565b825550505050565b600090565b615535615528565b615540818484615503565b505050565b5b818110156155645761555960008261552d565b600181019050615546565b5050565b601f8211156155a95761557a81615453565b61558384615468565b81016020851015615592578190505b6155a661559e85615468565b830182615545565b50505b505050565b600082821c905092915050565b60006155cc600019846008026155ae565b1980831691505092915050565b60006155e583836155bb565b9150826002028217905092915050565b6155fe8261480a565b67ffffffffffffffff81111561561757615616614cb6565b5b61562182546150ee565b61562c828285615568565b600060209050601f83116001811461565f576000841561564d578287015190505b61565785826155d9565b8655506156bf565b601f19841661566d86615453565b60005b8281101561569557848901518255600182019150602085019450602081019050615670565b868310156156b257848901516156ae601f8916826155bb565b8355505b6001600288020188555050505b505050505050565b6060820160008201516156dd6000850182614ad3565b5060208201516156f06020850182614aa5565b5060408201516157036040850182614aa5565b50505050565b60006101008201905061571f6000830187615039565b81810360208301526157318186614b76565b905061574060408301856156c7565b61574d60a08301846156c7565b95945050505050565b60007fffffffffffffffffffffffffffffffff0000000000000000000000000000000082169050919050565b61578b81615756565b82525050565b60006020820190506157a66000830184615782565b92915050565b6000815190506157bb81614d36565b92915050565b6000602082840312156157d7576157d661409e565b5b60006157e5848285016157ac565b91505092915050565b6157f7816143bf565b811461580257600080fd5b50565b600081519050615814816157ee565b92915050565b6000602082840312156158305761582f61409e565b5b600061583e84828501615805565b91505092915050565b7f4e487b7100000000000000000000000000000000000000000000000000000000600052601160045260246000fd5b60006158818261431a565b915061588c8361431a565b9250828203905060ff8111156158a5576158a4615847565b5b92915050565b60006060820190506158c06000830186614327565b6158cd6020830185614327565b6158da6040830184614f8e565b949350505050565b60008160011c9050919050565b6000808291508390505b60018511156159395780860481111561591557615914615847565b5b60018516156159245780820291505b8081029050615932856158e2565b94506158f9565b94509492505050565b6000826159525760019050615a0e565b816159605760009050615a0e565b81600181146159765760028114615980576159af565b6001915050615a0e565b60ff84111561599257615991615847565b5b8360020a9150848211156159a9576159a8615847565b5b50615a0e565b5060208310610133831016604e8410600b84101617156159e45782820a9050838111156159df576159de615847565b5b615a0e565b6159f184848460016158ef565b92509050818404811115615a0857615a07615847565b5b81810290505b9392505050565b6000615a20826143bf565b9150615a2b8361431a565b9250615a587fffffffffffffffffffffffffffffffffffffffffffffffffffffffffffffffff8484615942565b905092915050565b7f4e487b7100000000000000000000000000000000000000000000000000000000600052601260045260246000fd5b6000615a9a826143bf565b9150615aa5836143bf565b925082615ab557615ab4615a60565b5b828204905092915050565b6000615acb826143bf565b9150615ad6836143bf565b9250828202615ae4816143bf565b91508282048414831517615afb57615afa615847565b5b5092915050565b6000604082019050615b176000830185615039565b8181036020830152615b298184614b76565b90509392505050565b600060e082019050615b476000830186615039565b615b5460208301856156c7565b615b6160808301846156c7565b949350505050565b6000615b74826143bf565b9150615b7f836143bf565b9250828203905081811115615b9757615b96615847565b5b92915050565b6000606082019050615bb260008301846156c7565b92915050565b6000604082019050615bcd6000830185615039565b615bda60208301846145eb565b9392505050565b600081519050615bf0816142c1565b92915050565b600060208284031215615c0c57615c0b61409e565b5b6000615c1a84828501615be1565b91505092915050565b7f4e487b7100000000000000000000000000000000000000000000000000000000600052603160045260246000fd5b6000615c5d826143bf565b9150615c68836143bf565b9250828201905080821115615c8057615c7f615847565b5b92915050565b6000604082019050615c9b6000830185614f8e565b615ca86020830184614f8e565b9392505050565b6000606082019050615cc46000830186614f8e565b615cd16020830185614f8e565b615cde60408301846145eb565b94935050505056fea264697066735822122037d46dbaeb69913743b313845fadd8c3907ddc202d3a68600e5b1e08f267b08a64736f6c63430008180033",
    "linkReferences": {}
  },
  "methodIdentifiers": {
    "acceptOwnership()": "79ba5097",
    "addRemotePool(uint64,bytes)": "62ddd3c4",
    "applyAllowListUpdates(address[],address[])": "54c8a4f3",
    "applyChainUpdates(uint64[],(uint64,bytes[],bytes,(bool,uint128,uint128),(bool,uint128,uint128))[])": "e8a1da17",
    "getAllowList()": "a7cd63b7",
    "getAllowListEnabled()": "e0351e13",
    "getCurrentInboundRateLimiterState(uint64)": "af58d59f",
    "getCurrentOutboundRateLimiterState(uint64)": "c75eea9c",
    "getRateLimitAdmin()": "6d3d1a58",
    "getRemotePools(uint64)": "a42a7b8b",
    "getRemoteToken(uint64)": "b7946580",
    "getRmnProxy()": "dc0bd971",
    "getRouter()": "b0f479a1",
    "getSupportedChains()": "c4bffe2b",
    "getToken()": "21df0da7",
    "getTokenDecimals()": "24f65ee7",
    "isRemotePool(uint64,bytes)": "4c5ef0ed",
    "isSupportedChain(uint64)": "8926f54f",
    "isSupportedToken(address)": "240028e8",
    "lockOrBurn((bytes,uint64,address,uint256,address))": "9a4575b9",
    "owner()": "8da5cb5b",
    "releaseOrMint((bytes,uint64,address,uint256,address,bytes,bytes,bytes))": "39077537",
    "removeRemotePool(uint64,bytes)": "acfecf91",
    "setChainRateLimiterConfig(uint64,(bool,uint128,uint128),(bool,uint128,uint128))": "cf7401f3",
    "setChainRateLimiterConfigs(uint64[],(bool,uint128,uint128)[],(bool,uint128,uint128)[])": "962d4020",
    "setRateLimitAdmin(address)": "7d54534e",
    "setRouter(address)": "c0d78655",
    "supportsInterface(bytes4)": "01ffc9a7",
    "transferOwnership(address)": "f2fde38b",
    "typeAndVersion()": "181f5a77"
  },
  "id": 15
}