{
    "abi": [
        {
            "type": "constructor",
            "inputs": [
                {
                    "name": "_tokenFactory",
                    "type": "address",
                    "internalType": "address"
                },
                {
                    "name": "_primaryDistribution",
                    "type": "address",
                    "internalType": "address"
                },
                {
                    "name": "_feeRecipient",
                    "type": "address",
                    "internalType": "address"
                },
                {
                    "name": "_treasury",
                    "type": "address",
                    "internalType": "address"
                }
            ],
            "stateMutability": "nonpayable"
        },
        {
            "type": "function",
            "name": "DEFAULT_ADMIN_ROLE",
            "inputs": [],
            "outputs": [
                {
                    "name": "",
                    "type": "bytes32",
                    "internalType": "bytes32"
                }
            ],
            "stateMutability": "view"
        },
        {
            "type": "function",
            "name": "activatePrimarySales",
            "inputs": [
                {
                    "name": "projectId",
                    "type": "uint256",
                    "internalType": "uint256"
                }
            ],
            "outputs": [],
            "stateMutability": "nonpayable"
        },
        {
            "type": "function",
            "name": "completePrimarySales",
            "inputs": [
                {
                    "name": "projectId",
                    "type": "uint256",
                    "internalType": "uint256"
                }
            ],
            "outputs": [],
            "stateMutability": "nonpayable"
        },
        {
            "type": "function",
            "name": "createRWAToken",
            "inputs": [
                {
                    "name": "name",
                    "type": "string",
                    "internalType": "string"
                },
                {
                    "name": "symbol",
                    "type": "string",
                    "internalType": "string"
                },
                {
                    "name": "metadata",
                    "type": "tuple",
                    "internalType": "struct RWAToken.AssetMetadata",
                    "components": [
                        {
                            "name": "assetType",
                            "type": "string",
                            "internalType": "string"
                        },
                        {
                            "name": "description",
                            "type": "string",
                            "internalType": "string"
                        },
                        {
                            "name": "totalValue",
                            "type": "uint256",
                            "internalType": "uint256"
                        },
                        {
                            "name": "url",
                            "type": "string",
                            "internalType": "string"
                        },
                        {
                            "name": "createdAt",
                            "type": "uint256",
                            "internalType": "uint256"
                        }
                    ]
                }
            ],
            "outputs": [
                {
                    "name": "projectId",
                    "type": "uint256",
                    "internalType": "uint256"
                }
            ],
            "stateMutability": "nonpayable"
        },
        {
            "type": "function",
            "name": "creatorProjects",
            "inputs": [
                {
                    "name": "",
                    "type": "address",
                    "internalType": "address"
                },
                {
                    "name": "",
                    "type": "uint256",
                    "internalType": "uint256"
                }
            ],
            "outputs": [
                {
                    "name": "",
                    "type": "uint256",
                    "internalType": "uint256"
                }
            ],
            "stateMutability": "view"
        },
        {
            "type": "function",
            "name": "feeRecipient",
            "inputs": [],
            "outputs": [
                {
                    "name": "",
                    "type": "address",
                    "internalType": "address"
                }
            ],
            "stateMutability": "view"
        },
        {
            "type": "function",
            "name": "getCreatorProjects",
            "inputs": [
                {
                    "name": "creator",
                    "type": "address",
                    "internalType": "address"
                }
            ],
            "outputs": [
                {
                    "name": "",
                    "type": "uint256[]",
                    "internalType": "uint256[]"
                }
            ],
            "stateMutability": "view"
        },
        {
            "type": "function",
            "name": "getProject",
            "inputs": [
                {
                    "name": "projectId",
                    "type": "uint256",
                    "internalType": "uint256"
                }
            ],
            "outputs": [
                {
                    "name": "",
                    "type": "tuple",
                    "internalType": "struct RWAManager.RWAProject",
                    "components": [
                        {
                            "name": "rwaToken",
                            "type": "address",
                            "internalType": "address"
                        },
                        {
                            "name": "creator",
                            "type": "address",
                            "internalType": "address"
                        },
                        {
                            "name": "isActive",
                            "type": "bool",
                            "internalType": "bool"
                        },
                        {
                            "name": "ccipConfigured",
                            "type": "bool",
                            "internalType": "bool"
                        },
                        {
                            "name": "totalSupply",
                            "type": "uint256",
                            "internalType": "uint256"
                        },
                        {
                            "name": "createdAt",
                            "type": "uint256",
                            "internalType": "uint256"
                        },
                        {
                            "name": "registeredAt",
                            "type": "uint256",
                            "internalType": "uint256"
                        },
                        {
                            "name": "status",
                            "type": "uint8",
                            "internalType": "enum RWAManager.ProjectStatus"
                        }
                    ]
                }
            ],
            "stateMutability": "view"
        },
        {
            "type": "function",
            "name": "getProjectIdByToken",
            "inputs": [
                {
                    "name": "tokenAddress",
                    "type": "address",
                    "internalType": "address"
                }
            ],
            "outputs": [
                {
                    "name": "",
                    "type": "uint256",
                    "internalType": "uint256"
                }
            ],
            "stateMutability": "view"
        },
        {
            "type": "function",
            "name": "getProjectStats",
            "inputs": [
                {
                    "name": "projectId",
                    "type": "uint256",
                    "internalType": "uint256"
                }
            ],
            "outputs": [
                {
                    "name": "status",
                    "type": "uint8",
                    "internalType": "enum RWAManager.ProjectStatus"
                },
                {
                    "name": "ccipConfigured",
                    "type": "bool",
                    "internalType": "bool"
                },
                {
                    "name": "totalSupply",
                    "type": "uint256",
                    "internalType": "uint256"
                },
                {
                    "name": "isActive",
                    "type": "bool",
                    "internalType": "bool"
                },
                {
                    "name": "createdAt",
                    "type": "uint256",
                    "internalType": "uint256"
                },
                {
                    "name": "registeredAt",
                    "type": "uint256",
                    "internalType": "uint256"
                }
            ],
            "stateMutability": "view"
        },
        {
            "type": "function",
            "name": "getRoleAdmin",
            "inputs": [
                {
                    "name": "role",
                    "type": "bytes32",
                    "internalType": "bytes32"
                }
            ],
            "outputs": [
                {
                    "name": "",
                    "type": "bytes32",
                    "internalType": "bytes32"
                }
            ],
            "stateMutability": "view"
        },
        {
            "type": "function",
            "name": "grantRole",
            "inputs": [
                {
                    "name": "role",
                    "type": "bytes32",
                    "internalType": "bytes32"
                },
                {
                    "name": "account",
                    "type": "address",
                    "internalType": "address"
                }
            ],
            "outputs": [],
            "stateMutability": "nonpayable"
        },
        {
            "type": "function",
            "name": "hasRole",
            "inputs": [
                {
                    "name": "role",
                    "type": "bytes32",
                    "internalType": "bytes32"
                },
                {
                    "name": "account",
                    "type": "address",
                    "internalType": "address"
                }
            ],
            "outputs": [
                {
                    "name": "",
                    "type": "bool",
                    "internalType": "bool"
                }
            ],
            "stateMutability": "view"
        },
        {
            "type": "function",
            "name": "isProjectInStatus",
            "inputs": [
                {
                    "name": "projectId",
                    "type": "uint256",
                    "internalType": "uint256"
                },
                {
                    "name": "status",
                    "type": "uint8",
                    "internalType": "enum RWAManager.ProjectStatus"
                }
            ],
            "outputs": [
                {
                    "name": "",
                    "type": "bool",
                    "internalType": "bool"
                }
            ],
            "stateMutability": "view"
        },
        {
            "type": "function",
            "name": "isReadyForCCIP",
            "inputs": [
                {
                    "name": "projectId",
                    "type": "uint256",
                    "internalType": "uint256"
                }
            ],
            "outputs": [
                {
                    "name": "",
                    "type": "bool",
                    "internalType": "bool"
                }
            ],
            "stateMutability": "view"
        },
        {
            "type": "function",
            "name": "isReadyForSalesRegistration",
            "inputs": [
                {
                    "name": "projectId",
                    "type": "uint256",
                    "internalType": "uint256"
                }
            ],
            "outputs": [
                {
                    "name": "",
                    "type": "bool",
                    "internalType": "bool"
                }
            ],
            "stateMutability": "view"
        },
        {
            "type": "function",
            "name": "markCCIPConfigured",
            "inputs": [
                {
                    "name": "projectId",
                    "type": "uint256",
                    "internalType": "uint256"
                },
                {
                    "name": "totalSupply",
                    "type": "uint256",
                    "internalType": "uint256"
                }
            ],
            "outputs": [],
            "stateMutability": "nonpayable"
        },
        {
            "type": "function",
            "name": "nextProjectId",
            "inputs": [],
            "outputs": [
                {
                    "name": "",
                    "type": "uint256",
                    "internalType": "uint256"
                }
            ],
            "stateMutability": "view"
        },
        {
            "type": "function",
            "name": "pauseProject",
            "inputs": [
                {
                    "name": "projectId",
                    "type": "uint256",
                    "internalType": "uint256"
                }
            ],
            "outputs": [],
            "stateMutability": "nonpayable"
        },
        {
            "type": "function",
            "name": "primaryDistribution",
            "inputs": [],
            "outputs": [
                {
                    "name": "",
                    "type": "address",
                    "internalType": "contract PrimaryDistribution"
                }
            ],
            "stateMutability": "view"
        },
        {
            "type": "function",
            "name": "projects",
            "inputs": [
                {
                    "name": "",
                    "type": "uint256",
                    "internalType": "uint256"
                }
            ],
            "outputs": [
                {
                    "name": "rwaToken",
                    "type": "address",
                    "internalType": "address"
                },
                {
                    "name": "creator",
                    "type": "address",
                    "internalType": "address"
                },
                {
                    "name": "isActive",
                    "type": "bool",
                    "internalType": "bool"
                },
                {
                    "name": "ccipConfigured",
                    "type": "bool",
                    "internalType": "bool"
                },
                {
                    "name": "totalSupply",
                    "type": "uint256",
                    "internalType": "uint256"
                },
                {
                    "name": "createdAt",
                    "type": "uint256",
                    "internalType": "uint256"
                },
                {
                    "name": "registeredAt",
                    "type": "uint256",
                    "internalType": "uint256"
                },
                {
                    "name": "status",
                    "type": "uint8",
                    "internalType": "enum RWAManager.ProjectStatus"
                }
            ],
            "stateMutability": "view"
        },
        {
            "type": "function",
            "name": "registerForPrimarySales",
            "inputs": [
                {
                    "name": "projectId",
                    "type": "uint256",
                    "internalType": "uint256"
                },
                {
                    "name": "projectWallet",
                    "type": "address",
                    "internalType": "address"
                },
                {
                    "name": "projectAllocationPercent",
                    "type": "uint256",
                    "internalType": "uint256"
                },
                {
                    "name": "pricePerTokenUSDC",
                    "type": "uint256",
                    "internalType": "uint256"
                },
                {
                    "name": "minPurchaseUSDC",
                    "type": "uint256",
                    "internalType": "uint256"
                },
                {
                    "name": "maxPurchaseUSDC",
                    "type": "uint256",
                    "internalType": "uint256"
                }
            ],
            "outputs": [],
            "stateMutability": "nonpayable"
        },
        {
            "type": "function",
            "name": "renounceRole",
            "inputs": [
                {
                    "name": "role",
                    "type": "bytes32",
                    "internalType": "bytes32"
                },
                {
                    "name": "account",
                    "type": "address",
                    "internalType": "address"
                }
            ],
            "outputs": [],
            "stateMutability": "nonpayable"
        },
        {
            "type": "function",
            "name": "revokeRole",
            "inputs": [
                {
                    "name": "role",
                    "type": "bytes32",
                    "internalType": "bytes32"
                },
                {
                    "name": "account",
                    "type": "address",
                    "internalType": "address"
                }
            ],
            "outputs": [],
            "stateMutability": "nonpayable"
        },
        {
            "type": "function",
            "name": "supportsInterface",
            "inputs": [
                {
                    "name": "interfaceId",
                    "type": "bytes4",
                    "internalType": "bytes4"
                }
            ],
            "outputs": [
                {
                    "name": "",
                    "type": "bool",
                    "internalType": "bool"
                }
            ],
            "stateMutability": "view"
        },
        {
            "type": "function",
            "name": "tokenFactory",
            "inputs": [],
            "outputs": [
                {
                    "name": "",
                    "type": "address",
                    "internalType": "contract RWATokenFactory"
                }
            ],
            "stateMutability": "view"
        },
        {
            "type": "function",
            "name": "tokenToProjectId",
            "inputs": [
                {
                    "name": "",
                    "type": "address",
                    "internalType": "address"
                }
            ],
            "outputs": [
                {
                    "name": "",
                    "type": "uint256",
                    "internalType": "uint256"
                }
            ],
            "stateMutability": "view"
        },
        {
            "type": "function",
            "name": "treasury",
            "inputs": [],
            "outputs": [
                {
                    "name": "",
                    "type": "address",
                    "internalType": "address"
                }
            ],
            "stateMutability": "view"
        },
        {
            "type": "function",
            "name": "updateFeeRecipient",
            "inputs": [
                {
                    "name": "newFeeRecipient",
                    "type": "address",
                    "internalType": "address"
                }
            ],
            "outputs": [],
            "stateMutability": "nonpayable"
        },
        {
            "type": "function",
            "name": "updateTreasury",
            "inputs": [
                {
                    "name": "newTreasury",
                    "type": "address",
                    "internalType": "address"
                }
            ],
            "outputs": [],
            "stateMutability": "nonpayable"
        },
        {
            "type": "event",
            "name": "ProjectCCIPConfigured",
            "inputs": [
                {
                    "name": "projectId",
                    "type": "uint256",
                    "indexed": true,
                    "internalType": "uint256"
                },
                {
                    "name": "creator",
                    "type": "address",
                    "indexed": true,
                    "internalType": "address"
                },
                {
                    "name": "totalSupply",
                    "type": "uint256",
                    "indexed": false,
                    "internalType": "uint256"
                }
            ],
            "anonymous": false
        },
        {
            "type": "event",
            "name": "ProjectCreated",
            "inputs": [
                {
                    "name": "projectId",
                    "type": "uint256",
                    "indexed": true,
                    "internalType": "uint256"
                },
                {
                    "name": "creator",
                    "type": "address",
                    "indexed": true,
                    "internalType": "address"
                },
                {
                    "name": "tokenAddress",
                    "type": "address",
                    "indexed": true,
                    "internalType": "address"
                },
                {
                    "name": "name",
                    "type": "string",
                    "indexed": false,
                    "internalType": "string"
                },
                {
                    "name": "symbol",
                    "type": "string",
                    "indexed": false,
                    "internalType": "string"
                }
            ],
            "anonymous": false
        },
        {
            "type": "event",
            "name": "ProjectRegisteredForSales",
            "inputs": [
                {
                    "name": "projectId",
                    "type": "uint256",
                    "indexed": true,
                    "internalType": "uint256"
                },
                {
                    "name": "creator",
                    "type": "address",
                    "indexed": true,
                    "internalType": "address"
                },
                {
                    "name": "salesAllocation",
                    "type": "uint256",
                    "indexed": false,
                    "internalType": "uint256"
                },
                {
                    "name": "pricePerTokenUSDC",
                    "type": "uint256",
                    "indexed": false,
                    "internalType": "uint256"
                }
            ],
            "anonymous": false
        },
        {
            "type": "event",
            "name": "ProjectStatusUpdated",
            "inputs": [
                {
                    "name": "projectId",
                    "type": "uint256",
                    "indexed": true,
                    "internalType": "uint256"
                },
                {
                    "name": "oldStatus",
                    "type": "uint8",
                    "indexed": false,
                    "internalType": "enum RWAManager.ProjectStatus"
                },
                {
                    "name": "newStatus",
                    "type": "uint8",
                    "indexed": false,
                    "internalType": "enum RWAManager.ProjectStatus"
                }
            ],
            "anonymous": false
        },
        {
            "type": "event",
            "name": "RoleAdminChanged",
            "inputs": [
                {
                    "name": "role",
                    "type": "bytes32",
                    "indexed": true,
                    "internalType": "bytes32"
                },
                {
                    "name": "previousAdminRole",
                    "type": "bytes32",
                    "indexed": true,
                    "internalType": "bytes32"
                },
                {
                    "name": "newAdminRole",
                    "type": "bytes32",
                    "indexed": true,
                    "internalType": "bytes32"
                }
            ],
            "anonymous": false
        },
        {
            "type": "event",
            "name": "RoleGranted",
            "inputs": [
                {
                    "name": "role",
                    "type": "bytes32",
                    "indexed": true,
                    "internalType": "bytes32"
                },
                {
                    "name": "account",
                    "type": "address",
                    "indexed": true,
                    "internalType": "address"
                },
                {
                    "name": "sender",
                    "type": "address",
                    "indexed": true,
                    "internalType": "address"
                }
            ],
            "anonymous": false
        },
        {
            "type": "event",
            "name": "RoleRevoked",
            "inputs": [
                {
                    "name": "role",
                    "type": "bytes32",
                    "indexed": true,
                    "internalType": "bytes32"
                },
                {
                    "name": "account",
                    "type": "address",
                    "indexed": true,
                    "internalType": "address"
                },
                {
                    "name": "sender",
                    "type": "address",
                    "indexed": true,
                    "internalType": "address"
                }
            ],
            "anonymous": false
        }
    ],
    "bytecode": {
        "object": "0x60c060405260016004553480156200001657600080fd5b50604051620045323803806200453283398181016040528101906200003c9190620004da565b600073ffffffffffffffffffffffffffffffffffffffff168473ffffffffffffffffffffffffffffffffffffffff1603620000ae576040517f08c379a0000000000000000000000000000000000000000000000000000000008152600401620000a590620005ad565b60405180910390fd5b600073ffffffffffffffffffffffffffffffffffffffff168373ffffffffffffffffffffffffffffffffffffffff160362000120576040517f08c379a000000000000000000000000000000000000000000000000000000000815260040162000117906200061f565b60405180910390fd5b600073ffffffffffffffffffffffffffffffffffffffff168273ffffffffffffffffffffffffffffffffffffffff160362000192576040517f08c379a0000000000000000000000000000000000000000000000000000000008152600401620001899062000691565b60405180910390fd5b600073ffffffffffffffffffffffffffffffffffffffff168173ffffffffffffffffffffffffffffffffffffffff160362000204576040517f08c379a0000000000000000000000000000000000000000000000000000000008152600401620001fb9062000703565b60405180910390fd5b620002196000801b336200030d60201b60201c565b8373ffffffffffffffffffffffffffffffffffffffff1660808173ffffffffffffffffffffffffffffffffffffffff16815250508273ffffffffffffffffffffffffffffffffffffffff1660a08173ffffffffffffffffffffffffffffffffffffffff168152505081600560006101000a81548173ffffffffffffffffffffffffffffffffffffffff021916908373ffffffffffffffffffffffffffffffffffffffff16021790555080600660006101000a81548173ffffffffffffffffffffffffffffffffffffffff021916908373ffffffffffffffffffffffffffffffffffffffff1602179055505050505062000725565b6200031f8282620003fe60201b60201c565b620003fa57600160008084815260200190815260200160002060000160008373ffffffffffffffffffffffffffffffffffffffff1673ffffffffffffffffffffffffffffffffffffffff16815260200190815260200160002060006101000a81548160ff0219169083151502179055506200039f6200046860201b60201c565b73ffffffffffffffffffffffffffffffffffffffff168173ffffffffffffffffffffffffffffffffffffffff16837f2f8788117e7eff1d82e926ec794901d17c78024a50270940304540a733656f0d60405160405180910390a45b5050565b600080600084815260200190815260200160002060000160008373ffffffffffffffffffffffffffffffffffffffff1673ffffffffffffffffffffffffffffffffffffffff16815260200190815260200160002060009054906101000a900460ff16905092915050565b600033905090565b600080fd5b600073ffffffffffffffffffffffffffffffffffffffff82169050919050565b6000620004a28262000475565b9050919050565b620004b48162000495565b8114620004c057600080fd5b50565b600081519050620004d481620004a9565b92915050565b60008060008060808587031215620004f757620004f662000470565b5b60006200050787828801620004c3565b94505060206200051a87828801620004c3565b93505060406200052d87828801620004c3565b92505060606200054087828801620004c3565b91505092959194509250565b600082825260208201905092915050565b7f496e76616c696420746f6b656e20666163746f72790000000000000000000000600082015250565b6000620005956015836200054c565b9150620005a2826200055d565b602082019050919050565b60006020820190508181036000830152620005c88162000586565b9050919050565b7f496e76616c6964207072696d61727920646973747269627574696f6e00000000600082015250565b600062000607601c836200054c565b91506200061482620005cf565b602082019050919050565b600060208201905081810360008301526200063a81620005f8565b9050919050565b7f496e76616c69642066656520726563697069656e740000000000000000000000600082015250565b6000620006796015836200054c565b9150620006868262000641565b602082019050919050565b60006020820190508181036000830152620006ac816200066a565b9050919050565b7f496e76616c696420747265617375727900000000000000000000000000000000600082015250565b6000620006eb6010836200054c565b9150620006f882620006b3565b602082019050919050565b600060208201905081810360008301526200071e81620006dc565b9050919050565b60805160a051613dd96200075960003960008181610a1c0152610dd401526000818161176f0152611b9f0152613dd96000f3fe608060405234801561001057600080fd5b50600436106101da5760003560e01c80637f51bb1f11610104578063bf2cb0d6116100a2578063f0f3f2c811610071578063f0f3f2c8146105bf578063f1139ebe146105ef578063f160d3691461060b578063fdf6eec714610627576101da565b8063bf2cb0d614610537578063d547741f14610567578063e77772fe14610583578063e935b7b1146105a1576101da565b8063a0a3fbd7116100de578063a0a3fbd714610489578063a217fddf146104b9578063abafcf6e146104d7578063ade1c31814610507576101da565b80637f51bb1f146104215780638f1809761461043d57806391d1485414610459576101da565b80632f2ff15d1161017c5780635f6e074f1161014b5780635f6e074f1461038257806361d027b3146103b257806364ca28b5146103d05780636ea2fa9514610405576101da565b80632f2ff15d1461030e578063325bbf921461032a57806336568abe146103485780634690484014610364576101da565b80630f717a63116101b85780630f717a631461025b578063107046bd14610277578063248a9ca3146102ae57806326812f8b146102de576101da565b806301ffc9a7146101df5780630439e24d1461020f5780630ed7e6a61461023f575b600080fd5b6101f960048036038101906101f49190612633565b610657565b604051610206919061267b565b60405180910390f35b610229600480360381019061022491906126f4565b6106d1565b60405161023691906127e9565b60405180910390f35b61025960048036038101906102549190612837565b610768565b005b610275600480360381019061027091906128c4565b610bb9565b005b610291600480360381019061028c91906128c4565b610c8f565b6040516102a5989796959493929190612986565b60405180910390f35b6102c860048036038101906102c39190612a3a565b610d3e565b6040516102d59190612a76565b60405180910390f35b6102f860048036038101906102f39190612ab6565b610d5d565b604051610305919061267b565b60405180910390f35b61032860048036038101906103239190612af6565b610db1565b005b610332610dd2565b60405161033f9190612b95565b60405180910390f35b610362600480360381019061035d9190612af6565b610df6565b005b61036c610e79565b6040516103799190612bb0565b60405180910390f35b61039c600480360381019061039791906128c4565b610e9f565b6040516103a9919061267b565b60405180910390f35b6103ba610ef3565b6040516103c79190612bb0565b60405180910390f35b6103ea60048036038101906103e591906128c4565b610f19565b6040516103fc96959493929190612bcb565b60405180910390f35b61041f600480360381019061041a91906128c4565b6110b4565b005b61043b600480360381019061043691906126f4565b6112b7565b005b61045760048036038101906104529190612c2c565b611378565b005b610473600480360381019061046e9190612af6565b611627565b604051610480919061267b565b60405180910390f35b6104a3600480360381019061049e9190612c6c565b611691565b6040516104b09190612cac565b60405180910390f35b6104c16116c2565b6040516104ce9190612a76565b60405180910390f35b6104f160048036038101906104ec9190612ef7565b6116c9565b6040516104fe9190612cac565b60405180910390f35b610521600480360381019061051c91906126f4565b611ae0565b60405161052e9190612cac565b60405180910390f35b610551600480360381019061054c91906128c4565b611b29565b60405161055e919061267b565b60405180910390f35b610581600480360381019061057c9190612af6565b611b7c565b005b61058b611b9d565b6040516105989190612fbf565b60405180910390f35b6105a9611bc1565b6040516105b69190612cac565b60405180910390f35b6105d960048036038101906105d491906128c4565b611bc7565b6040516105e691906130a9565b60405180910390f35b610609600480360381019061060491906128c4565b611d30565b005b610625600480360381019061062091906126f4565b611f32565b005b610641600480360381019061063c91906126f4565b611ff3565b60405161064e9190612cac565b60405180910390f35b60007f7965db0b000000000000000000000000000000000000000000000000000000007bffffffffffffffffffffffffffffffffffffffffffffffffffffffff1916827bffffffffffffffffffffffffffffffffffffffffffffffffffffffff191614806106ca57506106c98261200b565b5b9050919050565b6060600260008373ffffffffffffffffffffffffffffffffffffffff1673ffffffffffffffffffffffffffffffffffffffff16815260200190815260200160002080548060200260200160405190810160405280929190818152602001828054801561075c57602002820191906000526020600020905b815481526020019060010190808311610748575b50505050509050919050565b3373ffffffffffffffffffffffffffffffffffffffff166001600088815260200190815260200160002060010160009054906101000a900473ffffffffffffffffffffffffffffffffffffffff1673ffffffffffffffffffffffffffffffffffffffff161461080c576040517f08c379a000000000000000000000000000000000000000000000000000000000815260040161080390613122565b60405180910390fd5b600160048111156108205761081f61290f565b5b6001600088815260200190815260200160002060050160009054906101000a900460ff1660048111156108565761085561290f565b5b14610896576040517f08c379a000000000000000000000000000000000000000000000000000000000815260040161088d9061318e565b60405180910390fd5b600073ffffffffffffffffffffffffffffffffffffffff168573ffffffffffffffffffffffffffffffffffffffff1603610905576040517f08c379a00000000000000000000000000000000000000000000000000000000081526004016108fc906131fa565b60405180910390fd5b60008311610948576040517f08c379a000000000000000000000000000000000000000000000000000000000815260040161093f90613266565b60405180910390fd5b606484111561098c576040517f08c379a0000000000000000000000000000000000000000000000000000000008152600401610983906132d2565b60405180910390fd5b808211156109cf576040517f08c379a00000000000000000000000000000000000000000000000000000000081526004016109c69061333e565b60405180910390fd5b6000600160008881526020019081526020016000209050600060648683600201546109fa919061338d565b610a0491906133fe565b90506000818360020154610a18919061342f565b90507f000000000000000000000000000000000000000000000000000000000000000073ffffffffffffffffffffffffffffffffffffffff1663d7ff32d18a8560000160009054906101000a900473ffffffffffffffffffffffffffffffffffffffff168b858b8b8b6040518863ffffffff1660e01b8152600401610aa39796959493929190613463565b600060405180830381600087803b158015610abd57600080fd5b505af1158015610ad1573d6000803e3d6000fd5b5050505042836004018190555060008360050160009054906101000a900460ff16905060028460050160006101000a81548160ff02191690836004811115610b1c57610b1b61290f565b5b02179055503373ffffffffffffffffffffffffffffffffffffffff168a7f8a3bca49796ea92c58df7fbdb95c1a966b3de2cf10fdc036332e0ca0834fb1bf848a604051610b6a9291906134d2565b60405180910390a3897f15a4a29eccf92a0bbf94f24a6840487aa0226f7fb02d3402f1f86b3360bdfc6a826002604051610ba59291906134fb565b60405180910390a250505050505050505050565b3373ffffffffffffffffffffffffffffffffffffffff166001600083815260200190815260200160002060010160009054906101000a900473ffffffffffffffffffffffffffffffffffffffff1673ffffffffffffffffffffffffffffffffffffffff1614610c5d576040517f08c379a0000000000000000000000000000000000000000000000000000000008152600401610c5490613122565b60405180910390fd5b60006001600083815260200190815260200160002060010160146101000a81548160ff02191690831515021790555050565b60016020528060005260406000206000915090508060000160009054906101000a900473ffffffffffffffffffffffffffffffffffffffff16908060010160009054906101000a900473ffffffffffffffffffffffffffffffffffffffff16908060010160149054906101000a900460ff16908060010160159054906101000a900460ff16908060020154908060030154908060040154908060050160009054906101000a900460ff16905088565b6000806000838152602001908152602001600020600101549050919050565b6000816004811115610d7257610d7161290f565b5b6001600085815260200190815260200160002060050160009054906101000a900460ff166004811115610da857610da761290f565b5b14905092915050565b610dba82610d3e565b610dc381612075565b610dcd8383612089565b505050565b7f000000000000000000000000000000000000000000000000000000000000000081565b610dfe612169565b73ffffffffffffffffffffffffffffffffffffffff168173ffffffffffffffffffffffffffffffffffffffff1614610e6b576040517f08c379a0000000000000000000000000000000000000000000000000000000008152600401610e6290613596565b60405180910390fd5b610e758282612171565b5050565b600560009054906101000a900473ffffffffffffffffffffffffffffffffffffffff1681565b600060016004811115610eb557610eb461290f565b5b6001600084815260200190815260200160002060050160009054906101000a900460ff166004811115610eeb57610eea61290f565b5b149050919050565b600660009054906101000a900473ffffffffffffffffffffffffffffffffffffffff1681565b600080600080600080600060016000898152602001908152602001600020604051806101000160405290816000820160009054906101000a900473ffffffffffffffffffffffffffffffffffffffff1673ffffffffffffffffffffffffffffffffffffffff1673ffffffffffffffffffffffffffffffffffffffff1681526020016001820160009054906101000a900473ffffffffffffffffffffffffffffffffffffffff1673ffffffffffffffffffffffffffffffffffffffff1673ffffffffffffffffffffffffffffffffffffffff1681526020016001820160149054906101000a900460ff161515151581526020016001820160159054906101000a900460ff161515151581526020016002820154815260200160038201548152602001600482015481526020016005820160009054906101000a900460ff1660048111156110685761106761290f565b5b600481111561107a5761107961290f565b5b8152505090508060e001518160600151826080015183604001518460a001518560c001519650965096509650965096505091939550919395565b3373ffffffffffffffffffffffffffffffffffffffff166001600083815260200190815260200160002060010160009054906101000a900473ffffffffffffffffffffffffffffffffffffffff1673ffffffffffffffffffffffffffffffffffffffff1614611158576040517f08c379a000000000000000000000000000000000000000000000000000000000815260040161114f90613122565b60405180910390fd5b6003600481111561116c5761116b61290f565b5b6001600083815260200190815260200160002060050160009054906101000a900460ff1660048111156111a2576111a161290f565b5b146111e2576040517f08c379a00000000000000000000000000000000000000000000000000000000081526004016111d990613602565b60405180910390fd5b60006001600083815260200190815260200160002060010160146101000a81548160ff02191690831515021790555060006001600083815260200190815260200160002060050160009054906101000a900460ff16905060046001600084815260200190815260200160002060050160006101000a81548160ff021916908360048111156112735761127261290f565b5b0217905550817f15a4a29eccf92a0bbf94f24a6840487aa0226f7fb02d3402f1f86b3360bdfc6a8260046040516112ab9291906134fb565b60405180910390a25050565b6000801b6112c481612075565b600073ffffffffffffffffffffffffffffffffffffffff168273ffffffffffffffffffffffffffffffffffffffff1603611333576040517f08c379a000000000000000000000000000000000000000000000000000000000815260040161132a9061366e565b60405180910390fd5b81600660006101000a81548173ffffffffffffffffffffffffffffffffffffffff021916908373ffffffffffffffffffffffffffffffffffffffff1602179055505050565b3373ffffffffffffffffffffffffffffffffffffffff166001600084815260200190815260200160002060010160009054906101000a900473ffffffffffffffffffffffffffffffffffffffff1673ffffffffffffffffffffffffffffffffffffffff161461141c576040517f08c379a000000000000000000000000000000000000000000000000000000000815260040161141390613122565b60405180910390fd5b600060048111156114305761142f61290f565b5b6001600084815260200190815260200160002060050160009054906101000a900460ff1660048111156114665761146561290f565b5b146114a6576040517f08c379a000000000000000000000000000000000000000000000000000000000815260040161149d906136da565b60405180910390fd5b600081116114e9576040517f08c379a00000000000000000000000000000000000000000000000000000000081526004016114e090613746565b60405180910390fd5b600180600084815260200190815260200160002060010160156101000a81548160ff02191690831515021790555080600160008481526020019081526020016000206002018190555060006001600084815260200190815260200160002060050160009054906101000a900460ff169050600180600085815260200190815260200160002060050160006101000a81548160ff021916908360048111156115935761159261290f565b5b02179055503373ffffffffffffffffffffffffffffffffffffffff16837fb2f62f995b46fc702006742ce3b1daa7736c0c1fdb0c0a2338ab8dd77976f582846040516115df9190612cac565b60405180910390a3827f15a4a29eccf92a0bbf94f24a6840487aa0226f7fb02d3402f1f86b3360bdfc6a82600160405161161a9291906134fb565b60405180910390a2505050565b600080600084815260200190815260200160002060000160008373ffffffffffffffffffffffffffffffffffffffff1673ffffffffffffffffffffffffffffffffffffffff16815260200190815260200160002060009054906101000a900460ff16905092915050565b600260205281600052604060002081815481106116ad57600080fd5b90600052602060002001600091509150505481565b6000801b81565b60008084511161170e576040517f08c379a0000000000000000000000000000000000000000000000000000000008152600401611705906137b2565b60405180910390fd5b6000835111611752576040517f08c379a00000000000000000000000000000000000000000000000000000000081526004016117499061381e565b60405180910390fd5b600460008154809291906117659061383e565b91905055905060007f000000000000000000000000000000000000000000000000000000000000000073ffffffffffffffffffffffffffffffffffffffff1663eef5a09683878787336040518663ffffffff1660e01b81526004016117ce9594939291906139c2565b6020604051808303816000875af11580156117ed573d6000803e3d6000fd5b505050506040513d601f19601f820116820180604052508101906118119190613a3f565b90506040518061010001604052808273ffffffffffffffffffffffffffffffffffffffff1681526020013373ffffffffffffffffffffffffffffffffffffffff1681526020016000151581526020016000151581526020016000815260200142815260200160008152602001600060048111156118915761189061290f565b5b8152506001600084815260200190815260200160002060008201518160000160006101000a81548173ffffffffffffffffffffffffffffffffffffffff021916908373ffffffffffffffffffffffffffffffffffffffff16021790555060208201518160010160006101000a81548173ffffffffffffffffffffffffffffffffffffffff021916908373ffffffffffffffffffffffffffffffffffffffff16021790555060408201518160010160146101000a81548160ff02191690831515021790555060608201518160010160156101000a81548160ff0219169083151502179055506080820151816002015560a0820151816003015560c0820151816004015560e08201518160050160006101000a81548160ff021916908360048111156119be576119bd61290f565b5b0217905550905050600260003373ffffffffffffffffffffffffffffffffffffffff1673ffffffffffffffffffffffffffffffffffffffff16815260200190815260200160002082908060018154018082558091505060019003906000526020600020016000909190919091505581600360008373ffffffffffffffffffffffffffffffffffffffff1673ffffffffffffffffffffffffffffffffffffffff168152602001908152602001600020819055508073ffffffffffffffffffffffffffffffffffffffff163373ffffffffffffffffffffffffffffffffffffffff16837fbc9469fb44728a471ca853753deb18b5307747137fd8e80a94f038b63922733b8888604051611ad0929190613a6c565b60405180910390a4509392505050565b6000600360008373ffffffffffffffffffffffffffffffffffffffff1673ffffffffffffffffffffffffffffffffffffffff168152602001908152602001600020549050919050565b6000806004811115611b3e57611b3d61290f565b5b6001600084815260200190815260200160002060050160009054906101000a900460ff166004811115611b7457611b7361290f565b5b149050919050565b611b8582610d3e565b611b8e81612075565b611b988383612171565b505050565b7f000000000000000000000000000000000000000000000000000000000000000081565b60045481565b611bcf612540565b60016000838152602001908152602001600020604051806101000160405290816000820160009054906101000a900473ffffffffffffffffffffffffffffffffffffffff1673ffffffffffffffffffffffffffffffffffffffff1673ffffffffffffffffffffffffffffffffffffffff1681526020016001820160009054906101000a900473ffffffffffffffffffffffffffffffffffffffff1673ffffffffffffffffffffffffffffffffffffffff1673ffffffffffffffffffffffffffffffffffffffff1681526020016001820160149054906101000a900460ff161515151581526020016001820160159054906101000a900460ff161515151581526020016002820154815260200160038201548152602001600482015481526020016005820160009054906101000a900460ff166004811115611d1357611d1261290f565b5b6004811115611d2557611d2461290f565b5b815250509050919050565b3373ffffffffffffffffffffffffffffffffffffffff166001600083815260200190815260200160002060010160009054906101000a900473ffffffffffffffffffffffffffffffffffffffff1673ffffffffffffffffffffffffffffffffffffffff1614611dd4576040517f08c379a0000000000000000000000000000000000000000000000000000000008152600401611dcb90613122565b60405180910390fd5b60026004811115611de857611de761290f565b5b6001600083815260200190815260200160002060050160009054906101000a900460ff166004811115611e1e57611e1d61290f565b5b14611e5e576040517f08c379a0000000000000000000000000000000000000000000000000000000008152600401611e5590613aef565b60405180910390fd5b600180600083815260200190815260200160002060010160146101000a81548160ff02191690831515021790555060006001600083815260200190815260200160002060050160009054906101000a900460ff16905060036001600084815260200190815260200160002060050160006101000a81548160ff02191690836004811115611eee57611eed61290f565b5b0217905550817f15a4a29eccf92a0bbf94f24a6840487aa0226f7fb02d3402f1f86b3360bdfc6a826003604051611f269291906134fb565b60405180910390a25050565b6000801b611f3f81612075565b600073ffffffffffffffffffffffffffffffffffffffff168273ffffffffffffffffffffffffffffffffffffffff1603611fae576040517f08c379a0000000000000000000000000000000000000000000000000000000008152600401611fa590613b5b565b60405180910390fd5b81600560006101000a81548173ffffffffffffffffffffffffffffffffffffffff021916908373ffffffffffffffffffffffffffffffffffffffff1602179055505050565b60036020528060005260406000206000915090505481565b60007f01ffc9a7000000000000000000000000000000000000000000000000000000007bffffffffffffffffffffffffffffffffffffffffffffffffffffffff1916827bffffffffffffffffffffffffffffffffffffffffffffffffffffffff1916149050919050565b61208681612081612169565b612252565b50565b6120938282611627565b61216557600160008084815260200190815260200160002060000160008373ffffffffffffffffffffffffffffffffffffffff1673ffffffffffffffffffffffffffffffffffffffff16815260200190815260200160002060006101000a81548160ff02191690831515021790555061210a612169565b73ffffffffffffffffffffffffffffffffffffffff168173ffffffffffffffffffffffffffffffffffffffff16837f2f8788117e7eff1d82e926ec794901d17c78024a50270940304540a733656f0d60405160405180910390a45b5050565b600033905090565b61217b8282611627565b1561224e57600080600084815260200190815260200160002060000160008373ffffffffffffffffffffffffffffffffffffffff1673ffffffffffffffffffffffffffffffffffffffff16815260200190815260200160002060006101000a81548160ff0219169083151502179055506121f3612169565b73ffffffffffffffffffffffffffffffffffffffff168173ffffffffffffffffffffffffffffffffffffffff16837ff6391f5c32d9c69d2a47ea670b442974b53935d1edc7fd64eb21e047a839171b60405160405180910390a45b5050565b61225c8282611627565b6122d357612269816122d7565b6122778360001c6020612304565b604051602001612288929190613c4f565b6040516020818303038152906040526040517f08c379a00000000000000000000000000000000000000000000000000000000081526004016122ca9190613c89565b60405180910390fd5b5050565b60606122fd8273ffffffffffffffffffffffffffffffffffffffff16601460ff16612304565b9050919050565b606060006002836002612317919061338d565b6123219190613cab565b67ffffffffffffffff81111561233a57612339612ce2565b5b6040519080825280601f01601f19166020018201604052801561236c5781602001600182028036833780820191505090505b5090507f3000000000000000000000000000000000000000000000000000000000000000816000815181106123a4576123a3613cdf565b5b60200101907effffffffffffffffffffffffffffffffffffffffffffffffffffffffffffff1916908160001a9053507f78000000000000000000000000000000000000000000000000000000000000008160018151811061240857612407613cdf565b5b60200101907effffffffffffffffffffffffffffffffffffffffffffffffffffffffffffff1916908160001a90535060006001846002612448919061338d565b6124529190613cab565b90505b60018111156124f2577f3031323334353637383961626364656600000000000000000000000000000000600f86166010811061249457612493613cdf565b5b1a60f81b8282815181106124ab576124aa613cdf565b5b60200101907effffffffffffffffffffffffffffffffffffffffffffffffffffffffffffff1916908160001a905350600485901c9450806124eb90613d0e565b9050612455565b5060008414612536576040517f08c379a000000000000000000000000000000000000000000000000000000000815260040161252d90613d83565b60405180910390fd5b8091505092915050565b604051806101000160405280600073ffffffffffffffffffffffffffffffffffffffff168152602001600073ffffffffffffffffffffffffffffffffffffffff168152602001600015158152602001600015158152602001600081526020016000815260200160008152602001600060048111156125c1576125c061290f565b5b81525090565b6000604051905090565b600080fd5b600080fd5b60007fffffffff0000000000000000000000000000000000000000000000000000000082169050919050565b612610816125db565b811461261b57600080fd5b50565b60008135905061262d81612607565b92915050565b600060208284031215612649576126486125d1565b5b60006126578482850161261e565b91505092915050565b60008115159050919050565b61267581612660565b82525050565b6000602082019050612690600083018461266c565b92915050565b600073ffffffffffffffffffffffffffffffffffffffff82169050919050565b60006126c182612696565b9050919050565b6126d1816126b6565b81146126dc57600080fd5b50565b6000813590506126ee816126c8565b92915050565b60006020828403121561270a576127096125d1565b5b6000612718848285016126df565b91505092915050565b600081519050919050565b600082825260208201905092915050565b6000819050602082019050919050565b6000819050919050565b6127608161274d565b82525050565b60006127728383612757565b60208301905092915050565b6000602082019050919050565b600061279682612721565b6127a0818561272c565b93506127ab8361273d565b8060005b838110156127dc5781516127c38882612766565b97506127ce8361277e565b9250506001810190506127af565b5085935050505092915050565b60006020820190508181036000830152612803818461278b565b905092915050565b6128148161274d565b811461281f57600080fd5b50565b6000813590506128318161280b565b92915050565b60008060008060008060c08789031215612854576128536125d1565b5b600061286289828a01612822565b965050602061287389828a016126df565b955050604061288489828a01612822565b945050606061289589828a01612822565b93505060806128a689828a01612822565b92505060a06128b789828a01612822565b9150509295509295509295565b6000602082840312156128da576128d96125d1565b5b60006128e884828501612822565b91505092915050565b6128fa816126b6565b82525050565b6129098161274d565b82525050565b7f4e487b7100000000000000000000000000000000000000000000000000000000600052602160045260246000fd5b6005811061294f5761294e61290f565b5b50565b60008190506129608261293e565b919050565b600061297082612952565b9050919050565b61298081612965565b82525050565b60006101008201905061299c600083018b6128f1565b6129a9602083018a6128f1565b6129b6604083018961266c565b6129c3606083018861266c565b6129d06080830187612900565b6129dd60a0830186612900565b6129ea60c0830185612900565b6129f760e0830184612977565b9998505050505050505050565b6000819050919050565b612a1781612a04565b8114612a2257600080fd5b50565b600081359050612a3481612a0e565b92915050565b600060208284031215612a5057612a4f6125d1565b5b6000612a5e84828501612a25565b91505092915050565b612a7081612a04565b82525050565b6000602082019050612a8b6000830184612a67565b92915050565b60058110612a9e57600080fd5b50565b600081359050612ab081612a91565b92915050565b60008060408385031215612acd57612acc6125d1565b5b6000612adb85828601612822565b9250506020612aec85828601612aa1565b9150509250929050565b60008060408385031215612b0d57612b0c6125d1565b5b6000612b1b85828601612a25565b9250506020612b2c858286016126df565b9150509250929050565b6000819050919050565b6000612b5b612b56612b5184612696565b612b36565b612696565b9050919050565b6000612b6d82612b40565b9050919050565b6000612b7f82612b62565b9050919050565b612b8f81612b74565b82525050565b6000602082019050612baa6000830184612b86565b92915050565b6000602082019050612bc560008301846128f1565b92915050565b600060c082019050612be06000830189612977565b612bed602083018861266c565b612bfa6040830187612900565b612c07606083018661266c565b612c146080830185612900565b612c2160a0830184612900565b979650505050505050565b60008060408385031215612c4357612c426125d1565b5b6000612c5185828601612822565b9250506020612c6285828601612822565b9150509250929050565b60008060408385031215612c8357612c826125d1565b5b6000612c91858286016126df565b9250506020612ca285828601612822565b9150509250929050565b6000602082019050612cc16000830184612900565b92915050565b600080fd5b600080fd5b6000601f19601f8301169050919050565b7f4e487b7100000000000000000000000000000000000000000000000000000000600052604160045260246000fd5b612d1a82612cd1565b810181811067ffffffffffffffff82111715612d3957612d38612ce2565b5b80604052505050565b6000612d4c6125c7565b9050612d588282612d11565b919050565b600067ffffffffffffffff821115612d7857612d77612ce2565b5b612d8182612cd1565b9050602081019050919050565b82818337600083830152505050565b6000612db0612dab84612d5d565b612d42565b905082815260208101848484011115612dcc57612dcb612ccc565b5b612dd7848285612d8e565b509392505050565b600082601f830112612df457612df3612cc7565b5b8135612e04848260208601612d9d565b91505092915050565b600080fd5b600080fd5b600060a08284031215612e2d57612e2c612e0d565b5b612e3760a0612d42565b9050600082013567ffffffffffffffff811115612e5757612e56612e12565b5b612e6384828501612ddf565b600083015250602082013567ffffffffffffffff811115612e8757612e86612e12565b5b612e9384828501612ddf565b6020830152506040612ea784828501612822565b604083015250606082013567ffffffffffffffff811115612ecb57612eca612e12565b5b612ed784828501612ddf565b6060830152506080612eeb84828501612822565b60808301525092915050565b600080600060608486031215612f1057612f0f6125d1565b5b600084013567ffffffffffffffff811115612f2e57612f2d6125d6565b5b612f3a86828701612ddf565b935050602084013567ffffffffffffffff811115612f5b57612f5a6125d6565b5b612f6786828701612ddf565b925050604084013567ffffffffffffffff811115612f8857612f876125d6565b5b612f9486828701612e17565b9150509250925092565b6000612fa982612b62565b9050919050565b612fb981612f9e565b82525050565b6000602082019050612fd46000830184612fb0565b92915050565b612fe3816126b6565b82525050565b612ff281612660565b82525050565b61300181612965565b82525050565b6101008201600082015161301e6000850182612fda565b5060208201516130316020850182612fda565b5060408201516130446040850182612fe9565b5060608201516130576060850182612fe9565b50608082015161306a6080850182612757565b5060a082015161307d60a0850182612757565b5060c082015161309060c0850182612757565b5060e08201516130a360e0850182612ff8565b50505050565b6000610100820190506130bf6000830184613007565b92915050565b600082825260208201905092915050565b7f4e6f742070726f6a6563742063726561746f7200000000000000000000000000600082015250565b600061310c6013836130c5565b9150613117826130d6565b602082019050919050565b6000602082019050818103600083015261313b816130ff565b9050919050565b7f43434950206e6f7420636f6e6669677572656400000000000000000000000000600082015250565b60006131786013836130c5565b915061318382613142565b602082019050919050565b600060208201905081810360008301526131a78161316b565b9050919050565b7f496e76616c69642070726f6a6563742077616c6c657400000000000000000000600082015250565b60006131e46016836130c5565b91506131ef826131ae565b602082019050919050565b60006020820190508181036000830152613213816131d7565b9050919050565b7f5072696365207265717569726564000000000000000000000000000000000000600082015250565b6000613250600e836130c5565b915061325b8261321a565b602082019050919050565b6000602082019050818103600083015261327f81613243565b9050919050565b7f496e76616c696420616c6c6f636174696f6e0000000000000000000000000000600082015250565b60006132bc6012836130c5565b91506132c782613286565b602082019050919050565b600060208201905081810360008301526132eb816132af565b9050919050565b7f496e76616c6964207075726368617365206c696d697473000000000000000000600082015250565b60006133286017836130c5565b9150613333826132f2565b602082019050919050565b600060208201905081810360008301526133578161331b565b9050919050565b7f4e487b7100000000000000000000000000000000000000000000000000000000600052601160045260246000fd5b60006133988261274d565b91506133a38361274d565b92508282026133b18161274d565b915082820484148315176133c8576133c761335e565b5b5092915050565b7f4e487b7100000000000000000000000000000000000000000000000000000000600052601260045260246000fd5b60006134098261274d565b91506134148361274d565b925082613424576134236133cf565b5b828204905092915050565b600061343a8261274d565b91506134458361274d565b925082820390508181111561345d5761345c61335e565b5b92915050565b600060e082019050613478600083018a612900565b61348560208301896128f1565b61349260408301886128f1565b61349f6060830187612900565b6134ac6080830186612900565b6134b960a0830185612900565b6134c660c0830184612900565b98975050505050505050565b60006040820190506134e76000830185612900565b6134f46020830184612900565b9392505050565b60006040820190506135106000830185612977565b61351d6020830184612977565b9392505050565b7f416363657373436f6e74726f6c3a2063616e206f6e6c792072656e6f756e636560008201527f20726f6c657320666f722073656c660000000000000000000000000000000000602082015250565b6000613580602f836130c5565b915061358b82613524565b604082019050919050565b600060208201905081810360008301526135af81613573565b9050919050565b7f4e6f742061637469766500000000000000000000000000000000000000000000600082015250565b60006135ec600a836130c5565b91506135f7826135b6565b602082019050919050565b6000602082019050818103600083015261361b816135df565b9050919050565b7f496e76616c696420747265617375727900000000000000000000000000000000600082015250565b60006136586010836130c5565b915061366382613622565b602082019050919050565b600060208201905081810360008301526136878161364b565b9050919050565b7f496e76616c696420737461747573000000000000000000000000000000000000600082015250565b60006136c4600e836130c5565b91506136cf8261368e565b602082019050919050565b600060208201905081810360008301526136f3816136b7565b9050919050565b7f496e76616c696420746f74616c20737570706c79000000000000000000000000600082015250565b60006137306014836130c5565b915061373b826136fa565b602082019050919050565b6000602082019050818103600083015261375f81613723565b9050919050565b7f4e616d6520726571756972656400000000000000000000000000000000000000600082015250565b600061379c600d836130c5565b91506137a782613766565b602082019050919050565b600060208201905081810360008301526137cb8161378f565b9050919050565b7f53796d626f6c2072657175697265640000000000000000000000000000000000600082015250565b6000613808600f836130c5565b9150613813826137d2565b602082019050919050565b60006020820190508181036000830152613837816137fb565b9050919050565b60006138498261274d565b91507fffffffffffffffffffffffffffffffffffffffffffffffffffffffffffffffff820361387b5761387a61335e565b5b600182019050919050565b600081519050919050565b60005b838110156138af578082015181840152602081019050613894565b60008484015250505050565b60006138c682613886565b6138d081856130c5565b93506138e0818560208601613891565b6138e981612cd1565b840191505092915050565b600082825260208201905092915050565b600061391082613886565b61391a81856138f4565b935061392a818560208601613891565b61393381612cd1565b840191505092915050565b600060a083016000830151848203600086015261395b8282613905565b915050602083015184820360208601526139758282613905565b915050604083015161398a6040860182612757565b50606083015184820360608601526139a28282613905565b91505060808301516139b76080860182612757565b508091505092915050565b600060a0820190506139d76000830188612900565b81810360208301526139e981876138bb565b905081810360408301526139fd81866138bb565b90508181036060830152613a11818561393e565b9050613a2060808301846128f1565b9695505050505050565b600081519050613a39816126c8565b92915050565b600060208284031215613a5557613a546125d1565b5b6000613a6384828501613a2a565b91505092915050565b60006040820190508181036000830152613a8681856138bb565b90508181036020830152613a9a81846138bb565b90509392505050565b7f4e6f742072656769737465726564000000000000000000000000000000000000600082015250565b6000613ad9600e836130c5565b9150613ae482613aa3565b602082019050919050565b60006020820190508181036000830152613b0881613acc565b9050919050565b7f496e76616c69642066656520726563697069656e740000000000000000000000600082015250565b6000613b456015836130c5565b9150613b5082613b0f565b602082019050919050565b60006020820190508181036000830152613b7481613b38565b9050919050565b600081905092915050565b7f416363657373436f6e74726f6c3a206163636f756e7420000000000000000000600082015250565b6000613bbc601783613b7b565b9150613bc782613b86565b601782019050919050565b6000613bdd82613886565b613be78185613b7b565b9350613bf7818560208601613891565b80840191505092915050565b7f206973206d697373696e6720726f6c6520000000000000000000000000000000600082015250565b6000613c39601183613b7b565b9150613c4482613c03565b601182019050919050565b6000613c5a82613baf565b9150613c668285613bd2565b9150613c7182613c2c565b9150613c7d8284613bd2565b91508190509392505050565b60006020820190508181036000830152613ca381846138bb565b905092915050565b6000613cb68261274d565b9150613cc18361274d565b9250828201905080821115613cd957613cd861335e565b5b92915050565b7f4e487b7100000000000000000000000000000000000000000000000000000000600052603260045260246000fd5b6000613d198261274d565b915060008203613d2c57613d2b61335e565b5b600182039050919050565b7f537472696e67733a20686578206c656e67746820696e73756666696369656e74600082015250565b6000613d6d6020836130c5565b9150613d7882613d37565b602082019050919050565b60006020820190508181036000830152613d9c81613d60565b905091905056fea2646970667358221220cf822fbf86eaea59de3d1d2f7778f879f5e662a55aeb972833317b1e753a7ca064736f6c63430008180033",
        "linkReferences": {}
    },
    "methodIdentifiers": {
        "DEFAULT_ADMIN_ROLE()": "a217fddf",
        "activatePrimarySales(uint256)": "f1139ebe",
        "completePrimarySales(uint256)": "6ea2fa95",
        "createRWAToken(string,string,(string,string,uint256,string,uint256))": "abafcf6e",
        "creatorProjects(address,uint256)": "a0a3fbd7",
        "feeRecipient()": "46904840",
        "getCreatorProjects(address)": "0439e24d",
        "getProject(uint256)": "f0f3f2c8",
        "getProjectIdByToken(address)": "ade1c318",
        "getProjectStats(uint256)": "64ca28b5",
        "getRoleAdmin(bytes32)": "248a9ca3",
        "grantRole(bytes32,address)": "2f2ff15d",
        "hasRole(bytes32,address)": "91d14854",
        "isProjectInStatus(uint256,uint8)": "26812f8b",
        "isReadyForCCIP(uint256)": "bf2cb0d6",
        "isReadyForSalesRegistration(uint256)": "5f6e074f",
        "markCCIPConfigured(uint256,uint256)": "8f180976",
        "nextProjectId()": "e935b7b1",
        "pauseProject(uint256)": "0f717a63",
        "primaryDistribution()": "325bbf92",
        "projects(uint256)": "107046bd",
        "registerForPrimarySales(uint256,address,uint256,uint256,uint256,uint256)": "0ed7e6a6",
        "renounceRole(bytes32,address)": "36568abe",
        "revokeRole(bytes32,address)": "d547741f",
        "supportsInterface(bytes4)": "01ffc9a7",
        "tokenFactory()": "e77772fe",
        "tokenToProjectId(address)": "fdf6eec7",
        "treasury()": "61d027b3",
        "updateFeeRecipient(address)": "f160d369",
        "updateTreasury(address)": "7f51bb1f"
    },
    "id": 39
}