{
    "abi": [
        {
            "type": "constructor",
            "inputs": [
                {
                    "name": "name_",
                    "type": "string",
                    "internalType": "string"
                },
                {
                    "name": "symbol_",
                    "type": "string",
                    "internalType": "string"
                },
                {
                    "name": "metadata_",
                    "type": "tuple",
                    "internalType": "struct RWAToken.AssetMetadata",
                    "components": [
                        {
                            "name": "assetType",
                            "type": "string",
                            "internalType": "string"
                        },
                        {
                            "name": "description",
                            "type": "string",
                            "internalType": "string"
                        },
                        {
                            "name": "totalValue",
                            "type": "uint256",
                            "internalType": "uint256"
                        },
                        {
                            "name": "url",
                            "type": "string",
                            "internalType": "string"
                        },
                        {
                            "name": "createdAt",
                            "type": "uint256",
                            "internalType": "uint256"
                        }
                    ]
                },
                {
                    "name": "project_owner_",
                    "type": "address",
                    "internalType": "address"
                }
            ],
            "stateMutability": "nonpayable"
        },
        {
            "type": "function",
            "name": "BURNER_ROLE",
            "inputs": [],
            "outputs": [
                {
                    "name": "",
                    "type": "bytes32",
                    "internalType": "bytes32"
                }
            ],
            "stateMutability": "view"
        },
        {
            "type": "function",
            "name": "DEFAULT_ADMIN_ROLE",
            "inputs": [],
            "outputs": [
                {
                    "name": "",
                    "type": "bytes32",
                    "internalType": "bytes32"
                }
            ],
            "stateMutability": "view"
        },
        {
            "type": "function",
            "name": "MINTER_ROLE",
            "inputs": [],
            "outputs": [
                {
                    "name": "",
                    "type": "bytes32",
                    "internalType": "bytes32"
                }
            ],
            "stateMutability": "view"
        },
        {
            "type": "function",
            "name": "allowance",
            "inputs": [
                {
                    "name": "owner",
                    "type": "address",
                    "internalType": "address"
                },
                {
                    "name": "spender",
                    "type": "address",
                    "internalType": "address"
                }
            ],
            "outputs": [
                {
                    "name": "",
                    "type": "uint256",
                    "internalType": "uint256"
                }
            ],
            "stateMutability": "view"
        },
        {
            "type": "function",
            "name": "approve",
            "inputs": [
                {
                    "name": "spender",
                    "type": "address",
                    "internalType": "address"
                },
                {
                    "name": "amount",
                    "type": "uint256",
                    "internalType": "uint256"
                }
            ],
            "outputs": [
                {
                    "name": "",
                    "type": "bool",
                    "internalType": "bool"
                }
            ],
            "stateMutability": "nonpayable"
        },
        {
            "type": "function",
            "name": "assetData",
            "inputs": [],
            "outputs": [
                {
                    "name": "assetType",
                    "type": "string",
                    "internalType": "string"
                },
                {
                    "name": "description",
                    "type": "string",
                    "internalType": "string"
                },
                {
                    "name": "totalValue",
                    "type": "uint256",
                    "internalType": "uint256"
                },
                {
                    "name": "url",
                    "type": "string",
                    "internalType": "string"
                },
                {
                    "name": "createdAt",
                    "type": "uint256",
                    "internalType": "uint256"
                }
            ],
            "stateMutability": "view"
        },
        {
            "type": "function",
            "name": "balanceOf",
            "inputs": [
                {
                    "name": "account",
                    "type": "address",
                    "internalType": "address"
                }
            ],
            "outputs": [
                {
                    "name": "",
                    "type": "uint256",
                    "internalType": "uint256"
                }
            ],
            "stateMutability": "view"
        },
        {
            "type": "function",
            "name": "burn",
            "inputs": [
                {
                    "name": "amount",
                    "type": "uint256",
                    "internalType": "uint256"
                }
            ],
            "outputs": [],
            "stateMutability": "nonpayable"
        },
        {
            "type": "function",
            "name": "burn",
            "inputs": [
                {
                    "name": "account",
                    "type": "address",
                    "internalType": "address"
                },
                {
                    "name": "amount",
                    "type": "uint256",
                    "internalType": "uint256"
                }
            ],
            "outputs": [],
            "stateMutability": "nonpayable"
        },
        {
            "type": "function",
            "name": "burnFrom",
            "inputs": [
                {
                    "name": "account",
                    "type": "address",
                    "internalType": "address"
                },
                {
                    "name": "amount",
                    "type": "uint256",
                    "internalType": "uint256"
                }
            ],
            "outputs": [],
            "stateMutability": "nonpayable"
        },
        {
            "type": "function",
            "name": "decimals",
            "inputs": [],
            "outputs": [
                {
                    "name": "",
                    "type": "uint8",
                    "internalType": "uint8"
                }
            ],
            "stateMutability": "view"
        },
        {
            "type": "function",
            "name": "decreaseAllowance",
            "inputs": [
                {
                    "name": "spender",
                    "type": "address",
                    "internalType": "address"
                },
                {
                    "name": "subtractedValue",
                    "type": "uint256",
                    "internalType": "uint256"
                }
            ],
            "outputs": [
                {
                    "name": "",
                    "type": "bool",
                    "internalType": "bool"
                }
            ],
            "stateMutability": "nonpayable"
        },
        {
            "type": "function",
            "name": "getCCIPAdmin",
            "inputs": [],
            "outputs": [
                {
                    "name": "",
                    "type": "address",
                    "internalType": "address"
                }
            ],
            "stateMutability": "view"
        },
        {
            "type": "function",
            "name": "getMarketCap",
            "inputs": [],
            "outputs": [
                {
                    "name": "",
                    "type": "uint256",
                    "internalType": "uint256"
                }
            ],
            "stateMutability": "view"
        },
        {
            "type": "function",
            "name": "getPricePerToken",
            "inputs": [],
            "outputs": [
                {
                    "name": "",
                    "type": "uint256",
                    "internalType": "uint256"
                }
            ],
            "stateMutability": "view"
        },
        {
            "type": "function",
            "name": "getRoleAdmin",
            "inputs": [
                {
                    "name": "role",
                    "type": "bytes32",
                    "internalType": "bytes32"
                }
            ],
            "outputs": [
                {
                    "name": "",
                    "type": "bytes32",
                    "internalType": "bytes32"
                }
            ],
            "stateMutability": "view"
        },
        {
            "type": "function",
            "name": "grantRole",
            "inputs": [
                {
                    "name": "role",
                    "type": "bytes32",
                    "internalType": "bytes32"
                },
                {
                    "name": "account",
                    "type": "address",
                    "internalType": "address"
                }
            ],
            "outputs": [],
            "stateMutability": "nonpayable"
        },
        {
            "type": "function",
            "name": "hasRole",
            "inputs": [
                {
                    "name": "role",
                    "type": "bytes32",
                    "internalType": "bytes32"
                },
                {
                    "name": "account",
                    "type": "address",
                    "internalType": "address"
                }
            ],
            "outputs": [
                {
                    "name": "",
                    "type": "bool",
                    "internalType": "bool"
                }
            ],
            "stateMutability": "view"
        },
        {
            "type": "function",
            "name": "increaseAllowance",
            "inputs": [
                {
                    "name": "spender",
                    "type": "address",
                    "internalType": "address"
                },
                {
                    "name": "addedValue",
                    "type": "uint256",
                    "internalType": "uint256"
                }
            ],
            "outputs": [
                {
                    "name": "",
                    "type": "bool",
                    "internalType": "bool"
                }
            ],
            "stateMutability": "nonpayable"
        },
        {
            "type": "function",
            "name": "mint",
            "inputs": [
                {
                    "name": "account",
                    "type": "address",
                    "internalType": "address"
                },
                {
                    "name": "amount",
                    "type": "uint256",
                    "internalType": "uint256"
                }
            ],
            "outputs": [],
            "stateMutability": "nonpayable"
        },
        {
            "type": "function",
            "name": "name",
            "inputs": [],
            "outputs": [
                {
                    "name": "",
                    "type": "string",
                    "internalType": "string"
                }
            ],
            "stateMutability": "view"
        },
        {
            "type": "function",
            "name": "renounceRole",
            "inputs": [
                {
                    "name": "role",
                    "type": "bytes32",
                    "internalType": "bytes32"
                },
                {
                    "name": "account",
                    "type": "address",
                    "internalType": "address"
                }
            ],
            "outputs": [],
            "stateMutability": "nonpayable"
        },
        {
            "type": "function",
            "name": "revokeRole",
            "inputs": [
                {
                    "name": "role",
                    "type": "bytes32",
                    "internalType": "bytes32"
                },
                {
                    "name": "account",
                    "type": "address",
                    "internalType": "address"
                }
            ],
            "outputs": [],
            "stateMutability": "nonpayable"
        },
        {
            "type": "function",
            "name": "supportsInterface",
            "inputs": [
                {
                    "name": "interfaceId",
                    "type": "bytes4",
                    "internalType": "bytes4"
                }
            ],
            "outputs": [
                {
                    "name": "",
                    "type": "bool",
                    "internalType": "bool"
                }
            ],
            "stateMutability": "view"
        },
        {
            "type": "function",
            "name": "symbol",
            "inputs": [],
            "outputs": [
                {
                    "name": "",
                    "type": "string",
                    "internalType": "string"
                }
            ],
            "stateMutability": "view"
        },
        {
            "type": "function",
            "name": "totalSupply",
            "inputs": [],
            "outputs": [
                {
                    "name": "",
                    "type": "uint256",
                    "internalType": "uint256"
                }
            ],
            "stateMutability": "view"
        },
        {
            "type": "function",
            "name": "transfer",
            "inputs": [
                {
                    "name": "to",
                    "type": "address",
                    "internalType": "address"
                },
                {
                    "name": "amount",
                    "type": "uint256",
                    "internalType": "uint256"
                }
            ],
            "outputs": [
                {
                    "name": "",
                    "type": "bool",
                    "internalType": "bool"
                }
            ],
            "stateMutability": "nonpayable"
        },
        {
            "type": "function",
            "name": "transferFrom",
            "inputs": [
                {
                    "name": "from",
                    "type": "address",
                    "internalType": "address"
                },
                {
                    "name": "to",
                    "type": "address",
                    "internalType": "address"
                },
                {
                    "name": "amount",
                    "type": "uint256",
                    "internalType": "uint256"
                }
            ],
            "outputs": [
                {
                    "name": "",
                    "type": "bool",
                    "internalType": "bool"
                }
            ],
            "stateMutability": "nonpayable"
        },
        {
            "type": "function",
            "name": "updateAssetMetadata",
            "inputs": [
                {
                    "name": "newMetadata",
                    "type": "tuple",
                    "internalType": "struct RWAToken.AssetMetadata",
                    "components": [
                        {
                            "name": "assetType",
                            "type": "string",
                            "internalType": "string"
                        },
                        {
                            "name": "description",
                            "type": "string",
                            "internalType": "string"
                        },
                        {
                            "name": "totalValue",
                            "type": "uint256",
                            "internalType": "uint256"
                        },
                        {
                            "name": "url",
                            "type": "string",
                            "internalType": "string"
                        },
                        {
                            "name": "createdAt",
                            "type": "uint256",
                            "internalType": "uint256"
                        }
                    ]
                }
            ],
            "outputs": [],
            "stateMutability": "nonpayable"
        },
        {
            "type": "event",
            "name": "Approval",
            "inputs": [
                {
                    "name": "owner",
                    "type": "address",
                    "indexed": true,
                    "internalType": "address"
                },
                {
                    "name": "spender",
                    "type": "address",
                    "indexed": true,
                    "internalType": "address"
                },
                {
                    "name": "value",
                    "type": "uint256",
                    "indexed": false,
                    "internalType": "uint256"
                }
            ],
            "anonymous": false
        },
        {
            "type": "event",
            "name": "AssetMetadataUpdated",
            "inputs": [
                {
                    "name": "assetType",
                    "type": "string",
                    "indexed": false,
                    "internalType": "string"
                },
                {
                    "name": "description",
                    "type": "string",
                    "indexed": false,
                    "internalType": "string"
                },
                {
                    "name": "totalValue",
                    "type": "uint256",
                    "indexed": false,
                    "internalType": "uint256"
                },
                {
                    "name": "url",
                    "type": "string",
                    "indexed": false,
                    "internalType": "string"
                }
            ],
            "anonymous": false
        },
        {
            "type": "event",
            "name": "RoleAdminChanged",
            "inputs": [
                {
                    "name": "role",
                    "type": "bytes32",
                    "indexed": true,
                    "internalType": "bytes32"
                },
                {
                    "name": "previousAdminRole",
                    "type": "bytes32",
                    "indexed": true,
                    "internalType": "bytes32"
                },
                {
                    "name": "newAdminRole",
                    "type": "bytes32",
                    "indexed": true,
                    "internalType": "bytes32"
                }
            ],
            "anonymous": false
        },
        {
            "type": "event",
            "name": "RoleGranted",
            "inputs": [
                {
                    "name": "role",
                    "type": "bytes32",
                    "indexed": true,
                    "internalType": "bytes32"
                },
                {
                    "name": "account",
                    "type": "address",
                    "indexed": true,
                    "internalType": "address"
                },
                {
                    "name": "sender",
                    "type": "address",
                    "indexed": true,
                    "internalType": "address"
                }
            ],
            "anonymous": false
        },
        {
            "type": "event",
            "name": "RoleRevoked",
            "inputs": [
                {
                    "name": "role",
                    "type": "bytes32",
                    "indexed": true,
                    "internalType": "bytes32"
                },
                {
                    "name": "account",
                    "type": "address",
                    "indexed": true,
                    "internalType": "address"
                },
                {
                    "name": "sender",
                    "type": "address",
                    "indexed": true,
                    "internalType": "address"
                }
            ],
            "anonymous": false
        },
        {
            "type": "event",
            "name": "Transfer",
            "inputs": [
                {
                    "name": "from",
                    "type": "address",
                    "indexed": true,
                    "internalType": "address"
                },
                {
                    "name": "to",
                    "type": "address",
                    "indexed": true,
                    "internalType": "address"
                },
                {
                    "name": "value",
                    "type": "uint256",
                    "indexed": false,
                    "internalType": "uint256"
                }
            ],
            "anonymous": false
        },
        {
            "type": "error",
            "name": "InvalidAssetType",
            "inputs": []
        },
        {
            "type": "error",
            "name": "InvalidTotalValue",
            "inputs": []
        }
    ],
    "bytecode": {
        "object": "0x60a06040523480156200001157600080fd5b5060405162003afe38038062003afe83398181016040528101906200003791906200069b565b838381600390816200004a9190620009ab565b5080600490816200005c9190620009ab565b5050506000826000015151036200009f576040517f23654b5600000000000000000000000000000000000000000000000000000000815260040160405180910390fd5b6000826040015103620000de576040517f0b6c59be00000000000000000000000000000000000000000000000000000000815260040160405180910390fd5b8160066000820151816000019081620000f89190620009ab565b506020820151816001019081620001109190620009ab565b50604082015181600201556060820151816003019081620001329190620009ab565b5060808201518160040155905050426006600401819055506200015f6000801b826200020160201b60201c565b620001917f9f2df0fed2c77648de5860a4cc508cd0818c85b8b8a1ab4ceeef8d981c8956a6826200020160201b60201c565b620001c37f3c11d16cbaffd01df69ce1c404f6340ee057498f5f00246190ea54220576a848826200020160201b60201c565b8073ffffffffffffffffffffffffffffffffffffffff1660808173ffffffffffffffffffffffffffffffffffffffff16815250505050505062000a92565b620002138282620002f360201b60201c565b620002ef5760016005600084815260200190815260200160002060000160008373ffffffffffffffffffffffffffffffffffffffff1673ffffffffffffffffffffffffffffffffffffffff16815260200190815260200160002060006101000a81548160ff021916908315150217905550620002946200035e60201b60201c565b73ffffffffffffffffffffffffffffffffffffffff168173ffffffffffffffffffffffffffffffffffffffff16837f2f8788117e7eff1d82e926ec794901d17c78024a50270940304540a733656f0d60405160405180910390a45b5050565b60006005600084815260200190815260200160002060000160008373ffffffffffffffffffffffffffffffffffffffff1673ffffffffffffffffffffffffffffffffffffffff16815260200190815260200160002060009054906101000a900460ff16905092915050565b600033905090565b6000604051905090565b600080fd5b600080fd5b600080fd5b600080fd5b6000601f19601f8301169050919050565b7f4e487b7100000000000000000000000000000000000000000000000000000000600052604160045260246000fd5b620003cf8262000384565b810181811067ffffffffffffffff82111715620003f157620003f062000395565b5b80604052505050565b60006200040662000366565b9050620004148282620003c4565b919050565b600067ffffffffffffffff82111562000437576200043662000395565b5b620004428262000384565b9050602081019050919050565b60005b838110156200046f57808201518184015260208101905062000452565b60008484015250505050565b6000620004926200048c8462000419565b620003fa565b905082815260208101848484011115620004b157620004b06200037f565b5b620004be8482856200044f565b509392505050565b600082601f830112620004de57620004dd6200037a565b5b8151620004f08482602086016200047b565b91505092915050565b600080fd5b600080fd5b6000819050919050565b620005188162000503565b81146200052457600080fd5b50565b60008151905062000538816200050d565b92915050565b600060a08284031215620005575762000556620004f9565b5b6200056360a0620003fa565b9050600082015167ffffffffffffffff811115620005865762000585620004fe565b5b6200059484828501620004c6565b600083015250602082015167ffffffffffffffff811115620005bb57620005ba620004fe565b5b620005c984828501620004c6565b6020830152506040620005df8482850162000527565b604083015250606082015167ffffffffffffffff811115620006065762000605620004fe565b5b6200061484828501620004c6565b60608301525060806200062a8482850162000527565b60808301525092915050565b600073ffffffffffffffffffffffffffffffffffffffff82169050919050565b6000620006638262000636565b9050919050565b620006758162000656565b81146200068157600080fd5b50565b60008151905062000695816200066a565b92915050565b60008060008060808587031215620006b857620006b762000370565b5b600085015167ffffffffffffffff811115620006d957620006d862000375565b5b620006e787828801620004c6565b945050602085015167ffffffffffffffff8111156200070b576200070a62000375565b5b6200071987828801620004c6565b935050604085015167ffffffffffffffff8111156200073d576200073c62000375565b5b6200074b878288016200053e565b92505060606200075e8782880162000684565b91505092959194509250565b600081519050919050565b7f4e487b7100000000000000000000000000000000000000000000000000000000600052602260045260246000fd5b60006002820490506001821680620007bd57607f821691505b602082108103620007d357620007d262000775565b5b50919050565b60008190508160005260206000209050919050565b60006020601f8301049050919050565b600082821b905092915050565b6000600883026200083d7fffffffffffffffffffffffffffffffffffffffffffffffffffffffffffffffff82620007fe565b620008498683620007fe565b95508019841693508086168417925050509392505050565b6000819050919050565b60006200088c62000886620008808462000503565b62000861565b62000503565b9050919050565b6000819050919050565b620008a8836200086b565b620008c0620008b78262000893565b8484546200080b565b825550505050565b600090565b620008d7620008c8565b620008e48184846200089d565b505050565b5b818110156200090c5762000900600082620008cd565b600181019050620008ea565b5050565b601f8211156200095b576200092581620007d9565b6200093084620007ee565b8101602085101562000940578190505b620009586200094f85620007ee565b830182620008e9565b50505b505050565b600082821c905092915050565b6000620009806000198460080262000960565b1980831691505092915050565b60006200099b83836200096d565b9150826002028217905092915050565b620009b6826200076a565b67ffffffffffffffff811115620009d257620009d162000395565b5b620009de8254620007a4565b620009eb82828562000910565b600060209050601f83116001811462000a23576000841562000a0e578287015190505b62000a1a85826200098d565b86555062000a8a565b601f19841662000a3386620007d9565b60005b8281101562000a5d5784890151825560018201915060208501945060208101905062000a36565b8683101562000a7d578489015162000a79601f8916826200096d565b8355505b6001600288020188555050505b505050505050565b60805161305062000aae6000396000610c5101526130506000f3fe608060405234801561001057600080fd5b50600436106101cf5760003560e01c806370a08231116101045780639dc29fac116100a2578063ca1e973811610071578063ca1e97381461055a578063d539139314610578578063d547741f14610596578063dd62ed3e146105b2576101cf565b80639dc29fac146104c0578063a217fddf146104dc578063a457c2d7146104fa578063a9059cbb1461052a576101cf565b80638fd6a6ac116100de5780638fd6a6ac1461043657806390825c281461045457806391d148541461047257806395d89b41146104a2576101cf565b806370a08231146103c857806379cc6790146103f85780638d44935814610414576101cf565b8063282c51f31161017157806336568abe1161014b57806336568abe14610344578063395093511461036057806340c10f191461039057806342966c68146103ac576101cf565b8063282c51f3146102ec5780632f2ff15d1461030a578063313ce56714610326576101cf565b806318160ddd116101ad57806318160ddd146102525780631fc6ee151461027057806323b872dd1461028c578063248a9ca3146102bc576101cf565b806301ffc9a7146101d457806306fdde0314610204578063095ea7b314610222575b600080fd5b6101ee60048036038101906101e99190611d13565b6105e2565b6040516101fb9190611d5b565b60405180910390f35b61020c61065c565b6040516102199190611e06565b60405180910390f35b61023c60048036038101906102379190611ebc565b6106ee565b6040516102499190611d5b565b60405180910390f35b61025a610711565b6040516102679190611f0b565b60405180910390f35b61028a60048036038101906102859190612145565b61071b565b005b6102a660048036038101906102a1919061218e565b610849565b6040516102b39190611d5b565b60405180910390f35b6102d660048036038101906102d19190612217565b610878565b6040516102e39190612253565b60405180910390f35b6102f4610898565b6040516103019190612253565b60405180910390f35b610324600480360381019061031f919061226e565b6108bc565b005b61032e6108dd565b60405161033b91906122ca565b60405180910390f35b61035e6004803603810190610359919061226e565b6108e6565b005b61037a60048036038101906103759190611ebc565b610969565b6040516103879190611d5b565b60405180910390f35b6103aa60048036038101906103a59190611ebc565b6109a0565b005b6103c660048036038101906103c191906122e5565b6109d9565b005b6103e260048036038101906103dd9190612312565b610a10565b6040516103ef9190611f0b565b60405180910390f35b610412600480360381019061040d9190611ebc565b610a58565b005b61041c610a91565b60405161042d95949392919061233f565b60405180910390f35b61043e610c4d565b60405161044b91906123b6565b60405180910390f35b61045c610c75565b6040516104699190611f0b565b60405180910390f35b61048c6004803603810190610487919061226e565b610c82565b6040516104999190611d5b565b60405180910390f35b6104aa610ced565b6040516104b79190611e06565b60405180910390f35b6104da60048036038101906104d59190611ebc565b610d7f565b005b6104e4610d8d565b6040516104f19190612253565b60405180910390f35b610514600480360381019061050f9190611ebc565b610d94565b6040516105219190611d5b565b60405180910390f35b610544600480360381019061053f9190611ebc565b610e0b565b6040516105519190611d5b565b60405180910390f35b610562610e2e565b60405161056f9190611f0b565b60405180910390f35b610580610e78565b60405161058d9190612253565b60405180910390f35b6105b060048036038101906105ab919061226e565b610e9c565b005b6105cc60048036038101906105c791906123d1565b610ebd565b6040516105d99190611f0b565b60405180910390f35b60007f7965db0b000000000000000000000000000000000000000000000000000000007bffffffffffffffffffffffffffffffffffffffffffffffffffffffff1916827bffffffffffffffffffffffffffffffffffffffffffffffffffffffff19161480610655575061065482610f44565b5b9050919050565b60606003805461066b90612440565b80601f016020809104026020016040519081016040528092919081815260200182805461069790612440565b80156106e45780601f106106b9576101008083540402835291602001916106e4565b820191906000526020600020905b8154815290600101906020018083116106c757829003601f168201915b5050505050905090565b6000806106f9610fae565b9050610706818585610fb6565b600191505092915050565b6000600254905090565b6000801b6107288161117f565b600082600001515103610767576040517f23654b5600000000000000000000000000000000000000000000000000000000815260040160405180910390fd5b60008260400151036107a5576040517f0b6c59be00000000000000000000000000000000000000000000000000000000815260040160405180910390fd5b8160000151600660000190816107bb919061261d565b508160200151600660010190816107d2919061261d565b5081604001516006600201819055508160600151600660030190816107f7919061261d565b507f5285f966c73db031bcea326eea65c0e9d652add81c28b62abebbea8094b31d4b826000015183602001518460400151856060015160405161083d94939291906126ef565b60405180910390a15050565b600080610854610fae565b9050610861858285611193565b61086c85858561121f565b60019150509392505050565b600060056000838152602001908152602001600020600101549050919050565b7f3c11d16cbaffd01df69ce1c404f6340ee057498f5f00246190ea54220576a84881565b6108c582610878565b6108ce8161117f565b6108d88383611495565b505050565b60006012905090565b6108ee610fae565b73ffffffffffffffffffffffffffffffffffffffff168173ffffffffffffffffffffffffffffffffffffffff161461095b576040517f08c379a0000000000000000000000000000000000000000000000000000000008152600401610952906127bb565b60405180910390fd5b6109658282611576565b5050565b600080610974610fae565b90506109958185856109868589610ebd565b610990919061280a565b610fb6565b600191505092915050565b7f9f2df0fed2c77648de5860a4cc508cd0818c85b8b8a1ab4ceeef8d981c8956a66109ca8161117f565b6109d48383611658565b505050565b7f3c11d16cbaffd01df69ce1c404f6340ee057498f5f00246190ea54220576a848610a038161117f565b610a0c826117ae565b5050565b60008060008373ffffffffffffffffffffffffffffffffffffffff1673ffffffffffffffffffffffffffffffffffffffff168152602001908152602001600020549050919050565b7f3c11d16cbaffd01df69ce1c404f6340ee057498f5f00246190ea54220576a848610a828161117f565b610a8c83836117c2565b505050565b6006806000018054610aa290612440565b80601f0160208091040260200160405190810160405280929190818152602001828054610ace90612440565b8015610b1b5780601f10610af057610100808354040283529160200191610b1b565b820191906000526020600020905b815481529060010190602001808311610afe57829003601f168201915b505050505090806001018054610b3090612440565b80601f0160208091040260200160405190810160405280929190818152602001828054610b5c90612440565b8015610ba95780601f10610b7e57610100808354040283529160200191610ba9565b820191906000526020600020905b815481529060010190602001808311610b8c57829003601f168201915b505050505090806002015490806003018054610bc490612440565b80601f0160208091040260200160405190810160405280929190818152602001828054610bf090612440565b8015610c3d5780601f10610c1257610100808354040283529160200191610c3d565b820191906000526020600020905b815481529060010190602001808311610c2057829003601f168201915b5050505050908060040154905085565b60007f0000000000000000000000000000000000000000000000000000000000000000905090565b6000600660020154905090565b60006005600084815260200190815260200160002060000160008373ffffffffffffffffffffffffffffffffffffffff1673ffffffffffffffffffffffffffffffffffffffff16815260200190815260200160002060009054906101000a900460ff16905092915050565b606060048054610cfc90612440565b80601f0160208091040260200160405190810160405280929190818152602001828054610d2890612440565b8015610d755780601f10610d4a57610100808354040283529160200191610d75565b820191906000526020600020905b815481529060010190602001808311610d5857829003601f168201915b5050505050905090565b610d898282610a58565b5050565b6000801b81565b600080610d9f610fae565b90506000610dad8286610ebd565b905083811015610df2576040517f08c379a0000000000000000000000000000000000000000000000000000000008152600401610de9906128b0565b60405180910390fd5b610dff8286868403610fb6565b60019250505092915050565b600080610e16610fae565b9050610e2381858561121f565b600191505092915050565b600080610e39610711565b03610e475760009050610e75565b610e4f610711565b670de0b6b3a7640000600660020154610e6891906128d0565b610e729190612941565b90505b90565b7f9f2df0fed2c77648de5860a4cc508cd0818c85b8b8a1ab4ceeef8d981c8956a681565b610ea582610878565b610eae8161117f565b610eb88383611576565b505050565b6000600160008473ffffffffffffffffffffffffffffffffffffffff1673ffffffffffffffffffffffffffffffffffffffff16815260200190815260200160002060008373ffffffffffffffffffffffffffffffffffffffff1673ffffffffffffffffffffffffffffffffffffffff16815260200190815260200160002054905092915050565b60007f01ffc9a7000000000000000000000000000000000000000000000000000000007bffffffffffffffffffffffffffffffffffffffffffffffffffffffff1916827bffffffffffffffffffffffffffffffffffffffffffffffffffffffff1916149050919050565b600033905090565b600073ffffffffffffffffffffffffffffffffffffffff168373ffffffffffffffffffffffffffffffffffffffff1603611025576040517f08c379a000000000000000000000000000000000000000000000000000000000815260040161101c906129e4565b60405180910390fd5b600073ffffffffffffffffffffffffffffffffffffffff168273ffffffffffffffffffffffffffffffffffffffff1603611094576040517f08c379a000000000000000000000000000000000000000000000000000000000815260040161108b90612a76565b60405180910390fd5b80600160008573ffffffffffffffffffffffffffffffffffffffff1673ffffffffffffffffffffffffffffffffffffffff16815260200190815260200160002060008473ffffffffffffffffffffffffffffffffffffffff1673ffffffffffffffffffffffffffffffffffffffff168152602001908152602001600020819055508173ffffffffffffffffffffffffffffffffffffffff168373ffffffffffffffffffffffffffffffffffffffff167f8c5be1e5ebec7d5bd14f71427d1e84f3dd0314c0f7b2291e5b200ac8c7c3b925836040516111729190611f0b565b60405180910390a3505050565b6111908161118b610fae565b6117e2565b50565b600061119f8484610ebd565b90507fffffffffffffffffffffffffffffffffffffffffffffffffffffffffffffffff8114611219578181101561120b576040517f08c379a000000000000000000000000000000000000000000000000000000000815260040161120290612ae2565b60405180910390fd5b6112188484848403610fb6565b5b50505050565b600073ffffffffffffffffffffffffffffffffffffffff168373ffffffffffffffffffffffffffffffffffffffff160361128e576040517f08c379a000000000000000000000000000000000000000000000000000000000815260040161128590612b74565b60405180910390fd5b600073ffffffffffffffffffffffffffffffffffffffff168273ffffffffffffffffffffffffffffffffffffffff16036112fd576040517f08c379a00000000000000000000000000000000000000000000000000000000081526004016112f490612c06565b60405180910390fd5b611308838383611867565b60008060008573ffffffffffffffffffffffffffffffffffffffff1673ffffffffffffffffffffffffffffffffffffffff1681526020019081526020016000205490508181101561138e576040517f08c379a000000000000000000000000000000000000000000000000000000000815260040161138590612c98565b60405180910390fd5b8181036000808673ffffffffffffffffffffffffffffffffffffffff1673ffffffffffffffffffffffffffffffffffffffff16815260200190815260200160002081905550816000808573ffffffffffffffffffffffffffffffffffffffff1673ffffffffffffffffffffffffffffffffffffffff168152602001908152602001600020600082825401925050819055508273ffffffffffffffffffffffffffffffffffffffff168473ffffffffffffffffffffffffffffffffffffffff167fddf252ad1be2c89b69c2b068fc378daa952ba7f163c4a11628f55a4df523b3ef8460405161147c9190611f0b565b60405180910390a361148f84848461186c565b50505050565b61149f8282610c82565b6115725760016005600084815260200190815260200160002060000160008373ffffffffffffffffffffffffffffffffffffffff1673ffffffffffffffffffffffffffffffffffffffff16815260200190815260200160002060006101000a81548160ff021916908315150217905550611517610fae565b73ffffffffffffffffffffffffffffffffffffffff168173ffffffffffffffffffffffffffffffffffffffff16837f2f8788117e7eff1d82e926ec794901d17c78024a50270940304540a733656f0d60405160405180910390a45b5050565b6115808282610c82565b156116545760006005600084815260200190815260200160002060000160008373ffffffffffffffffffffffffffffffffffffffff1673ffffffffffffffffffffffffffffffffffffffff16815260200190815260200160002060006101000a81548160ff0219169083151502179055506115f9610fae565b73ffffffffffffffffffffffffffffffffffffffff168173ffffffffffffffffffffffffffffffffffffffff16837ff6391f5c32d9c69d2a47ea670b442974b53935d1edc7fd64eb21e047a839171b60405160405180910390a45b5050565b600073ffffffffffffffffffffffffffffffffffffffff168273ffffffffffffffffffffffffffffffffffffffff16036116c7576040517f08c379a00000000000000000000000000000000000000000000000000000000081526004016116be90612d04565b60405180910390fd5b6116d360008383611867565b80600260008282546116e5919061280a565b92505081905550806000808473ffffffffffffffffffffffffffffffffffffffff1673ffffffffffffffffffffffffffffffffffffffff168152602001908152602001600020600082825401925050819055508173ffffffffffffffffffffffffffffffffffffffff16600073ffffffffffffffffffffffffffffffffffffffff167fddf252ad1be2c89b69c2b068fc378daa952ba7f163c4a11628f55a4df523b3ef836040516117969190611f0b565b60405180910390a36117aa6000838361186c565b5050565b6117bf6117b9610fae565b82611871565b50565b6117d4826117ce610fae565b83611193565b6117de8282611871565b5050565b6117ec8282610c82565b611863576117f981611a3e565b6118078360001c6020611a6b565b604051602001611818929190612df8565b6040516020818303038152906040526040517f08c379a000000000000000000000000000000000000000000000000000000000815260040161185a9190611e06565b60405180910390fd5b5050565b505050565b505050565b600073ffffffffffffffffffffffffffffffffffffffff168273ffffffffffffffffffffffffffffffffffffffff16036118e0576040517f08c379a00000000000000000000000000000000000000000000000000000000081526004016118d790612ea4565b60405180910390fd5b6118ec82600083611867565b60008060008473ffffffffffffffffffffffffffffffffffffffff1673ffffffffffffffffffffffffffffffffffffffff16815260200190815260200160002054905081811015611972576040517f08c379a000000000000000000000000000000000000000000000000000000000815260040161196990612f36565b60405180910390fd5b8181036000808573ffffffffffffffffffffffffffffffffffffffff1673ffffffffffffffffffffffffffffffffffffffff1681526020019081526020016000208190555081600260008282540392505081905550600073ffffffffffffffffffffffffffffffffffffffff168373ffffffffffffffffffffffffffffffffffffffff167fddf252ad1be2c89b69c2b068fc378daa952ba7f163c4a11628f55a4df523b3ef84604051611a259190611f0b565b60405180910390a3611a398360008461186c565b505050565b6060611a648273ffffffffffffffffffffffffffffffffffffffff16601460ff16611a6b565b9050919050565b606060006002836002611a7e91906128d0565b611a88919061280a565b67ffffffffffffffff811115611aa157611aa0611f2b565b5b6040519080825280601f01601f191660200182016040528015611ad35781602001600182028036833780820191505090505b5090507f300000000000000000000000000000000000000000000000000000000000000081600081518110611b0b57611b0a612f56565b5b60200101907effffffffffffffffffffffffffffffffffffffffffffffffffffffffffffff1916908160001a9053507f780000000000000000000000000000000000000000000000000000000000000081600181518110611b6f57611b6e612f56565b5b60200101907effffffffffffffffffffffffffffffffffffffffffffffffffffffffffffff1916908160001a90535060006001846002611baf91906128d0565b611bb9919061280a565b90505b6001811115611c59577f3031323334353637383961626364656600000000000000000000000000000000600f861660108110611bfb57611bfa612f56565b5b1a60f81b828281518110611c1257611c11612f56565b5b60200101907effffffffffffffffffffffffffffffffffffffffffffffffffffffffffffff1916908160001a905350600485901c945080611c5290612f85565b9050611bbc565b5060008414611c9d576040517f08c379a0000000000000000000000000000000000000000000000000000000008152600401611c9490612ffa565b60405180910390fd5b8091505092915050565b6000604051905090565b600080fd5b600080fd5b60007fffffffff0000000000000000000000000000000000000000000000000000000082169050919050565b611cf081611cbb565b8114611cfb57600080fd5b50565b600081359050611d0d81611ce7565b92915050565b600060208284031215611d2957611d28611cb1565b5b6000611d3784828501611cfe565b91505092915050565b60008115159050919050565b611d5581611d40565b82525050565b6000602082019050611d706000830184611d4c565b92915050565b600081519050919050565b600082825260208201905092915050565b60005b83811015611db0578082015181840152602081019050611d95565b60008484015250505050565b6000601f19601f8301169050919050565b6000611dd882611d76565b611de28185611d81565b9350611df2818560208601611d92565b611dfb81611dbc565b840191505092915050565b60006020820190508181036000830152611e208184611dcd565b905092915050565b600073ffffffffffffffffffffffffffffffffffffffff82169050919050565b6000611e5382611e28565b9050919050565b611e6381611e48565b8114611e6e57600080fd5b50565b600081359050611e8081611e5a565b92915050565b6000819050919050565b611e9981611e86565b8114611ea457600080fd5b50565b600081359050611eb681611e90565b92915050565b60008060408385031215611ed357611ed2611cb1565b5b6000611ee185828601611e71565b9250506020611ef285828601611ea7565b9150509250929050565b611f0581611e86565b82525050565b6000602082019050611f206000830184611efc565b92915050565b600080fd5b7f4e487b7100000000000000000000000000000000000000000000000000000000600052604160045260246000fd5b611f6382611dbc565b810181811067ffffffffffffffff82111715611f8257611f81611f2b565b5b80604052505050565b6000611f95611ca7565b9050611fa18282611f5a565b919050565b600080fd5b600080fd5b600080fd5b600067ffffffffffffffff821115611fd057611fcf611f2b565b5b611fd982611dbc565b9050602081019050919050565b82818337600083830152505050565b600061200861200384611fb5565b611f8b565b90508281526020810184848401111561202457612023611fb0565b5b61202f848285611fe6565b509392505050565b600082601f83011261204c5761204b611fab565b5b813561205c848260208601611ff5565b91505092915050565b600060a0828403121561207b5761207a611f26565b5b61208560a0611f8b565b9050600082013567ffffffffffffffff8111156120a5576120a4611fa6565b5b6120b184828501612037565b600083015250602082013567ffffffffffffffff8111156120d5576120d4611fa6565b5b6120e184828501612037565b60208301525060406120f584828501611ea7565b604083015250606082013567ffffffffffffffff81111561211957612118611fa6565b5b61212584828501612037565b606083015250608061213984828501611ea7565b60808301525092915050565b60006020828403121561215b5761215a611cb1565b5b600082013567ffffffffffffffff81111561217957612178611cb6565b5b61218584828501612065565b91505092915050565b6000806000606084860312156121a7576121a6611cb1565b5b60006121b586828701611e71565b93505060206121c686828701611e71565b92505060406121d786828701611ea7565b9150509250925092565b6000819050919050565b6121f4816121e1565b81146121ff57600080fd5b50565b600081359050612211816121eb565b92915050565b60006020828403121561222d5761222c611cb1565b5b600061223b84828501612202565b91505092915050565b61224d816121e1565b82525050565b60006020820190506122686000830184612244565b92915050565b6000806040838503121561228557612284611cb1565b5b600061229385828601612202565b92505060206122a485828601611e71565b9150509250929050565b600060ff82169050919050565b6122c4816122ae565b82525050565b60006020820190506122df60008301846122bb565b92915050565b6000602082840312156122fb576122fa611cb1565b5b600061230984828501611ea7565b91505092915050565b60006020828403121561232857612327611cb1565b5b600061233684828501611e71565b91505092915050565b600060a08201905081810360008301526123598188611dcd565b9050818103602083015261236d8187611dcd565b905061237c6040830186611efc565b818103606083015261238e8185611dcd565b905061239d6080830184611efc565b9695505050505050565b6123b081611e48565b82525050565b60006020820190506123cb60008301846123a7565b92915050565b600080604083850312156123e8576123e7611cb1565b5b60006123f685828601611e71565b925050602061240785828601611e71565b9150509250929050565b7f4e487b7100000000000000000000000000000000000000000000000000000000600052602260045260246000fd5b6000600282049050600182168061245857607f821691505b60208210810361246b5761246a612411565b5b50919050565b60008190508160005260206000209050919050565b60006020601f8301049050919050565b600082821b905092915050565b6000600883026124d37fffffffffffffffffffffffffffffffffffffffffffffffffffffffffffffffff82612496565b6124dd8683612496565b95508019841693508086168417925050509392505050565b6000819050919050565b600061251a61251561251084611e86565b6124f5565b611e86565b9050919050565b6000819050919050565b612534836124ff565b61254861254082612521565b8484546124a3565b825550505050565b600090565b61255d612550565b61256881848461252b565b505050565b5b8181101561258c57612581600082612555565b60018101905061256e565b5050565b601f8211156125d1576125a281612471565b6125ab84612486565b810160208510156125ba578190505b6125ce6125c685612486565b83018261256d565b50505b505050565b600082821c905092915050565b60006125f4600019846008026125d6565b1980831691505092915050565b600061260d83836125e3565b9150826002028217905092915050565b61262682611d76565b67ffffffffffffffff81111561263f5761263e611f2b565b5b6126498254612440565b612654828285612590565b600060209050601f8311600181146126875760008415612675578287015190505b61267f8582612601565b8655506126e7565b601f19841661269586612471565b60005b828110156126bd57848901518255600182019150602085019450602081019050612698565b868310156126da57848901516126d6601f8916826125e3565b8355505b6001600288020188555050505b505050505050565b600060808201905081810360008301526127098187611dcd565b9050818103602083015261271d8186611dcd565b905061272c6040830185611efc565b818103606083015261273e8184611dcd565b905095945050505050565b7f416363657373436f6e74726f6c3a2063616e206f6e6c792072656e6f756e636560008201527f20726f6c657320666f722073656c660000000000000000000000000000000000602082015250565b60006127a5602f83611d81565b91506127b082612749565b604082019050919050565b600060208201905081810360008301526127d481612798565b9050919050565b7f4e487b7100000000000000000000000000000000000000000000000000000000600052601160045260246000fd5b600061281582611e86565b915061282083611e86565b9250828201905080821115612838576128376127db565b5b92915050565b7f45524332303a2064656372656173656420616c6c6f77616e63652062656c6f7760008201527f207a65726f000000000000000000000000000000000000000000000000000000602082015250565b600061289a602583611d81565b91506128a58261283e565b604082019050919050565b600060208201905081810360008301526128c98161288d565b9050919050565b60006128db82611e86565b91506128e683611e86565b92508282026128f481611e86565b9150828204841483151761290b5761290a6127db565b5b5092915050565b7f4e487b7100000000000000000000000000000000000000000000000000000000600052601260045260246000fd5b600061294c82611e86565b915061295783611e86565b92508261296757612966612912565b5b828204905092915050565b7f45524332303a20617070726f76652066726f6d20746865207a65726f2061646460008201527f7265737300000000000000000000000000000000000000000000000000000000602082015250565b60006129ce602483611d81565b91506129d982612972565b604082019050919050565b600060208201905081810360008301526129fd816129c1565b9050919050565b7f45524332303a20617070726f766520746f20746865207a65726f20616464726560008201527f7373000000000000000000000000000000000000000000000000000000000000602082015250565b6000612a60602283611d81565b9150612a6b82612a04565b604082019050919050565b60006020820190508181036000830152612a8f81612a53565b9050919050565b7f45524332303a20696e73756666696369656e7420616c6c6f77616e6365000000600082015250565b6000612acc601d83611d81565b9150612ad782612a96565b602082019050919050565b60006020820190508181036000830152612afb81612abf565b9050919050565b7f45524332303a207472616e736665722066726f6d20746865207a65726f20616460008201527f6472657373000000000000000000000000000000000000000000000000000000602082015250565b6000612b5e602583611d81565b9150612b6982612b02565b604082019050919050565b60006020820190508181036000830152612b8d81612b51565b9050919050565b7f45524332303a207472616e7366657220746f20746865207a65726f206164647260008201527f6573730000000000000000000000000000000000000000000000000000000000602082015250565b6000612bf0602383611d81565b9150612bfb82612b94565b604082019050919050565b60006020820190508181036000830152612c1f81612be3565b9050919050565b7f45524332303a207472616e7366657220616d6f756e742065786365656473206260008201527f616c616e63650000000000000000000000000000000000000000000000000000602082015250565b6000612c82602683611d81565b9150612c8d82612c26565b604082019050919050565b60006020820190508181036000830152612cb181612c75565b9050919050565b7f45524332303a206d696e7420746f20746865207a65726f206164647265737300600082015250565b6000612cee601f83611d81565b9150612cf982612cb8565b602082019050919050565b60006020820190508181036000830152612d1d81612ce1565b9050919050565b600081905092915050565b7f416363657373436f6e74726f6c3a206163636f756e7420000000000000000000600082015250565b6000612d65601783612d24565b9150612d7082612d2f565b601782019050919050565b6000612d8682611d76565b612d908185612d24565b9350612da0818560208601611d92565b80840191505092915050565b7f206973206d697373696e6720726f6c6520000000000000000000000000000000600082015250565b6000612de2601183612d24565b9150612ded82612dac565b601182019050919050565b6000612e0382612d58565b9150612e0f8285612d7b565b9150612e1a82612dd5565b9150612e268284612d7b565b91508190509392505050565b7f45524332303a206275726e2066726f6d20746865207a65726f2061646472657360008201527f7300000000000000000000000000000000000000000000000000000000000000602082015250565b6000612e8e602183611d81565b9150612e9982612e32565b604082019050919050565b60006020820190508181036000830152612ebd81612e81565b9050919050565b7f45524332303a206275726e20616d6f756e7420657863656564732062616c616e60008201527f6365000000000000000000000000000000000000000000000000000000000000602082015250565b6000612f20602283611d81565b9150612f2b82612ec4565b604082019050919050565b60006020820190508181036000830152612f4f81612f13565b9050919050565b7f4e487b7100000000000000000000000000000000000000000000000000000000600052603260045260246000fd5b6000612f9082611e86565b915060008203612fa357612fa26127db565b5b600182039050919050565b7f537472696e67733a20686578206c656e67746820696e73756666696369656e74600082015250565b6000612fe4602083611d81565b9150612fef82612fae565b602082019050919050565b6000602082019050818103600083015261301381612fd7565b905091905056fea26469706673582212202f8ed07dd1163c94a06d5aa95c25e4c10869eff5220b79c1dedc4a181265dbcc64736f6c63430008180033",
        "linkReferences": {}
    },
    "methodIdentifiers": {
        "BURNER_ROLE()": "282c51f3",
        "DEFAULT_ADMIN_ROLE()": "a217fddf",
        "MINTER_ROLE()": "d5391393",
        "allowance(address,address)": "dd62ed3e",
        "approve(address,uint256)": "095ea7b3",
        "assetData()": "8d449358",
        "balanceOf(address)": "70a08231",
        "burn(address,uint256)": "9dc29fac",
        "burn(uint256)": "42966c68",
        "burnFrom(address,uint256)": "79cc6790",
        "decimals()": "313ce567",
        "decreaseAllowance(address,uint256)": "a457c2d7",
        "getCCIPAdmin()": "8fd6a6ac",
        "getMarketCap()": "90825c28",
        "getPricePerToken()": "ca1e9738",
        "getRoleAdmin(bytes32)": "248a9ca3",
        "grantRole(bytes32,address)": "2f2ff15d",
        "hasRole(bytes32,address)": "91d14854",
        "increaseAllowance(address,uint256)": "39509351",
        "mint(address,uint256)": "40c10f19",
        "name()": "06fdde03",
        "renounceRole(bytes32,address)": "36568abe",
        "revokeRole(bytes32,address)": "d547741f",
        "supportsInterface(bytes4)": "01ffc9a7",
        "symbol()": "95d89b41",
        "totalSupply()": "18160ddd",
        "transfer(address,uint256)": "a9059cbb",
        "transferFrom(address,address,uint256)": "23b872dd",
        "updateAssetMetadata((string,string,uint256,string,uint256))": "1fc6ee15"
    },
    "id": 41
}