{
    "abi": [
        {
            "type": "function",
            "name": "acceptAdminRole",
            "inputs": [
                {
                    "name": "localToken",
                    "type": "address",
                    "internalType": "address"
                }
            ],
            "outputs": [],
            "stateMutability": "nonpayable"
        },
        {
            "type": "function",
            "name": "acceptOwnership",
            "inputs": [],
            "outputs": [],
            "stateMutability": "nonpayable"
        },
        {
            "type": "function",
            "name": "addRegistryModule",
            "inputs": [
                {
                    "name": "module",
                    "type": "address",
                    "internalType": "address"
                }
            ],
            "outputs": [],
            "stateMutability": "nonpayable"
        },
        {
            "type": "function",
            "name": "getAllConfiguredTokens",
            "inputs": [
                {
                    "name": "startIndex",
                    "type": "uint64",
                    "internalType": "uint64"
                },
                {
                    "name": "maxCount",
                    "type": "uint64",
                    "internalType": "uint64"
                }
            ],
            "outputs": [
                {
                    "name": "tokens",
                    "type": "address[]",
                    "internalType": "address[]"
                }
            ],
            "stateMutability": "view"
        },
        {
            "type": "function",
            "name": "getPool",
            "inputs": [
                {
                    "name": "token",
                    "type": "address",
                    "internalType": "address"
                }
            ],
            "outputs": [
                {
                    "name": "",
                    "type": "address",
                    "internalType": "address"
                }
            ],
            "stateMutability": "view"
        },
        {
            "type": "function",
            "name": "getPools",
            "inputs": [
                {
                    "name": "tokens",
                    "type": "address[]",
                    "internalType": "address[]"
                }
            ],
            "outputs": [
                {
                    "name": "",
                    "type": "address[]",
                    "internalType": "address[]"
                }
            ],
            "stateMutability": "view"
        },
        {
            "type": "function",
            "name": "getTokenConfig",
            "inputs": [
                {
                    "name": "token",
                    "type": "address",
                    "internalType": "address"
                }
            ],
            "outputs": [
                {
                    "name": "",
                    "type": "tuple",
                    "internalType": "struct TokenAdminRegistry.TokenConfig",
                    "components": [
                        {
                            "name": "administrator",
                            "type": "address",
                            "internalType": "address"
                        },
                        {
                            "name": "pendingAdministrator",
                            "type": "address",
                            "internalType": "address"
                        },
                        {
                            "name": "tokenPool",
                            "type": "address",
                            "internalType": "address"
                        }
                    ]
                }
            ],
            "stateMutability": "view"
        },
        {
            "type": "function",
            "name": "isAdministrator",
            "inputs": [
                {
                    "name": "localToken",
                    "type": "address",
                    "internalType": "address"
                },
                {
                    "name": "administrator",
                    "type": "address",
                    "internalType": "address"
                }
            ],
            "outputs": [
                {
                    "name": "",
                    "type": "bool",
                    "internalType": "bool"
                }
            ],
            "stateMutability": "view"
        },
        {
            "type": "function",
            "name": "isRegistryModule",
            "inputs": [
                {
                    "name": "module",
                    "type": "address",
                    "internalType": "address"
                }
            ],
            "outputs": [
                {
                    "name": "",
                    "type": "bool",
                    "internalType": "bool"
                }
            ],
            "stateMutability": "view"
        },
        {
            "type": "function",
            "name": "owner",
            "inputs": [],
            "outputs": [
                {
                    "name": "",
                    "type": "address",
                    "internalType": "address"
                }
            ],
            "stateMutability": "view"
        },
        {
            "type": "function",
            "name": "proposeAdministrator",
            "inputs": [
                {
                    "name": "localToken",
                    "type": "address",
                    "internalType": "address"
                },
                {
                    "name": "administrator",
                    "type": "address",
                    "internalType": "address"
                }
            ],
            "outputs": [],
            "stateMutability": "nonpayable"
        },
        {
            "type": "function",
            "name": "removeRegistryModule",
            "inputs": [
                {
                    "name": "module",
                    "type": "address",
                    "internalType": "address"
                }
            ],
            "outputs": [],
            "stateMutability": "nonpayable"
        },
        {
            "type": "function",
            "name": "setPool",
            "inputs": [
                {
                    "name": "localToken",
                    "type": "address",
                    "internalType": "address"
                },
                {
                    "name": "pool",
                    "type": "address",
                    "internalType": "address"
                }
            ],
            "outputs": [],
            "stateMutability": "nonpayable"
        },
        {
            "type": "function",
            "name": "transferAdminRole",
            "inputs": [
                {
                    "name": "localToken",
                    "type": "address",
                    "internalType": "address"
                },
                {
                    "name": "newAdmin",
                    "type": "address",
                    "internalType": "address"
                }
            ],
            "outputs": [],
            "stateMutability": "nonpayable"
        },
        {
            "type": "function",
            "name": "transferOwnership",
            "inputs": [
                {
                    "name": "to",
                    "type": "address",
                    "internalType": "address"
                }
            ],
            "outputs": [],
            "stateMutability": "nonpayable"
        },
        {
            "type": "function",
            "name": "typeAndVersion",
            "inputs": [],
            "outputs": [
                {
                    "name": "",
                    "type": "string",
                    "internalType": "string"
                }
            ],
            "stateMutability": "view"
        },
        {
            "type": "event",
            "name": "AdministratorTransferRequested",
            "inputs": [
                {
                    "name": "token",
                    "type": "address",
                    "indexed": true,
                    "internalType": "address"
                },
                {
                    "name": "currentAdmin",
                    "type": "address",
                    "indexed": true,
                    "internalType": "address"
                },
                {
                    "name": "newAdmin",
                    "type": "address",
                    "indexed": true,
                    "internalType": "address"
                }
            ],
            "anonymous": false
        },
        {
            "type": "event",
            "name": "AdministratorTransferred",
            "inputs": [
                {
                    "name": "token",
                    "type": "address",
                    "indexed": true,
                    "internalType": "address"
                },
                {
                    "name": "newAdmin",
                    "type": "address",
                    "indexed": true,
                    "internalType": "address"
                }
            ],
            "anonymous": false
        },
        {
            "type": "event",
            "name": "OwnershipTransferRequested",
            "inputs": [
                {
                    "name": "from",
                    "type": "address",
                    "indexed": true,
                    "internalType": "address"
                },
                {
                    "name": "to",
                    "type": "address",
                    "indexed": true,
                    "internalType": "address"
                }
            ],
            "anonymous": false
        },
        {
            "type": "event",
            "name": "OwnershipTransferred",
            "inputs": [
                {
                    "name": "from",
                    "type": "address",
                    "indexed": true,
                    "internalType": "address"
                },
                {
                    "name": "to",
                    "type": "address",
                    "indexed": true,
                    "internalType": "address"
                }
            ],
            "anonymous": false
        },
        {
            "type": "event",
            "name": "PoolSet",
            "inputs": [
                {
                    "name": "token",
                    "type": "address",
                    "indexed": true,
                    "internalType": "address"
                },
                {
                    "name": "previousPool",
                    "type": "address",
                    "indexed": true,
                    "internalType": "address"
                },
                {
                    "name": "newPool",
                    "type": "address",
                    "indexed": true,
                    "internalType": "address"
                }
            ],
            "anonymous": false
        },
        {
            "type": "event",
            "name": "RegistryModuleAdded",
            "inputs": [
                {
                    "name": "module",
                    "type": "address",
                    "indexed": false,
                    "internalType": "address"
                }
            ],
            "anonymous": false
        },
        {
            "type": "event",
            "name": "RegistryModuleRemoved",
            "inputs": [
                {
                    "name": "module",
                    "type": "address",
                    "indexed": true,
                    "internalType": "address"
                }
            ],
            "anonymous": false
        },
        {
            "type": "error",
            "name": "AlreadyRegistered",
            "inputs": [
                {
                    "name": "token",
                    "type": "address",
                    "internalType": "address"
                }
            ]
        },
        {
            "type": "error",
            "name": "CannotTransferToSelf",
            "inputs": []
        },
        {
            "type": "error",
            "name": "InvalidTokenPoolToken",
            "inputs": [
                {
                    "name": "token",
                    "type": "address",
                    "internalType": "address"
                }
            ]
        },
        {
            "type": "error",
            "name": "MustBeProposedOwner",
            "inputs": []
        },
        {
            "type": "error",
            "name": "OnlyAdministrator",
            "inputs": [
                {
                    "name": "sender",
                    "type": "address",
                    "internalType": "address"
                },
                {
                    "name": "token",
                    "type": "address",
                    "internalType": "address"
                }
            ]
        },
        {
            "type": "error",
            "name": "OnlyCallableByOwner",
            "inputs": []
        },
        {
            "type": "error",
            "name": "OnlyPendingAdministrator",
            "inputs": [
                {
                    "name": "sender",
                    "type": "address",
                    "internalType": "address"
                },
                {
                    "name": "token",
                    "type": "address",
                    "internalType": "address"
                }
            ]
        },
        {
            "type": "error",
            "name": "OnlyRegistryModuleOrOwner",
            "inputs": [
                {
                    "name": "sender",
                    "type": "address",
                    "internalType": "address"
                }
            ]
        },
        {
            "type": "error",
            "name": "OwnerCannotBeZero",
            "inputs": []
        },
        {
            "type": "error",
            "name": "ZeroAddress",
            "inputs": []
        }
    ],
    "bytecode": {
        "object": "0x608060405234801561001057600080fd5b503360008073ffffffffffffffffffffffffffffffffffffffff168273ffffffffffffffffffffffffffffffffffffffff1603610079576040517f9b15e16f00000000000000000000000000000000000000000000000000000000815260040160405180910390fd5b81600160006101000a81548173ffffffffffffffffffffffffffffffffffffffff021916908373ffffffffffffffffffffffffffffffffffffffff160217905550600073ffffffffffffffffffffffffffffffffffffffff168173ffffffffffffffffffffffffffffffffffffffff16146100fe576100fd8161010560201b60201c565b5b5050610229565b3373ffffffffffffffffffffffffffffffffffffffff168173ffffffffffffffffffffffffffffffffffffffff160361016a576040517fdad89dca00000000000000000000000000000000000000000000000000000000815260040160405180910390fd5b806000806101000a81548173ffffffffffffffffffffffffffffffffffffffff021916908373ffffffffffffffffffffffffffffffffffffffff1602179055508073ffffffffffffffffffffffffffffffffffffffff16600160009054906101000a900473ffffffffffffffffffffffffffffffffffffffff1673ffffffffffffffffffffffffffffffffffffffff167fed8889f560326eb138920d842192f0eb3dd22b4f139c87a2c57538e05bae127860405160405180910390a350565b611f4a80620002396000396000f3fe608060405234801561001057600080fd5b50600436106101005760003560e01c80637d3f255211610097578063cb67e3b111610066578063cb67e3b1146102ab578063ddadfa8e146102db578063e677ae37146102f7578063f2fde38b1461031357610100565b80637d3f2552146101fd5780638da5cb5b1461022d578063bbe4f6db1461024b578063c1af6e031461027b57610100565b80634e847fc7116100d35780634e847fc7146101775780635e63547a1461019357806372d64a81146101c357806379ba5097146101f357610100565b806310cbcf1814610105578063156194da14610121578063181f5a771461013d5780633dc457721461015b575b600080fd5b61011f600480360381019061011a9190611976565b61032f565b005b61013b60048036038101906101369190611976565b610397565b005b610145610555565b6040516101529190611a33565b60405180910390f35b61017560048036038101906101709190611976565b61058e565b005b610191600480360381019061018c9190611a55565b6105ea565b005b6101ad60048036038101906101a89190611afa565b610910565b6040516101ba9190611c05565b60405180910390f35b6101dd60048036038101906101d89190611c67565b610a5d565b6040516101ea9190611c05565b60405180910390f35b6101fb610baa565b005b61021760048036038101906102129190611976565b610d35565b6040516102249190611cc2565b60405180910390f35b610235610d52565b6040516102429190611cec565b60405180910390f35b61026560048036038101906102609190611976565b610d7c565b6040516102729190611cec565b60405180910390f35b61029560048036038101906102909190611a55565b610de8565b6040516102a29190611cc2565b60405180910390f35b6102c560048036038101906102c09190611976565b610e83565b6040516102d29190611d49565b60405180910390f35b6102f560048036038101906102f09190611a55565b610fde565b005b610311600480360381019061030c9190611a55565b6111b0565b005b61032d60048036038101906103289190611976565b611448565b005b61033761145c565b61034b8160056114e590919063ffffffff16565b15610394578073ffffffffffffffffffffffffffffffffffffffff167f93eaa26dcb9275e56bacb1d33fdbf402262da6f0f4baf2a6e2cd154b73f387f860405160405180910390a25b50565b6000600260008373ffffffffffffffffffffffffffffffffffffffff1673ffffffffffffffffffffffffffffffffffffffff16815260200190815260200160002090503373ffffffffffffffffffffffffffffffffffffffff168160010160009054906101000a900473ffffffffffffffffffffffffffffffffffffffff1673ffffffffffffffffffffffffffffffffffffffff16146104705733826040517f3edffe75000000000000000000000000000000000000000000000000000000008152600401610467929190611d64565b60405180910390fd5b338160000160006101000a81548173ffffffffffffffffffffffffffffffffffffffff021916908373ffffffffffffffffffffffffffffffffffffffff16021790555060008160010160006101000a81548173ffffffffffffffffffffffffffffffffffffffff021916908373ffffffffffffffffffffffffffffffffffffffff1602179055503373ffffffffffffffffffffffffffffffffffffffff168273ffffffffffffffffffffffffffffffffffffffff167f399b55200f7f639a63d76efe3dcfa9156ce367058d6b673041b84a628885f5a760405160405180910390a35050565b6040518060400160405280601881526020017f546f6b656e41646d696e526567697374727920312e352e30000000000000000081525081565b61059661145c565b6105aa81600561151590919063ffffffff16565b156105e7577f3cabf004338366bfeaeb610ad827cb58d16b588017c509501f2c97c83caae7b2816040516105de9190611cec565b60405180910390a15b50565b813373ffffffffffffffffffffffffffffffffffffffff16600260008373ffffffffffffffffffffffffffffffffffffffff1673ffffffffffffffffffffffffffffffffffffffff16815260200190815260200160002060000160009054906101000a900473ffffffffffffffffffffffffffffffffffffffff1673ffffffffffffffffffffffffffffffffffffffff16146106bf5733816040517fed5d85b50000000000000000000000000000000000000000000000000000000081526004016106b6929190611d64565b60405180910390fd5b600073ffffffffffffffffffffffffffffffffffffffff168273ffffffffffffffffffffffffffffffffffffffff161415801561077357508173ffffffffffffffffffffffffffffffffffffffff1663240028e8846040518263ffffffff1660e01b81526004016107309190611cec565b602060405180830381865afa15801561074d573d6000803e3d6000fd5b505050506040513d601f19601f820116820180604052508101906107719190611db9565b155b156107b557826040517f962b60e60000000000000000000000000000000000000000000000000000000081526004016107ac9190611cec565b60405180910390fd5b6000600260008573ffffffffffffffffffffffffffffffffffffffff1673ffffffffffffffffffffffffffffffffffffffff168152602001908152602001600020905060008160020160009054906101000a900473ffffffffffffffffffffffffffffffffffffffff169050838260020160006101000a81548173ffffffffffffffffffffffffffffffffffffffff021916908373ffffffffffffffffffffffffffffffffffffffff1602179055508373ffffffffffffffffffffffffffffffffffffffff168173ffffffffffffffffffffffffffffffffffffffff1614610909578373ffffffffffffffffffffffffffffffffffffffff168173ffffffffffffffffffffffffffffffffffffffff168673ffffffffffffffffffffffffffffffffffffffff167f754449ec3aff3bd528bfce43ae9319c4a381b67fcd1d20097b3b24dacaecc35d60405160405180910390a45b5050505050565b606060008383905067ffffffffffffffff81111561093157610930611de6565b5b60405190808252806020026020018201604052801561095f5781602001602082028036833780820191505090505b50905060005b84849050811015610a52576002600086868481811061098757610986611e15565b5b905060200201602081019061099c9190611976565b73ffffffffffffffffffffffffffffffffffffffff1673ffffffffffffffffffffffffffffffffffffffff16815260200190815260200160002060020160009054906101000a900473ffffffffffffffffffffffffffffffffffffffff16828281518110610a0d57610a0c611e15565b5b602002602001019073ffffffffffffffffffffffffffffffffffffffff16908173ffffffffffffffffffffffffffffffffffffffff1681525050806001019050610965565b508091505092915050565b60606000610a6b6003611545565b9050808467ffffffffffffffff1610610a845750610ba4565b60008367ffffffffffffffff169050818567ffffffffffffffff1682610aaa9190611e7d565b1115610ac9578467ffffffffffffffff1682610ac69190611eb1565b90505b8067ffffffffffffffff811115610ae357610ae2611de6565b5b604051908082528060200260200182016040528015610b115781602001602082028036833780820191505090505b50925060005b81811015610ba057610b48818767ffffffffffffffff16610b389190611e7d565b600361155a90919063ffffffff16565b848281518110610b5b57610b5a611e15565b5b602002602001019073ffffffffffffffffffffffffffffffffffffffff16908173ffffffffffffffffffffffffffffffffffffffff1681525050806001019050610b17565b5050505b92915050565b60008054906101000a900473ffffffffffffffffffffffffffffffffffffffff1673ffffffffffffffffffffffffffffffffffffffff163373ffffffffffffffffffffffffffffffffffffffff1614610c2f576040517f02b543c600000000000000000000000000000000000000000000000000000000815260040160405180910390fd5b6000600160009054906101000a900473ffffffffffffffffffffffffffffffffffffffff16905033600160006101000a81548173ffffffffffffffffffffffffffffffffffffffff021916908373ffffffffffffffffffffffffffffffffffffffff16021790555060008060006101000a81548173ffffffffffffffffffffffffffffffffffffffff021916908373ffffffffffffffffffffffffffffffffffffffff1602179055503373ffffffffffffffffffffffffffffffffffffffff168173ffffffffffffffffffffffffffffffffffffffff167f8be0079c531659141344cd1fd0a4f28419497f9722a3daafe3b4186f6b6457e060405160405180910390a350565b6000610d4b82600561157490919063ffffffff16565b9050919050565b6000600160009054906101000a900473ffffffffffffffffffffffffffffffffffffffff16905090565b6000600260008373ffffffffffffffffffffffffffffffffffffffff1673ffffffffffffffffffffffffffffffffffffffff16815260200190815260200160002060020160009054906101000a900473ffffffffffffffffffffffffffffffffffffffff169050919050565b60008173ffffffffffffffffffffffffffffffffffffffff16600260008573ffffffffffffffffffffffffffffffffffffffff1673ffffffffffffffffffffffffffffffffffffffff16815260200190815260200160002060000160009054906101000a900473ffffffffffffffffffffffffffffffffffffffff1673ffffffffffffffffffffffffffffffffffffffff1614905092915050565b610e8b6118ab565b600260008373ffffffffffffffffffffffffffffffffffffffff1673ffffffffffffffffffffffffffffffffffffffff1681526020019081526020016000206040518060600160405290816000820160009054906101000a900473ffffffffffffffffffffffffffffffffffffffff1673ffffffffffffffffffffffffffffffffffffffff1673ffffffffffffffffffffffffffffffffffffffff1681526020016001820160009054906101000a900473ffffffffffffffffffffffffffffffffffffffff1673ffffffffffffffffffffffffffffffffffffffff1673ffffffffffffffffffffffffffffffffffffffff1681526020016002820160009054906101000a900473ffffffffffffffffffffffffffffffffffffffff1673ffffffffffffffffffffffffffffffffffffffff1673ffffffffffffffffffffffffffffffffffffffff16815250509050919050565b813373ffffffffffffffffffffffffffffffffffffffff16600260008373ffffffffffffffffffffffffffffffffffffffff1673ffffffffffffffffffffffffffffffffffffffff16815260200190815260200160002060000160009054906101000a900473ffffffffffffffffffffffffffffffffffffffff1673ffffffffffffffffffffffffffffffffffffffff16146110b35733816040517fed5d85b50000000000000000000000000000000000000000000000000000000081526004016110aa929190611d64565b60405180910390fd5b6000600260008573ffffffffffffffffffffffffffffffffffffffff1673ffffffffffffffffffffffffffffffffffffffff1681526020019081526020016000209050828160010160006101000a81548173ffffffffffffffffffffffffffffffffffffffff021916908373ffffffffffffffffffffffffffffffffffffffff1602179055508273ffffffffffffffffffffffffffffffffffffffff163373ffffffffffffffffffffffffffffffffffffffff168573ffffffffffffffffffffffffffffffffffffffff167fc54c3051ff16e63bb9203214432372aca006c589e3653619b577a3265675b71660405160405180910390a450505050565b6111b933610d35565b1580156111f957506111c9610d52565b73ffffffffffffffffffffffffffffffffffffffff163373ffffffffffffffffffffffffffffffffffffffff1614155b1561123b57336040517f51ca1ec30000000000000000000000000000000000000000000000000000000081526004016112329190611cec565b60405180910390fd5b600073ffffffffffffffffffffffffffffffffffffffff168173ffffffffffffffffffffffffffffffffffffffff16036112a1576040517fd92e233d00000000000000000000000000000000000000000000000000000000815260040160405180910390fd5b6000600260008473ffffffffffffffffffffffffffffffffffffffff1673ffffffffffffffffffffffffffffffffffffffff1681526020019081526020016000209050600073ffffffffffffffffffffffffffffffffffffffff168160000160009054906101000a900473ffffffffffffffffffffffffffffffffffffffff1673ffffffffffffffffffffffffffffffffffffffff161461137957826040517f45ed80e90000000000000000000000000000000000000000000000000000000081526004016113709190611cec565b60405180910390fd5b818160010160006101000a81548173ffffffffffffffffffffffffffffffffffffffff021916908373ffffffffffffffffffffffffffffffffffffffff1602179055506113d083600361151590919063ffffffff16565b508173ffffffffffffffffffffffffffffffffffffffff16600073ffffffffffffffffffffffffffffffffffffffff168473ffffffffffffffffffffffffffffffffffffffff167fc54c3051ff16e63bb9203214432372aca006c589e3653619b577a3265675b71660405160405180910390a4505050565b61145061145c565b611459816115a4565b50565b600160009054906101000a900473ffffffffffffffffffffffffffffffffffffffff1673ffffffffffffffffffffffffffffffffffffffff163373ffffffffffffffffffffffffffffffffffffffff16146114e3576040517f2b5c74de00000000000000000000000000000000000000000000000000000000815260040160405180910390fd5b565b600061150d836000018373ffffffffffffffffffffffffffffffffffffffff1660001b6116c8565b905092915050565b600061153d836000018373ffffffffffffffffffffffffffffffffffffffff1660001b6117dc565b905092915050565b60006115538260000161184c565b9050919050565b6000611569836000018361185d565b60001c905092915050565b600061159c836000018373ffffffffffffffffffffffffffffffffffffffff1660001b611888565b905092915050565b3373ffffffffffffffffffffffffffffffffffffffff168173ffffffffffffffffffffffffffffffffffffffff1603611609576040517fdad89dca00000000000000000000000000000000000000000000000000000000815260040160405180910390fd5b806000806101000a81548173ffffffffffffffffffffffffffffffffffffffff021916908373ffffffffffffffffffffffffffffffffffffffff1602179055508073ffffffffffffffffffffffffffffffffffffffff16600160009054906101000a900473ffffffffffffffffffffffffffffffffffffffff1673ffffffffffffffffffffffffffffffffffffffff167fed8889f560326eb138920d842192f0eb3dd22b4f139c87a2c57538e05bae127860405160405180910390a350565b600080836001016000848152602001908152602001600020549050600081146117d05760006001826116fa9190611eb1565b90506000600186600001805490506117129190611eb1565b905080821461178157600086600001828154811061173357611732611e15565b5b906000526020600020015490508087600001848154811061175757611756611e15565b5b90600052602060002001819055508387600101600083815260200190815260200160002081905550505b8560000180548061179557611794611ee5565b5b6001900381819060005260206000200160009055905585600101600086815260200190815260200160002060009055600193505050506117d6565b60009150505b92915050565b60006117e88383611888565b611841578260000182908060018154018082558091505060019003906000526020600020016000909190919091505582600001805490508360010160008481526020019081526020016000208190555060019050611846565b600090505b92915050565b600081600001805490509050919050565b600082600001828154811061187557611874611e15565b5b9060005260206000200154905092915050565b600080836001016000848152602001908152602001600020541415905092915050565b6040518060600160405280600073ffffffffffffffffffffffffffffffffffffffff168152602001600073ffffffffffffffffffffffffffffffffffffffff168152602001600073ffffffffffffffffffffffffffffffffffffffff1681525090565b600080fd5b600080fd5b600073ffffffffffffffffffffffffffffffffffffffff82169050919050565b600061194382611918565b9050919050565b61195381611938565b811461195e57600080fd5b50565b6000813590506119708161194a565b92915050565b60006020828403121561198c5761198b61190e565b5b600061199a84828501611961565b91505092915050565b600081519050919050565b600082825260208201905092915050565b60005b838110156119dd5780820151818401526020810190506119c2565b60008484015250505050565b6000601f19601f8301169050919050565b6000611a05826119a3565b611a0f81856119ae565b9350611a1f8185602086016119bf565b611a28816119e9565b840191505092915050565b60006020820190508181036000830152611a4d81846119fa565b905092915050565b60008060408385031215611a6c57611a6b61190e565b5b6000611a7a85828601611961565b9250506020611a8b85828601611961565b9150509250929050565b600080fd5b600080fd5b600080fd5b60008083601f840112611aba57611ab9611a95565b5b8235905067ffffffffffffffff811115611ad757611ad6611a9a565b5b602083019150836020820283011115611af357611af2611a9f565b5b9250929050565b60008060208385031215611b1157611b1061190e565b5b600083013567ffffffffffffffff811115611b2f57611b2e611913565b5b611b3b85828601611aa4565b92509250509250929050565b600081519050919050565b600082825260208201905092915050565b6000819050602082019050919050565b611b7c81611938565b82525050565b6000611b8e8383611b73565b60208301905092915050565b6000602082019050919050565b6000611bb282611b47565b611bbc8185611b52565b9350611bc783611b63565b8060005b83811015611bf8578151611bdf8882611b82565b9750611bea83611b9a565b925050600181019050611bcb565b5085935050505092915050565b60006020820190508181036000830152611c1f8184611ba7565b905092915050565b600067ffffffffffffffff82169050919050565b611c4481611c27565b8114611c4f57600080fd5b50565b600081359050611c6181611c3b565b92915050565b60008060408385031215611c7e57611c7d61190e565b5b6000611c8c85828601611c52565b9250506020611c9d85828601611c52565b9150509250929050565b60008115159050919050565b611cbc81611ca7565b82525050565b6000602082019050611cd76000830184611cb3565b92915050565b611ce681611938565b82525050565b6000602082019050611d016000830184611cdd565b92915050565b606082016000820151611d1d6000850182611b73565b506020820151611d306020850182611b73565b506040820151611d436040850182611b73565b50505050565b6000606082019050611d5e6000830184611d07565b92915050565b6000604082019050611d796000830185611cdd565b611d866020830184611cdd565b9392505050565b611d9681611ca7565b8114611da157600080fd5b50565b600081519050611db381611d8d565b92915050565b600060208284031215611dcf57611dce61190e565b5b6000611ddd84828501611da4565b91505092915050565b7f4e487b7100000000000000000000000000000000000000000000000000000000600052604160045260246000fd5b7f4e487b7100000000000000000000000000000000000000000000000000000000600052603260045260246000fd5b6000819050919050565b7f4e487b7100000000000000000000000000000000000000000000000000000000600052601160045260246000fd5b6000611e8882611e44565b9150611e9383611e44565b9250828201905080821115611eab57611eaa611e4e565b5b92915050565b6000611ebc82611e44565b9150611ec783611e44565b9250828203905081811115611edf57611ede611e4e565b5b92915050565b7f4e487b7100000000000000000000000000000000000000000000000000000000600052603160045260246000fdfea264697066735822122049d43611234b2272b4c438058582a1c8f3b0013719ae9766e3d2cecc61fdaa8d64736f6c63430008180033",
        "linkReferences": {}
    },
    "methodIdentifiers": {
        "acceptAdminRole(address)": "156194da",
        "acceptOwnership()": "79ba5097",
        "addRegistryModule(address)": "3dc45772",
        "getAllConfiguredTokens(uint64,uint64)": "72d64a81",
        "getPool(address)": "bbe4f6db",
        "getPools(address[])": "5e63547a",
        "getTokenConfig(address)": "cb67e3b1",
        "isAdministrator(address,address)": "c1af6e03",
        "isRegistryModule(address)": "7d3f2552",
        "owner()": "8da5cb5b",
        "proposeAdministrator(address,address)": "e677ae37",
        "removeRegistryModule(address)": "10cbcf18",
        "setPool(address,address)": "4e847fc7",
        "transferAdminRole(address,address)": "ddadfa8e",
        "transferOwnership(address)": "f2fde38b",
        "typeAndVersion()": "181f5a77"
    },
    "id": 21
}